:100000000C948A140C94FC170C94B2140C94B21433
:100010000C94B2140C94B2140C94C1190C94B21434
:100020000C94B5170C94C5170C94B2140C94B2141C
:100030000C94B2140C94B2140C947B190C94B2145A
:100040000C94D52D0C94B2140C94AD150C94D315BE
:100050000C94B2140C94B2140C94B2140C94B21408
:100060000C94B2140C94B214521E561E681E821EBA
:10007000741E8C1E961EA71EBD1EE51EE51EFE25C7
:100080000326F225D825D825D825D825D825D82542
:10009000D825D825D825D825D825D8257F26D825D0
:1000A00014260F26D825D825FB25D825D825122695
:1000B00023636F6F726420666972737420706F6956
:1000C0006E740023736B697020636F6F726400231A
:1000D0007361766520636F6F726400234D41564CE7
:1000E000494E4B20636F6F726473002374696D65B2
:1000F0006420626561636F6E20696E6974002364B9
:100100006973636F6E6E656374206C6F636B00233D
:1001100064697361726D20646973636F6E6E656389
:1001200074002364697361726D206C6F636B0023CC
:100130004372617368002341726D656400234D4111
:10014000564C494E4B20676F6E6500235643432043
:10015000757000235643432069676E6F7265642093
:100160006C6F7374002356434320676F6E650023E2
:100170006E6F20764578740023666F756E64204537
:100180004520636F6F726473002373617920564357
:100190004300236C6F7720564343003E0A00530010
:1001A0003D0052003D005B434F4E4649475D0A000B
:1001B000303132333435363738393A232E202A005D
:1001C00020000D0A00302E32320023454550524F98
:1001D0004D20777269746520646F6E652100256912
:1001E0002E2530346C75000500064007010A050B0A
:1001F000120C150DFD0E00300079007A0570240BED
:10020000120C150D107102720873007400357A1DFE
:10021000402A14365537553855395500327C8900F7
:10022000EDD96877000000590000000000000000D0
:10023000D69FDCA81817AA90437327F6B968EDF487
:10024000DED409FEE61C1C84DDE80B992927D6DFE5
:100250008D210F036418EFEE1E99B7825276941524
:1002600000347C000026149E988F0000006A31162E
:100270008F8C059600E7B73F3600000000000000B5
:10028000AF669ED0385D8A6C20B95422007CED04A4
:100290004C80387486EDCBFA57CBDC19E2001DDFB9
:1002A0005506E5CB01C30000000000000000009AE5
:1002B000B20086DBD0BC5416131586004E44BD7FB9
:1002C0006F151590010000B50000000000002F0020
:1002D00000AEE50000000000000000000047000044
:1002E000000000000000000000000000000000000E
:1002F00000000000000000000000000000000000FE
:10030000000000000000000000000000005A000093
:100310000000000008CC31AA2C532E0063726173D8
:10032000683A00236368757465206F6E00634265E8
:1003300061636F6E20000700080009000A000B00CF
:100340000C000D000E001000110013001500170026
:1003500019001C001F002200250029002D0032007A
:1003600037003C00420049005000580061006B001B
:10037000760082008F009D00AD00BE00D100E60037
:10038000FD0017013301510173019801C101EE0114
:10039000200256029202D4021C036C03C3032404FD
:1003A0008E04020583051006AB0656071208E00806
:1003B000C309BD0AD00BFF0C4C0EBA0F4C1107132A
:1003C000EE1406175419DC1BA51EB6211525CA28E4
:1003D000DF2C5B314B36B93BB24144487E4F7157FD
:1003E0002F60CE696274FF7FFFFFFFFF02040608E3
:1003F00043039D037B03C702800491029D03FD0319
:1004000058046C046625C9214E1E871B07177614F5
:10041000D910DC0C840818040400000064080000F3
:1004200064617461000500000002100080FFDFDAE3
:10043000C0F1E999743601DABC9B083244243210C9
:1004400080DBEE9A0910313433128098CEBE9A08C0
:10045000204335221088B9DDAD99801144331281D3
:1004600090B9DFBB8980214524110888B9DDBB899B
:1004700008304534118090B9ECBBAA0820644321B0
:100480000088A9EBBC9A8910523523110899DBCD5D
:10049000AA9908305533120088B9DDBBAB8A2863AE
:1004A0003514110898CACCABAA882055242210888C
:1004B000A8DBCCAA9A88324633130198B9CDADABEC
:1004C0009908433633130098CACDBBAC8910533515
:1004D00023128098DACCAC9A892054432201809967
:1004E000DACCBB9A08413534220188B9CDCCAA892F
:1004F00018523433128198DADCBBAB883155332380
:100500000280B9ECBCBB8918533533120089CBCEBD
:10051000CB9908316333130190BACEBC9B88214438
:1005200034230280B9CEBCAA009E4700183255324F
:100530002219C2E0CAAB9A52192216120098CCAC0A
:100540009A083124332411A8DCCB9B88212225333F
:100550003301BDCEAA892024335391C0D9A98C1868
:1005600022223268108ADDA9091014143188BAAD2C
:10057000AB3AA017231121CA8E0CD09020378820C7
:10058000A0CCAB1830425323AAF9BD8821235314C1
:1005900090F9AC8A30523322B9DEBA0941441218BC
:1005A000CADC980842240080CC8D8810440180C0A9
:1005B000DB090860138000BD8C8010270008D8ABD1
:1005C0008080640180A09E098851130808BF88803C
:1005D00040240808FA8A0828268000E98A08182694
:1005E0000008D88C0808358180C09E0808358180B5
:1005F000B0AF080844010898AF080863010898AE36
:10060000888063010888BD898072020888CC8900CF
:1006100060038880EB8A8041158808D98B88212760
:100620008019B99E88102681005741006AFF8A0808
:1006300040249009C09D881036009A92FB89006181
:1006400002A02AB0AD09203682C938B9AD095025BB
:1006500080CA12C89B09611480BB23DAAB087114ED
:1006600088AB32C99C09501580BB50A0BB094827F4
:1006700080C93982CB8A084601A88D23A8BC805046
:100680001508CA3984C98A88720288AD3193DA8A1A
:10069000807301909D4001BA9B80720388BC38151D
:1006A000B9BB88402780B98A5381CB9B8061149065
:1006B000B9194280ADAB0861159099093291ECA946
:1006C00088202781980A2111DA9E8908510491888F
:1006D000180190DC8C8A1872228088088190ECAB1B
:1006E000990873248188080888CABFA9083157016E
:1006F0008888088880FA9C89187204008988080014
:10070000A0DE8A881047018899892020B8EF0988DF
:1007100040150098BA083312C8EF8080610208B80B
:100720009C18430198CF800800A95400260888CB64
:1007300089202500A8BF8080730180C89B183205DE
:1007400091E08C8880360008CA9A0842130089DF3D
:100750008880511308B8CB89202403A1F08E091892
:10076000430380AAAD89112403A0F99C0900442306
:1007700008A9CBAA104213A099DCA9893046238886
:10078000A998A9A980000012B1ADAD8A4035112306
:100790002291A9CDBAAAA800211310A7101983820B
:1007A0001C9C0A0434581BA0F2B083F34A9038A969
:1007B000125B0F028A308AC5A182C38902B8559B99
:1007C000913A2C7D983A81A0B2D4B19780001A1A40
:1007D000792A8889181EA310E389A780A280285D42
:1007E0002A4B1B3A08C201F2A281C2A39030229F79
:1007F00040880E0399211F884888A87BA995911BE2
:1008000007AB83B3A2109D11421F281D309A09A285
:1008100097A995B022B0791A093B820AE2C408C3AD
:100820000191102C2A203E0A00FC3F00B312A0BA0E
:100830007D004B280D4A10A8C893E493B4A0509AA9
:1008400088425B3B0CA8B2031A9097803AA118919A
:100850008C30A020C93A20BA097193A2234B5DE0E5
:1008600011A198003899F18088181919808080802A
:1008700080088008088008800808080808808080B0
:1008800080808004040000003B0800006461746103
:10089000000500000003010077FFFFBF47B901AA70
:1008A00053900AA1EA72939BA8CC2E578808BE20C9
:1008B0008410919E210001B800BE28033084AD3021
:1008C0000211C9CD09112034B80A240190ECBC18DA
:1008D000015113A9411100B9FD9B0000738108214A
:1008E0000090B9CF8B0018458110020088CBED8AAB
:1008F0000800630210028098CAFB9CA06708098860
:1009000098999900184314108190AAA9CDAC8980B8
:100910004245120100A99A9CCD9B881073241101B5
:1009200090E910ADBA89084254121000A9AADABDA4
:10093000AA18483613021199BBFBBC8B1A20651309
:10094000812289A9DCBC0B09214612028180B8BF33
:10095000AD8888417300018181D9BD990008731168
:10096000681880A8CE88808141030011049AFF098D
:1009700001183090012492DF8A300139A3AB560070
:10098000E99B20230081BD6282F88A20030080ADAC
:100990005380BD0800BE4E00160080BC6281AE08C8
:1009A000231010FA3903DC08220011E93A04EB089D
:1009B000228814D93A84BC10032A05EA48819D2074
:1009C000B25882CC42B00C21A963A00D24DA188160
:1009D0003A15CA4982AC00907181AB3192AE008069
:1009E0004490BB52A18E001805A08A32E00B8068AB
:1009F00002A90A15E908885280A83B04BC90182671
:100A000080C94892AC98301581DB51A0AA89312564
:100A100090AC34A99D093115909C24A8AD083015DF
:100A2000908B2498AF092015809A2390FB0C1843D3
:100A300010AA4001D99D083123A08915A8EB8B2964
:100A40007300882008B1FBB910331391590818BD01
:100A50008F193082A296B2B4A29C5B4B1A2902383D
:100A6000102E8998D8D0A48292A1334BB0491F0987
:100A7000398B00480883E3D2A3B193A07A0A7A099C
:100A80003A8900B8B5A380989400007B1B3A0A69A4
:100A9000C993D49300034400A001B191C4114B99B0
:100AA0008180218C088108AB9738F2818090413A8F
:100AB0009D402C6A2B199AA780B1D492B308A2301A
:100AC0009A7A1A184D1B104D8A921099D482D3929B
:100AD000B28021997C8A1018192B90D197888010A8
:100AE00011AA5D89383B2DA801E483C878C0A50808
:100AF0000928889983213E8988C32189B28B0459AA
:100B00008980E112099F8AA21703012109EFAB8AAC
:100B1000411782A898214201CAFF89104112809989
:100B20009900184301FBBF08312600A89A891033A9
:100B300004F19F8920440199AB0911313120FD9DB9
:100B400008401580A9AA0031113048EF99005103DF
:100B500080BB9A2122103878FC9980411480B99A80
:100B60001001819185C69C0A287301889A0981C069
:100B7000900306C28D1B082314181880B9AE891083
:100B80005223FACA89282414110098BDBA88623306
:100B9000AEC9884800EC4B0032110180DBBC8A51A1
:100BA00043EAB809393315121098CDAB0863029F98
:100BB000A9803142121200D8EB991024D28C0B88F4
:100BC0001522310180CBBE892125F28A1B192314FD
:100BD000220180EBAC8A2225F29A0A1914233111E2
:100BE00090CCCC891224D49B0B091523410081DAC7
:100BF000CB99205203AFA9903332331382EBCCABA5
:100C0000813345C19D0A091333431281DACBCA09E6
:100C1000303487D88A8A1804234210A0CABBAD0199
:100C2000315590DBA9093033343311CADBAC9C0158
:100C3000335588DBA9092042422201A9DBBBDA191E
:100C4000415284B9ACAA103135242288ABAEAA9A9D
:100C50009B21376381CABB9A193235352290BACCB1
:100C6000BA9C083346828F9AA01331300403BACB62
:100C7000BB899819B040733413C0CC9C9B8043440B
:100C8000331298CBCBBBB988124143221319B8CC8D
:100C9000ABBCB86000F83C00223321A9FABEA90819
:100CA0005243221280CACBBB8B9010032551218165
:100CB00088ABCF9A8841131411089AAABA2C0C81D8
:100CC0002238320F880088008800880088800088D9
:100CD0000088008880808000080808040400000064
:100CE00096070000646174610004000000FB0A00C4
:100CF0007F77975A40CC93A68832F13B81B8512A2E
:100D00005B2D11D990B5C295184A2B3F181D10A81C
:100D1000D3B6A282183C4C3B1A89A3F3A4A229188B
:100D2000918AA0510B582A3F0A28C0D4C3A3932903
:100D30003C292E588B1991F194A288102A49880CCD
:100D40008093D3285B2A5B0C01B0D393A2195B95E7
:100D50000E20880AA1C5941929A20909B1441C1BB7
:100D600081592C1AD092B418A3C802F88508108CA7
:100D7000582B192A28D082C1C2930000291E90182E
:100D800052CC33AA39510FA309D391B3A318492EDA
:100D90004A2BA000B1B49288A23028EB48188820D2
:100DA0002F1B93C2F392111A1B204F8A92C2A211D9
:100DB00098024C8909001A101C59BA8588E782806C
:100DC00090816A2C1908A080A3B2201E021A81F912
:100DD000B592B4004B291A7D1B189881D2A391B209
:100DE00001C1143F9A041CC22099122D0003320045
:100DF000F092D6A30881381E003B4B90199A9708B1
:100E0000290AA50A9239F6A2A399855A8A103A2D81
:100E10003BA41B399AB61091C191939883E391201A
:100E20004F98923C391F9110B09013C9842D309B7C
:100E300028B229C7B1C341911B093F7A0A390B294E
:100E4000B1B1A793F3B3B223910F2A494B2B8B78FF
:100E500009990002E3A3C1948091085C9A5B002089
:100E60007488CAB8DC1844140290FA8F88005211B2
:100E70008088C8AD08087103808808DC8A08481695
:100E8000009888C1AC88807482808918AD9A0868FF
:100E900006809980E3A909085581901B38DBAA8058
:100EA000402708C800818D0B087102809C11C2C9BF
:100EB00088004581981D11A9BB80402780D8292131
:100EC0009B9D08400680D910119B8C09611388EB0B
:100ED0002002AA8E08500380CC1112AA8E0840145A
:100EE00098BA5011CA8C08600290BB500072520030
:100EF00018DD89806381A88B5281F09A804103A01C
:100F0000BA412388EF88103201A988322399FF0B58
:100F10001842018888202298FF0A18310280181888
:100F20002190FBBF08211481008181019AFF8B1061
:100F300032130010009991F8DF0800330200108886
:100F4000A990F0BF09203483811188CB80C2EF09BA
:100F5000003313182088DA1C38FB8D081215810124
:100F600000A8AD3948BF88004042000180C9AB19D4
:100F700032F49B0B195324220098BA8D08F18D0A84
:100F8000084324120090CAAC8882BF998042452150
:100F90000080B9BC0C20F18A0A296314020088CBB6
:100FA000AC1931FAA9883854230200A8DCAB2941D6
:100FB000E18A8B183426211888CABC9B3153F899D2
:100FC00089284315020088CBAD8A3142F0990A295D
:100FD00043241200A0CBBD9A2034A48F9A882335D5
:100FE000221090AACEAA084133F0AA8A009B44009E
:100FF0007343220181B9CCBC892135B39F8B8943CE
:1010000034220180BACDBB89304502AEAA98425342
:10101000220181B9BCAD8A186222F8A9892953231B
:101020002210A8CBCCAA98103354819FAA9843438E
:10103000220291B9CCAC8988113843F9A989693366
:10104000140210A9DACAAC9A89114444221190DA28
:10105000DC9B89185334221088BACCBBBA99082279
:101060004525241188B9EBCA9A8A093035342412EF
:1010700008BACCAC9BAA18213525231291C9ACBB68
:101080009CAA81304334343118B8DC9BBCA8901141
:10109000583316122099ABBFBA18191317139109B8
:1010A0008B8E90081C298A3283979620990AAA2A47
:1010B0003A080D43A620A88AC0BBC884B378095259
:1010C0000A940808B2808080808080808080808040
:1010D00080808080800808080404000000C20600A8
:1010E00000646174610004000000010200F0F7F781
:1010F000F27F4B2B89929100A0B2A5A18108C37EFB
:101100000BD394004C2B08C1C3B4A3301D08B238D4
:101110002E3A1AD2945A2CB8A6014B3CA8D3A5005B
:101120003A2BA8B6B3305E2B89D2B5824A3C89C22D
:10113000B4014A2B09B1B5824A3C0AB2C482281CC8
:1011400090B282793CD8C6025B2C98B492284C2B82
:10115000A8B59200291A098088E4B3027B3B0AB142
:10116000B592492C88B2013B2AE1B5811808492D76
:10117000A8B582294B0AD1C6025C2BA8B4826A1B8F
:1011800088B2B4113B2A99C4A391791CA1824B0A5D
:10119000D2833A1B29208CE5A30189C4214E2C98C7
:1011A000C3A3383B0BD3822909A1814A1BF3B52085
:1011B0003BC8A591384F1A9881182AD1B4010898D4
:1011C000D3947A3D99B4824A2BA8C482398A926A10
:1011D0002B99D582390BC294494D99B2012A1AA490
:1011E00084100AFA99287801810050560000899FDE
:1011F00080816308A89195C00C082087800B5980D6
:10120000CC80006380B8A816B80D084003809C59B4
:1012100081BC88103581C89925D98A08611188BB9D
:101220004083AE89101681A88C52B0AB087812901A
:10123000D91814D999806310898D2084DA881825EB
:1012400080A98C5281BC88201790C9096280BC0893
:10125000200680CA096200EA88101500BA8B611264
:10126000A89F08518298AC102481F88A182580BA6A
:101270000B602108BE80200690D908311209AF0901
:10128000400390EB80320208BF88400490CA0942B4
:101290001209DD88201491D989211490E08B1862FD
:1012A00010998C19520019CD88111481D8991114F4
:1012B0008088AF09302400BBAB320781A0AF8830F3
:1012C0003400BA8D10330008FF88003302A8BB0930
:1012D000420292F09F08313380B99C28312089FF67
:1012E0009800421390A99B20300024490090DA9D79
:1012F0008831351298B9999180009BBF8A18635341
:10130000008888A0D2B298090A894968598A300AA7
:10131000B1849B08D78208388F95810A3A3A1BA07E
:10132000940E8287191A8EA79208083A2B08192959
:101330000C203AD0019097C2294F3A19FAA4941878
:101340000A19081888A1103A4A085CB984D03C945C
:1013500001081B0C5C0CA781888018081990681B79
:10136000C8833A11B991810A087128F881393B1A6A
:10137000C0B412B8838A98315E291BB120DAD695A1
:10138000980129181A2DB148B12FB393B2085B996F
:10139000A36B800929D8831AB35B390C1808B301F1
:1013A0008AB3B3078C699029092A8A7B9882023E06
:1013B0008980B0D611B101A1208AC0833C4BB8B45A
:1013C000C37B10A0A2B28B8580D0306CA0A0B2B736
:1013D00080820AB2408B80D0874B190A82E003AA30
:1013E00087929A401C492D08C80000310000399BA3
:1013F0006D88E192828993972C392E182A2A2D9094
:10140000C4A2B2D6A3A2A30A5909581C5C0919198F
:10141000A080F816A098B08302BA3981223F4E0806
:1014200019288E94B1850A901AA618193C008B2AA7
:1014300028B4A4E011B085E11893B188222E6FB8CA
:10144000084229A0DAB018210942920293DB80B148
:10145000D4004A48088C081B8280808000880008DD
:1014600088800008888000880088000808080888AC
:1014700080808080800404000000AB040000646170
:10148000746100030000000009003F3F7FC9D6F0EF
:101490009F7E96B2D1A000283B2A0A18323781C815
:1014A000CD891135128188DF8A083026008899FAA3
:1014B00089880154018889A88F09085113008A88F6
:1014C000FB9A802127019889B89F8800631208AA97
:1014D00081EC9880312681B819C09D091864028872
:1014E0009B01F99980302780A82B819E8A00730286
:1014F00090CA21B1BC09284701998D13C8AA085088
:101500001580BA3C04C99A08720290DB3083CA9BEA
:10151000006500A8AB6101CA99103580D90A5181D4
:10152000CA99201680CA096280CA09201588CB088A
:101530005300EA09201498CB002401D90D282388F0
:10154000AC19430198ED084181A88911222898FF20
:10155000083281AA0921123898FF094380AA08128B
:10156000811083FF895281B90812008822F98F30D7
:1015700013B90B3282BA3015FB0F4181AA1822A091
:101580009A4183EF0843005A5500B9093390AC30B3
:1015900023F08F2004C8093280BB3814B1BF18175C
:1015A000A08B4181B91A4300FA8B7101BA1823A0AC
:1015B000AC212390EF085280AA2813A89C301390E6
:1015C000FE084200B9192291AC193481FA0E300399
:1015D000A09C3012A98D482289CF803383B8BA11DC
:1015E00014A0AB30529ABF19521291A9998191A0BF
:1015F000808080A91A4B5031302009BA90EBCB90F3
:1016000001A180201584A2021D10A08E00282A03AB
:1016100008F8890088E44819A0328B80003E3F8991
:10162000A238C3FA864A0BB2A281A74AC039000B7E
:101630004AA31F949808A399072E08908038B802EF
:10164000E401901820BA6F1A08089A050AB3C3D1AA
:10165000059B84A8130C2A81182AA27E800C808105
:101660008109A2B2C24831CF9798719080AADB015C
:1016700002000680A2943A2E8B20B06C8818911933
:10168000A08800CC95A1000235003D0E8598D1813F
:1016900020C2A030097AA03A191A828A12C1A1D7B1
:1016A000A0148A8110AC2923CA97B012011F4B8164
:1016B000094B0C048A3085C0F9810810295981A989
:1016C00048181F88A094A5B1834A2C8C9096C38299
:1016D00089393B8939591F29A0B1C458E208222809
:1016E000B8ACA02988192708080880080880800855
:1016F00008800880800880088008800880088008AA
:101700000808088080800404000000760800006457
:101710006174610005000000FF2F00F4F8749899CF
:10172000880830188008A099A02308B5B6A4190B22
:101730005A2A112E2B195B1AB0C295C5A210F0922D
:101740005808D19108A1826A5D4B8AA1A20118981C
:101750000028F1B2D692102A28293E3E8AA2A3C4BC
:10176000C37B818988092008B2F2110928490BD866
:10177000D494102A3B3B3C2B5A3D8AC5B3B4D3A228
:10178000A3011A113E5B3C3B8AA28190B2D59328FB
:10179000B9C383302E3A2E1980B1D5B3B3117A3B39
:1017A0003D3B0AC20190D38208F2C4A3103A4C1BFD
:1017B00098A2125E3C3A1BA0C49280B2C293B2D5EA
:1017C000B492384E3B1AA8B3036C3C0A900199C3FB
:1017D000B5B3B4A2205B2C09A1B392202F09B28229
:1017E00098794C1BC192206C1A89D2A40088C2B48B
:1017F000A481283C0D1A5A49288090E8AA981155CE
:101800001280A9FA9A081055018888BA8F090044F5
:10181000029098B99F091800DA540023008998FBB8
:10182000890848340099A0F98A093046808898D9F7
:101830009A08203781A098D88C092045829898C8AA
:101840008E881044829089A99F88004403909999BA
:10185000AF98004404800A8ABD98807314080A8AED
:10186000FA908030350899C0C00A1A294583A0092A
:101870000C8AC0A8302301141201C8DCAC9A1042B3
:10188000531312A8CBCD9A881153330381DACBAB13
:10189000892042532200C8BACA9A093234240290DD
:1018A0009BAEA9A81824313321C8CACB808D806390
:1018B0008131B101DAD8191E010138121CA0D2A061
:1018C000805A19808384F389293D1B205AA0588BA4
:1018D00002D891F4A5A0B5E380F779188B8199A37C
:1018E00087090AB08618391D180909F1A7A2182B13
:1018F00019A281493C2AA1C5A1893A68291908E39E
:10190000D3A0991071310098CF890840068180E8F2
:101910008A0A2871118890001D50008F8818510282
:101920008098F989881054008888CC988021178184
:1019300088989E880831070088B89D8818610380C0
:1019400090D89C880072028088D98B891074010815
:1019500098D98A881064018888EA89881054018897
:1019600098FA98801044018889FB8908103501880D
:1019700098DC99882046018898EB99801055008062
:1019800098DA99092864028898E89A881072028087
:1019900088B99E09085215088998AD990831470001
:1019A0008998E999802854829098B89E8918721372
:1019B000809998CC99882147019889C89B0B2973F5
:1019C00016088A88D9A888104682908A88AD998896
:1019D000511781A888989C9A08721580A888889CBD
:1019E0009B88414700988989B9A999384781001196
:1019F0008898A9DABC9B08525323210001CDBDAAC7
:101A0000990116140492020D290F8C8A08212602CE
:101A1000809899A0E8DA8900B350000023048189F6
:101A2000990880DCAC092874038098A901A2FB8D79
:101A3000092864118899891091CD9B09403701903C
:101A4000A99A1283FC8C0920360288BA9A2114EADA
:101A5000AD8810550288B99B3033B0EF890062031E
:101A600080A9AC183302FA9C08303600A8DB892222
:101A70002391FB8D08422380C99C19421108FA9BCF
:101A800000511480A9AC08330380A8FD8A004403E8
:101A900090CB8B3024809910F98F18510288CA8915
:101AA0003022989902F39F80422288DB0A3013A0EB
:101AB0009B4851BF88202582B9AD112391D99085CB
:101AC000D38C19611188BB0A510299AB2286F09A16
:101AD000004401989D083281AA8A3205FB8B0036AA
:101AE00001A99D183380BB0A4402FC8A104481B8C6
:101AF000AB282590BB193402F98E084302A8AC1814
:101B00003391DB09421298DF88301580B98B41137D
:101B1000B9AD283482C9DB00B64D00085312A0C904
:101B2000081392DC396110A8BF185292A88A329229
:101B3000CB980181898974218909BA9900003825D7
:101B4000F1BF4002A1810491BB8C2801801102F9F0
:101B50009F5001981012802A1FCF81979118382921
:101B60008B9A9111080888008800088880000888EE
:101B7000008880000888800088008800080808081D
:101B800088808080808004040000001005000064CC
:101B900061746100030000000100007F776F4F4D0A
:101BA0003C4B5B2D09FC270C80F301B1A5283C3A86
:101BB0001D292A0188C0B592A29101001C3A3A70F1
:101BC00000BA9E9A0863241108FA9D080853110868
:101BD0000008CF89805804808892F19A8880360066
:101BE000982928BF89807803809902F99A8008375C
:101BF00080901A009F8A806013089981FA99881052
:101C000054018909989C909801231311012138B837
:101C1000FF9E88002042231281C9DE9A8810313449
:101C20001402000CDD9C888152842011A8CC9D09EF
:101C30002133233390DFAC882027010880EAAA896A
:101C40000073038008A99F0A092027008880C9998A
:101C5000AA094134102082B9FBCC892853123201E1
:101C6000BAFDAA882127011080ACAD8A0873130041
:101C700080B0DD8A082846810008CB9D88806213E9
:101C80000008C8BD89803047808080CC8A080864FD
:101C9000020808C99D880800904F0055010880D9A6
:101CA0009C080860130008A8BF88082836018080B7
:101CB000DC9B080872130008B9AF89083827018037
:101CC00090FA9A080862130880B8AF0A8820361183
:101CD0000890FA9B090852241008A8BE9B88104659
:101CE000120080C9BD8A083037110090EAAC8980A3
:101CF0005143010098FBAB880052240100A8DCABE3
:101D0000890063331200A8DDAC89004125110090E1
:101D1000DBBC9A803237030080CABE9A88305512E5
:101D20008100A9CDAB89107233010098DBBD9A0800
:101D30004045128008B8DCAB89006334018008CAD2
:101D4000DC9A88105423018888DACC9A88105513BD
:101D5000818089D8BCAA0928742301889899BE9CDF
:101D600089085135128088B9CABD9A991065330225
:101D700080A0DB9AACAA99286525010098CBABA876
:101D80009A9A897346020188B9CC8A9098A90972F7
:101D900036120088DAAC8A00CC420083B8DC897441
:101DA000341281A8EBBB0A4101A9CB89633522001B
:101DB00099CCAC89203391DBBB0964342280AABD65
:101DC000AC88203214A1BDAC1962341280AABC8B3D
:101DD0001092BDAD8963352281A9CCBB8920322305
:101DE00001A89AAA808393BA397B24121210B9FBF6
:101DF0009AAAA187120108D0A199011C8B028270B6
:101E000039282F8ABA950102948E01BA51694B0084
:101E10000BACC6949180101B089080B301280F0072
:101E20002A08242F2A6C4B9F870908080808800875
:101E30008008800880088008088008800880088062
:101E400008800808080808808080808080040400DA
:101E5000000070060000646174610004000000006E
:101E6000040080F07767FBA00EA88F817733A8FC71
:101E70009B0810422332800192BFCF9A0011523248
:101E8000221091A9EEAD8800113424018188DACFA7
:101E90008980103125120188A8EE9B8800204423F8
:101EA000020088EBCE8908003234230180A8DFAC21
:101EB0008808115243118080B9CF9B880021542398
:101EC000010088DABE9B8810314622010098FABCD6
:101ED0009A0800423523108098ECBC8B881042454C
:101EE00012018098FABC998810413523018098DC52
:101EF000BD9A0918323723118098EBBDAB88184181
:101F00005423018190D9BD9C990020543312008044
:101F1000AACFBB9A8811734322000099EBCC9A098F
:101F200008324523028190CACDBB8B09204525127A
:101F30001188A8EBBCAB8908434523120090CADC8A
:101F4000BBAA8930545322010099DBEBAA9A0831CD
:101F50004533230188CAEBCBAB9928524432003178
:101F600046000191B9DADBBA99185162413C859873
:101F70004CA8D88AA1B45381D3316B0AF009090067
:101F80002401090081B0EF88003113A8292192F0C3
:101F90009F88003103A8311180F09F890021238997
:101FA000230281F09F8A08113308241100C0BFBAB0
:101FB0008911431154010190ECBA9A18204353231C
:101FC0001080CACEAA9910313435110198DCBCAA10
:101FD00009103355131280AAECBB9A88225344127D
:101FE0000298BBBE9D99182244331201BADCBD9AF7
:101FF00088123444220198CBCE9909183235539077
:10200000A1EAAAAA182034541081A9BDAB9A2023B2
:1020100037140091FBAA9A083044241090D9AD9946
:10202000092114270109EB9A99194241528299EA30
:10203000ABA8181422262290DD0B9C39423EA61232
:1020400008FB88901014B8334098EF10904181AA93
:102050003104F88B301813D9894480DC08320036FB
:102060004C0011FC0A2580EB884380A88C5101B8F4
:102070008D488398AB301688CC082598AA28231061
:10208000D88F4081A909140912FC0833A88C31A10A
:102090004891BF5082B919049923F00C42889B31B2
:1020A000912C23FC1905B81A33BA6982AE4883BB58
:1020B0003084BB53A19E50919B31A29C34B09F5160
:1020C000B10B32B10D24B89D62B01B32C01B15C0DC
:1020D0009B73B81A32D01A1498AD61B10B32C11B80
:1020E0003380DD49949B22928D2281E80B17AB202F
:1020F00012CB301100CF50C21A21B02A8211E29EB9
:1021000035BC32809A110914F92C960D03080A8106
:102110003902F92EA42B810189811800A3FF248D97
:102120008228A02880892001FF33AC8339B1288020
:10213000890050F15FD13889038B8398082A16FCF7
:1021400078C9112AA32B8198982095D82FC6399940
:10215000148B0209A910120BF46EC8112AA300EB0C
:102160005200120AC00020B816BF168C9240A81068
:1021700088980A22B863F93AB38828860980889B30
:1021800010842A83ED29A2085084099098AC12216A
:102190001903CE8D048A1343A8009ACB09538822D1
:1021A000B1EB9F12838080800880800808808008BF
:1021B00080080880088008800880088008800880DF
:1021C00008808080800808080404000000AF060032
:1021D00000646174610004000000FF0400F7F7F779
:1021E000C5A491D97FF6210AD1228BB2130CA2018A
:1021F0003FB48838C0A86DC31930E8218889108899
:1022000002FB79B00915AB13A83091CF62BA2884CC
:102210008C12A822E1AB45BB31B31D12AA15C99A95
:10222000279D31D229821C03AC2A978B52D821A139
:102230004AA2BB7AD308239D12B041A8DB63BA102F
:10224000850C129A14AABB379C30E329012B83AB6F
:102250000F978B61B910A25990AA5DB29934AB382F
:10226000C222B0FA79A08A079B409811A8FB438A42
:102270002BA699311928AAAF07B869909A04800152
:10228000BA2F84C932981C129091F959008C13C04E
:1022900029212A89BF14B22C31BB108680A91F22A4
:1022A000E810838B5881A0F910138E30A1A9330157
:1022B0008BBF23B69941880B2392F91D51990A02CD
:1022C000B2804208DF0104A80920280882F80E30F5
:1022D0000198A901141199DF8000D052003181C802
:1022E000A8321499EC8818401188890101089CFAD9
:1022F0008900211131423280FBDC9A0920324325CA
:102300001190C8CCAD8910213425110899CCBD9A03
:1023100008215432220098DBDCAB881052431302B0
:1023200090B8DDAD8908213434128098DBDD9A88BD
:10233000114143230190B8DE9C8A002153331300DE
:1023400099EBBEAA08104235138280B9DEBB89081A
:10235000501522128098DBBE9A08204334334A90ED
:10236000CAECAA88101355110080C8DA9C89204154
:1023700041128281E0D9BA0A104342412880B9FC57
:10238000BA88114332501119ACCE9980112404122D
:1023900091B1AE8F89103211321280AFAF980033F5
:1023A00004112118CCCD99004313114818FBDA9879
:1023B000184213002028FCBA89187312082818CD77
:1023C000CA881054828810809F9B8821368188019A
:1023D000B0BF9A086115808800004C5200BB8A0982
:1023E0004026819881C0AD89197213080A00FB9AB2
:1023F000881037819818A09F8A084116809901D8C3
:10240000AA89187402880A01EB9A88113602A94B2E
:1024100001AE9B80313790993280DE8A084114905A
:10242000892280EE8908311490893200FC8C0830B2
:102430001480A81203F89F0810320009392188FF80
:102440008900111380082110DABF091032048100BD
:102450001100FBAF8881233228080100FABF8800F1
:10246000402202820008A8FD8D09083243120000B4
:1024700089E9BF898830442300009999FC8E881827
:102480002134020088B9A8FD9A8818534301818835
:10249000CA99C99E89005124130090CAAC88C09C77
:1024A00089006433210088EBCB0802BD9880612449
:1024B000221080DABC9941D19A091854132200A045
:1024C000CD9C0942C09A0A1835151200B0FBAA0823
:1024D00031948F998022253101004C4300B9CF9966
:1024E000082202AF99802255118280CAAC8A10124C
:1024F000A19F9A002446100198BB9E891111B19E9C
:10250000891924361201A8CCAB981101B1AF9A18E1
:1025100054441210A9CABC99012120F8AA89406329
:102520002402809ACCB89001288BAFA91844451298
:1025300081A0B99C0C1A98A0BBAB1A375631F08811
:10254000808080808080808080808080808080808B
:10255000808080080880088080088008800880804B
:10256000808008080804040000000C060000646174
:1025700074610004000000FD0000777757A220EB93
:1025800098DC8A3179235091880AD9FB8D08115340
:1025900013130898B9FFCA09182327210118AAECB8
:1025A000AC8C803254221108A8BDAFAA002145137B
:1025B0001100A8BCBFAA08305414118090CABDAC49
:1025C00088104425118080BACF9A881042260100D5
:1025D00080B9CEAA88104226110088A9CE9B091086
:1025E0004217010090B8DD8A88015314010098DA7F
:1025F000BD8908115512008098EC9B890022370292
:102600000080B9CF8A88104116010088C9AE8908B8
:10261000107312008098DCAB88104136108090C98E
:10262000AF8908116312000099ED9A8000322601EB
:102630000098F99C09081154118080B9BF890820BD
:1026400062230000A9CF9A80104125010099EC9ADD
:10265000880042150180B0BF89200804718108CA32
:10266000BA89411112349180ED9C09328133248062
:10267000A8DF9A08430800155400110008CA9D09F4
:10268000508010230098F99D0851A020128190FAE3
:102690009C08539931020099F99D0834A9410181A0
:1026A00098F99C1824A9410200A8E89D0834B95063
:1026B0000280A0C9AD8855B848010890A9BC0A732A
:1026C000B23A14088899BE8A70940B23808099F9D5
:1026D0009A2817AA4181809889CD8873A029030878
:1026E0008899EB9A3827AB4300089999AE8A72B360
:1026F0002B05808098C99C8837B94802089809F84A
:102700008B0827B9488200A819E09B1937B938020D
:1027100001C829D09D8854B0290211C03BB2AE8AAD
:1027200068858B0338819F03AAA88A66A81880222F
:10273000D8299808AD1937A9182803CB9139F09AF0
:1027400089579A013B838AE130C9889A73A1913BEA
:102750008608C92189A8BA2A670AB85208A01B812D
:10276000018EA96894901B0420BAB16A98B08C6954
:1027700094811C820288002052000A888098AC5004
:102780003096201CA1931B9EA102BB2A1427498AC4
:10279000B18388CB0A08B8BE147220B1B3102A9B4B
:1027A000EC0018BB8C8527282A9AB2A3980E1A90A1
:1027B000D93B508792001B2A91D8B00140AC8D8242
:1027C0000702181C0991C0A10038EBCA1172210838
:1027D0009988A2C1890939A9BF1C222793800A3A86
:1027E00099CAA19101DCAC5B502293A18890BA896F
:1027F0000908B1EEDB025332101A8AA9A8B48898EE
:10280000C8AA8C1B4C34523200A80AA491BEBAAF9D
:10281000992870220282A0A111DAB80DAB10228291
:102820004A89297008A50502B2F0AA2C4B192A2F53
:1028300029018582B1B4E2A080A0181C3029123D84
:102840000006999A088AA788C3A04889397F7B899E
:102850002D01C0B4B4B2A29491295B4C1A2A4A0A41
:102860008880A1B3B591A1A393C28913813C2E198D
:10287000200A2F192929000137003B3F3A89801887
:1028800099B2C5C5A4814B5B2A0A0008080808084C
:1028900008880088008800880088008800880088F0
:1028A00000080808888080800401000303030303F4
:1028B00003010303030000000003A30110B3011090
:1028C000C30110D30110930108E3012C0102040895
:1028D000102040800102040810200102040810208A
:1028E00004040404040404040202020202020303B6
:1028F000030303030000000023002600290000005A
:102900000000250028002B00000000002400270004
:102910002A00052311241FBECFEFD8E0DEBFCDBFB4
:1029200012E0A0E0B1E0E0EDFAE602C005900D9201
:10293000A635B107D9F724E0A6E5B2E001C01D92A3
:10294000AB3CB207E1F714E1CAE8D4E104C0219737
:10295000FE010E94FA34C938D107C9F70E947930C4
:102960000C943A330C940000CF92DF92EF92FF92D6
:102970000F931F93E82FF92F05C00150110921096A
:10298000310961F1908196239417B9F305C0015084
:1029900011092109310911F1908196239413F7CF80
:1029A000C12CD12CE12CF12C0AC08FEFC81AD80A07
:1029B000E80AF80A0C151D052E053F0579F08081FF
:1029C0008623841791F36C2D7D2D8E2D9F2D1F91C5
:1029D0000F91FF90EF90DF90CF90089560E070E04E
:1029E00080E090E01F910F91FF90EF90DF90CF90EB
:1029F0000895FA01AA27283051F1203181F1E89495
:102A00006F936E7F6E5F7F4F8F4F9F4FAF4FB1E0E1
:102A10003ED0B4E03CD0670F781F891F9A1FA11DDC
:102A2000680F791F8A1F911DA11D6A0F711D811DDD
:102A3000911DA11D20D009F468943F912AE0269FA2
:102A400011243019305D3193DEF6CF010895462F01
:102A50004770405D4193B3E00FD0C9F7F6CF462FE2
:102A60004F70405D4A3318F0495D31FD405241934B
:102A700002D0A9F7EACFB4E0A69597958795779508
:102A80006795BA95C9F700976105710508959B018F
:102A9000AC010A2E06945795479537952795BA9518
:102AA000C9F7620F731F841F951FA01D0895E09141
:102AB0005602F0915702CF010196909357028093EE
:102AC00056026083E0915602F0915702108281E035
:102AD00090E0089580E0089580E0089580E00895F2
:102AE0000895FC011382128224E132E031832083B5
:102AF0000895FB012081822790E1899F9001112494
:102B00002827822F90E0582F44279C0163E0220F52
:102B1000331F6A95E1F742275327218130E02427AC
:102B2000352774E0959587957A95E1F78227932765
:102B30009183808308959C01862FB901DACF6CE7D9
:102B400071E00E94A934605660936C0210926D028D
:102B500080916D028823E1F308951F920F920FB6C2
:102B60000F9211242F938F939F93EF93FF93909144
:102B7000C6008091C9048F5F8F732091CA048217A9
:102B800041F0E091C904F0E0E957FB4F9083809356
:102B9000C904FF91EF919F918F912F910F900FBEDC
:102BA0000F901F9018951F920F920FB60F9211243D
:102BB0008F939F93EF93FF939091C8048091C704E4
:102BC000981779F0E091C804F0E0ED57FB4F808151
:102BD0008093C6008091C8048F5F83708093C8047F
:102BE00005C08091C1008F7D8093C100FF91EF915E
:102BF0009F918F910F900FBE0F901F901895A1E09D
:102C0000B0E0E5E0F6E10C9425357C018B01081B72
:102C1000190B442361F0C8018E0D9F1D49830E944A
:102C20005035F70181937F0149814150F2CF2196C0
:102C3000E6E00C944135EF92FF921F93CF93DF9320
:102C40007C01C62FD72F142F160F1C1741F0F70148
:102C500061917F01CE010E9458352196F6CFDF9118
:102C6000CF911F91FF90EF9008950F931F93CF93F3
:102C7000DF93EC018B010E941F2EDC01CB01800F42
:102C8000911FA11DB11D88839983AA83BB83DF9106
:102C9000CF911F910F9108950F931F93CF93DF93BF
:102CA00095B7906295BF95B7906495BF14BE90910B
:102CB0006000977F9093600090ED9093600083FD9B
:102CC00002C098E001C098E28770892B98E10FB6A6
:102CD000F894A895909360000FBE80936000A8952B
:102CE0008091600080648093600083B7817F682B4F
:102CF00063BF9FB7F8942FB3FB983DB31DBA4091C3
:102D00006B0010926B0050916C0010926C006091FF
:102D10006D0010926D0070916E0010926E00E09147
:102D20006F0010926F00F091700010927000ACB5BF
:102D30008CB58F778CBDB091C1008091C1008F712F
:102D40008093C100C091BC008091BC008E7F8093B5
:102D5000BC00D0B780B7877F80BF10917A00809188
:102D60007A00877F80937A0007B787B78F7787BF0E
:102D7000789483B7816083BF889583B78E7F83BF44
:102D80000FB6F894A89580916000886180936000E8
:102D9000109260000FBE07BF10937A00D0BFC0939F
:102DA000BC00B093C100ACBDF0937000E0936F0025
:102DB00070936E0060936D0050936C0040936B00B5
:102DC0003DBB2FBB9FBF809160008F7B80936000D5
:102DD000DF91CF911F910F91089564E05DCF0F9324
:102DE0001F93CF93DF93EC018C01011582E018074C
:102DF00020F089E0F2DF1250F8CFD0FF02C088E067
:102E0000ECDFC7FF02C087E0E8DFC6FF02C086E054
:102E1000E4DFC5FF02C085E0E0DFC4FF02C084E05C
:102E2000DCDFC3FF02C083E0D8DFC2FF02C082E064
:102E3000D4DFC1FF02C081E0D0DFC0FF02C080E06C
:102E4000CCDFDF91CF911F910F910895A0E0B0E00A
:102E5000ECE2F7E10C941B354091400450914104A1
:102E60006091420470914304480F591F611D711D08
:102E70004093400450934104609342047093430490
:102E80009C01A8EEB3E00E9400354B015C017090FC
:102E9000640080916400877F80936400609081006B
:102EA00080918100887F8093810050908000C09144
:102EB0008400D09185000091880010918900E090F5
:102EC0008A00F0908B00C0908600D09087004090E0
:102ED0006F00109280001092810010928500109275
:102EE000840010926F0083E08093810060E080E0B6
:102EF000D3DE2091840030918500109281004092B1
:102F00006F00D0928700C0928600F0928B00E09212
:102F10008A001093890000938800D0938500C093A5
:102F20008400509280006092810070926400220FB1
:102F3000331F220F331F309345042093440440E095
:102F400050E082169306A406B50650F0C501B40100
:102F5000621B730B840B950B0E94BC34C9013FDFCD
:102F6000CDB7DEB7E0E10C9437351F920F920FB664
:102F70000F9211248F938091960381112C9A8F9137
:102F80000F900FBE0F901F9018951F920F920FB6C3
:102F90000F9211248F938091960381112C988F9119
:102FA0000F900FBE0F901F90189598E02D9800007D
:102FB00087FF02C0439A01C0439800002D9A000089
:102FC000880F915099F72D980895419A2D9841981E
:102FD000ECCF2D9898E080E02D9A000026B121706A
:102FE000880F822B2D9800009150B1F708958F77AC
:102FF000ECDFEFDF419A08951F920F920FB60F9208
:1030000011242F933F934F935F936F937F938F93ED
:103010009F93AF93BF93EF93FF93CF93DF931F9251
:10302000CDB7DEB783E0E3DF898384E0E0DF898327
:10303000898186FF07C081E080931B0486E2D7DF89
:1030400080931A040F90DF91CF91FF91EF91BF9180
:10305000AF919F918F917F916F915F914F913F9130
:103060002F910F900FBE0F901F901895A1E0B0E028
:10307000ECE3F8E10C94293580686983A6DF698167
:10308000862F93DF419A2196E2E00C944535CF924A
:10309000DF92EF92FF92CF93DF937B019C0140E0A0
:1030A00050E060E271EA87E090E00E94DE34E901DE
:1030B0000E941F2E9B01AC012E0D3F1D411D511D75
:1030C00069017A010E941F2E6C157D058E059F05F2
:1030D00048F4439ACE010E948A2E4398CE010E9462
:1030E0008A2EF0CFDF91CF91FF90EF90DF90CF90BD
:1030F000089568E572E0CBCF66E970E0C8CF61E083
:1031000070E080E090E00C94502E6AE070E080E087
:1031100090E00C94502EA0E0B0E0E1E9F8E10C94CE
:1031200023350E941F2E6B017C0120EDC20E27E08B
:10313000D21EE11CF11CE0EDF8E2C491E4EEF8E2ED
:10314000E491F0E0EE0FFF1FE250F74D059114916E
:10315000DC2FD0950E941F2E6C157D058E059F05D6
:1031600070F4F80180818C2B808380ED97E00E94C1
:103170008A2EF80180818D238083C7DFEBCFCDB706
:10318000DEB7E8E00C943F3563E273E080E893E05B
:103190000E94413180E893E00E94A62F0E941131E5
:1031A00081E0809371048091A7039091A803A0917E
:1031B000A903B091AA0340919B0350919C03609195
:1031C0009D0370919E03841B950BA60BB70B8D3B43
:1031D0009240A105B1050CF09ECF08958091750431
:1031E000811103C010927F030895809171048111B1
:1031F0001DC040919703509198036091990370917D
:103200009A038091A7039091A803A091A903B0917C
:10321000AA03481759076A077B0724F380917F03A5
:103220008F5F80937F038A3108F0AECF089562E309
:1032300070E080E090E00C94502EF9DFF8CFFDDFD5
:10324000FCDFFBCF90917904911102C0882319F023
:1032500060E087E00BDF10927904089580E0F2CF00
:103260007058A0916E02B0E0FD01EE0FFF1FEA5C06
:10327000FC4F4591549182FF02C09A0102C020E0A8
:1032800030E05695479581FF02C0240F351F5695B3
:10329000479580FF02C0240F351F56954795240F90
:1032A000351F83FF08C02617370770F4AB01421B98
:1032B000530B9A010EC0AB0140955095241735076A
:1032C00030F4260F371F05C020E030E002C02FEF9A
:1032D0003FEF8770E82FF0E0E851FC4FE491AE0F2C
:1032E000B11DA935B10514F0A8E5B0E0A0936E02B8
:1032F000C901905808951F920F920FB60F92112492
:103300008F939F9386B590916B02890F87BD8091B3
:103310006A02882359F0809169028F5F8093690265
:1033200080FD02C080ED04C080E302C080916C0289
:103330008093B40081E080936D029F918F910F90F4
:103340000FBE0F901F90189522E320936B0221E08F
:1033500020936A02BC0180E090E00E94502E1092FF
:103360006A02089584E690E0EFCFEAE7F0E080811A
:103370008068808380818B7F80838081866080836A
:10338000C4CE1F920F920FB60F9211248F93EF931A
:10339000FF930FB6F894A8958091600088618093A0
:1033A0006000109260000FBEA895E0E6F0E080811A
:1033B0008F7B8083FF91EF918F910F900FBE0F90C5
:1033C0001F901895A4E0B0E0E8EEF9E10C942835E0
:1033D000CCDF14E620E030E0A90185E129833A83BF
:1033E0004B835C830E94462F29813A814B815C810B
:1033F000280F391F411D511D29833A834B835C835C
:103400007EDE115029813A814B815C811111E5CF1B
:1034100080917A008F7780937A00AAE0B0E00E94D2
:103420000F3521E035E040E050E00E94BC34C90196
:103430002496E3E00C944435A4E0B0E0E2E2FAE143
:103440000C94283592DF10E420E030E0A90183E1FC
:1034500029833A834B835C830E94462F29813A81DA
:103460004B815C81280F391F411D511D29833A83EF
:103470004B835C8344DE115029813A814B815C810E
:103480001111E5CFA0EAB1E00E940F3526E0969534
:103490008795779567952A95D1F723E330E040E04B
:1034A00050E00E94BC3421388CE0380741055105BA
:1034B00060F58EE480937C0022DE14E620E030E0AC
:1034C000A90129833A834B835C8319DE80917A00BA
:1034D000806480937A005C814B813A81298180915C
:1034E0007A0086FDFCCF809178006091790090E0B1
:1034F000962B280F391F411D511D115011F76BE1FB
:1035000073E682E197E00E94BC34C9012496E3E0AF
:103510000C94443580911904811105C080911A01E1
:10352000833320F0815080931A0102C010921A0157
:1035300020911A01223350F088E790E0821B910914
:103540006AE070E00E94A934862F089587E008950C
:103550008F929F92AF92BF92CF92DF92EF92FF92A3
:10356000CF93DF936B017C0197FF0DC06DE285E681
:1035700092E00E949E2FF094E094D094C094C11CDD
:10358000D11CE11CF11C80E8882E86E9982E88E980
:10359000A82EB12CC701B601A50194010E94DE340A
:1035A000E90160E879E687E69FEF0E947A34A70197
:1035B0009601260F371F481F591FA0E1B7E20E944E
:1035C0000F35A50194010E94BC345F934F933F9344
:1035D0002F93DF93CF938EED91E09F938F9385E6AA
:1035E00092E09F938F930E9455318DB79EB70A96B4
:1035F0000FB6F8949EBF0FBE8DBFDF91CF91FF90A5
:10360000EF90DF90CF90BF90AF909F908F900895F4
:1036100081E08093690481E091E090935702809368
:10362000560260915E0470915F04809160049091F5
:1036300061048EDF63E285E692E00E949E2F609136
:10364000620470916304809164049091650480DF4A
:1036500080917004882329F06AE285E692E00C9458
:103660009E2F0895A4E0B0E0E8E3FBE10C94273539
:1036700042E062E070E0CE010196C1DA89819A8170
:10368000C79791F58FEF9FEF909385038093840305
:1036900084EE90E09A838983CE0103969C838B838A
:1036A00004E010E089819A81892B71F0C8010E94A1
:1036B000503564E873E01DDA89819A8101979A8315
:1036C00089830F5F1F4FEECF42E060E070E0CE01D4
:1036D000019695DA81E049815A81209184033091E5
:1036E00085034217530709F080E02496E4E00C9428
:1036F000433544EE64E070E08BE291E080CAEF92E3
:10370000FF921F93CF93DF938FEF9FEF90938503EB
:10371000809384038BE2E82E81E0F82EC4E0D0E0B1
:10372000F70111917F01612FCE010E94583564E8A5
:1037300073E0812FDED92196C83ED10589F742E09A
:1037400060E070E084E893E076DA87E390E09093BD
:1037500085038093840342E062E070E084E893E0B4
:103760006ADA6AEC71E080E893E00E94413180E817
:1037700093E00E94A62F0E941131DF91CF911F91FB
:10378000FF90EF900895FC0180819181A281B38127
:103790008F3F9F4FAF4FBF4F61F081E04481558114
:1037A000668177814F3F5F4F6F4F7F4F19F080E009
:1037B000089581E008951F93CF93DF93C091C403D0
:1037C00088E0C89FE0011124C85FDE4F11E648E0A1
:1037D000BE018EE893E013DA8EE893E0D4DF811126
:1037E00023C040918E0350918F036091900370919C
:1037F00091032AE030E080E893E00E94003080E20C
:103800000E94183140919203509193036091940368
:10381000709195032AE030E080E893E00E94003048
:1038200080E893E00E94A62F2896C11583E0D80770
:1038300010F0C0E0D1E0115051F6DF91CF911F910F
:1038400008950F931F93CF931092C40348E060E054
:1038500071E08EE893E0D3D900E011E0C0E0085FAA
:103860001F4F011583E0180710F000E011E048E059
:10387000B80186E893E0C3D98EE893E084DFCF5F98
:10388000811128C086E893E07EDF882319F188E063
:10389000EEE8F3E0AEE5B4E001900D928A95E1F731
:1038A000C093C40388E0EBE1F1E0A6E8B3E0019047
:1038B0000D928A95E1F788E0E6E8F3E0AEE8B3E040
:1038C00001900D928A95E1F78091C403CF911F91E9
:1038D0000F91089588E0E6E8F3E0AEE8B3E00190E8
:1038E0000D928A95E1F7C13609F0B9CFDBCF60912F
:1038F000C40388E0689FB0011124739548E08EE509
:1039000094E099D98091C4038F5F803618F4809336
:10391000C40302C01092C4036091C40388E0689F8E
:10392000B0011124739548E08BE191E084D91092A5
:103930006A0408955D9AE3DB5D9808954F925F9263
:103940007F928F929F92AF92BF92CF92DF92EF922F
:10395000FF920F931F93CF93DF9300D01F92CDB7A9
:10396000DEB710926E02209164002F7B20936400DA
:1039700025E02093700023E22093B00021E0209303
:10398000B1001092B40022E025BB20916E002260AD
:1039900020936E00662351F069838A839B83E2DC67
:1039A0004CDC698161509B818A81F4CF8C01E12CD0
:1039B000F12C5CED852E55E0952EA12CB12C60915B
:1039C0008B0170918C0180918D0190918E010E94EC
:1039D000502EF80191918F01992309F45DC09B83CA
:1039E000A9DF9B8180ED890F8A3050F590E0880F28
:1039F000991FFC01EC5FFB4F45905490FC01E05196
:103A0000FC4FC590D49020918B0130918C01409156
:103A10008D0150918E01ACEDB0E00E940F35605EDB
:103A20007C448B4F9F4FA50194010E94BC34369576
:103A300027953695279520936B0210926D0210C042
:103A4000933219F48FDCF3DB02C09E3211F48ADC6E
:103A500005C09A3219F484EF91E076DCF0DBAFCF49
:103A600080916D028823E1F3C40CD51C4C145D04D5
:103A700009F4A5CFF2017490B701872DF1DB7C0129
:103A80005ED8B701872D82958F70EADB7C0157D80D
:103A9000FFEF4F1A5F0AEACF80916E008D7F80930F
:103AA0006E00109270001092B0001092B1002C982D
:103AB000809164008064809364000F900F900F9059
:103AC000DF91CF911F910F91FF90EF90DF90CF90FA
:103AD000BF90AF909F908F907F905F904F90089590
:103AE00060915B0170915C0180915D0190915E013C
:103AF0000C94502EEF92FF920F931F93CF938C0153
:103B00007B01C0E00E94E530811108C0E114F1049E
:103B100019F0F7010995F6CFF2DAF4CF0E94F430EC
:103B20008D3051F4F801EC0FF11D1082CF911F91EF
:103B30000F91FF90EF900895CC2319F08A3019F47B
:103B4000F1CF8A30F9F2F801EC0FF11D8083C03417
:103B5000C8F6CF5FD7CF60E070E0CCCFCF92DF92D6
:103B6000EF92FF92CF93DF936A017B01E901BC01E1
:103B700080E893E00E9441312AE030E0B701A601DD
:103B800080E893E00E944230BE0180E893E00E940A
:103B90004131DF91CF91FF90EF90DF90CF9008956A
:103BA00082EC91E053C9CF93DF93EC0161E08CE0AC
:103BB0000E94F42E209771F02C9A8091460490E098
:103BC0000E948A2E2C988091460490E00E948A2EB2
:103BD0002197F0CF60E08CE00E94F42EDF91CF912E
:103BE0000895E5ECF3E06AE00E948934805D80830B
:103BF000905D91831282089587EB90E0D4CF83E3A8
:103C000093E0D1CF0895CF92DF92EF92FF9240E1FF
:103C100050E0E0E0F0E820E030E8EE9F6001EF9F48
:103C2000D00CD00C1124E12CF12C6C157D058E05E7
:103C30009F0510F4E227F327369527954150510947
:103C400019F0E22BF32BE9CFCF01FF90EF90DF903B
:103C5000CF900895A2E0B0E0E0E3FEE10C941935C6
:103C6000109266041A8201E010E082E0282E312CC6
:103C700044244A94542C0E94E530882309F4E1C27C
:103C80000E94F430282F1092590280915C0290918A
:103C90005D028B30910508F0B1C0FC01EC5CFF4F78
:103CA0000C94FA3410926402109263022E3F29F0B1
:103CB00010935D0200935C02A1C030925D022092DD
:103CC0005C02109272025092700240926F0296C093
:103CD0002093720210925E02622F8FE692E00E94A1
:103CE0009B1584E090E009C020937302622F8FE659
:103CF00092E00E949B1583E090E090935D02809398
:103D00005C027CC020937402622F8FE692E00E94D6
:103D10009B1585E090E0F1CF20937502622F8FE62E
:103D200092E00E949B1586E090E0E7CF2093760218
:103D3000622F8FE692E00E949B15809172028111A2
:103D400003C088E090E0D9CF87E090E0D6CFE09143
:103D50005E0281E08E0F80935E02F0E0E958FD4F35
:103D60002083622F8FE692E00E949B1590915E0265
:103D700080917202981342C0E4CFE0917602F0E0A5
:103D8000E45EFD4F64918FE692E029830E949B15CB
:103D90002981422F50E080916F0290917002992703
:103DA0004817590731F02E3F09F487CF8AE090E099
:103DB000A4CF89E090E090935D0280935C02E09153
:103DC0005E02F0E0E958FD4F18C0422F50E06090CD
:103DD0007002712C4615570509F068CF0A9709F44F
:103DE00065CF91E09093590210935D0200935C02BD
:103DF000E0915E02F0E0E858FD4F208320915902E7
:103E0000222399F08091730280935F028091610276
:103E100090916202009721F4109264021092630262
:103E20000196909362028093610210925B022223BA
:103E300009F4FEC160E070E080EC93E00E9435166A
:103E400021E0209366042093670480917602882302
:103E500039F19091BF03992321F0209174029213BC
:103E6000F0C18E3309F49BC188F4883171F18E3131
:103E700009F4A4C0813009F0DBC1809185029091E2
:103E800086029093A00380939F03D2C1893609F4E0
:103E9000F0C08D3F09F4B0C18A3409F0C9C143C0F4
:103EA00080917B02863009F4C3C1809174028093B3
:103EB000BF03809177028093AF0380917D02881FBA
:103EC0008827881F80937504B3C180917F029091E9
:103ED0008002A0918102B091820280935E0490934F
:103EE0005F04A0936004B093610480918302909179
:103EF0008402A0918502B09186028093620490931F
:103F00006304A0936404B09365048091930280934A
:103F1000BD03809194028093BE0381E080936A0484
:103F200091E09A8385C1F0908902F092BC0320E071
:103F300030E048EC52E460917F0270918002809101
:103F40008102909182020E9417340E9495336093FF
:103F5000B8037093B9038093BA039093BB0320E036
:103F600030E048EC52E460918302709184028091C9
:103F70008502909186020E9417340E9495336093C7
:103F8000B4037093B5038093B6039093B703E091A5
:103F9000AF03F0E0E755F74D208121FB332730F9DF
:103FA00020FF46C1311144C168317C4F8F4F9F4F74
:103FB0000CF41FC1FF2009F41CC13AC121EE3EE2FE
:103FC00045E652E460917F02709180028091810207
:103FD000909182020E9417340E9495336B017C01FC
:103FE0007093B3036093B20321EE3EE245E652E4E0
:103FF00060917B0270917C0280917D0290917E02A3
:104000000E9417340E9495337093B1036093B003FC
:10401000E091AF03F0E0E755F74D208120FF08C1A4
:104020000D2C000CEE08FF08F7FE08C0F094E09499
:10403000D094C094C11CD11CE11CF11C21E5C21616
:10404000D104E104F1040CF0D4C0CB01770FAA0B2A
:10405000BB0BB7FF07C0B095A095909581959F4F7A
:10406000AF4FBF4F81359105A105B1050CF0C1C01F
:10407000DFC08091A7039091A803A091A903B091FC
:10408000AA038093970390939803A0939903B09306
:104090009A0320E030E048EC52E46091AB0270916A
:1040A000AC028091AD029091AE020E9417340E9442
:1040B00095336093A7037093A8038093A90390930B
:1040C000AA0320E030E04AE754E460917F02709157
:1040D000800280918102909182020E9417340E9496
:1040E00095334B015C017093A6036093A50320E018
:1040F00030E04AE754E46091830270918402809139
:104100008502909186020E9417340E9495336B01BC
:104110007C017093A4036093A30320E030E04AE79E
:1041200054E4609187027091880280918902909195
:104130008A020E9417340E9495337093A203609301
:10414000A103E091AF03F0E0E755F74D308131FB7B
:10415000222720F930FF6CC021116AC0889CA00181
:10416000899C500D500D1124CC9C9001CD9C300D9C
:10417000300D1124240F351F669FF001679FF00D4D
:10418000F00D1124B9016E0F7F1F072E000C880B54
:10419000990B39DD81349F4108F44AC02AC020E0E0
:1041A00030E048EC52E460917F027091800280918F
:1041B0008102909182020E9417340E94953360938D
:1041C000AB037093AC038093AD039093AE03E09187
:1041D000AF03F0E0E755F74D208121FB332730F99D
:1041E00020FF26C0332321F1693C7105810591052B
:1041F000FCF00E94EE181CC0809177028430C0F45D
:10420000E8E7F2E0A5ECB3E082E301900D928A9535
:10421000E1F71092F70346E050E06CE173E085ECC3
:1042200093E00E944333892B19F481E080936F045B
:104230000E94E53081111FCD8AEA90E00E948A2E0B
:104240001ACD8A812296E2E10C943535CF92DF9225
:10425000EF92FF92CF93DF9380916704882331F030
:10426000F9DC909167049093780480C08091780481
:104270008111F6CF0E94E23080915802811102C074
:104280005D9A5F9A0E941F2E6B017C0124E6C20E8C
:10429000D11CE11CF11CDAEFCFEF24EC39E040E057
:1042A00050E060E080E00E94142F6F3F71058105AF
:1042B000910509F064F4662351F06C1708F4C62FD9
:1042C0000E941F2EC616D706E806F90610F0D15038
:1042D00021F7CF3F19F4C091000102C0C093000143
:1042E000CB3078F0C33190F0CD31A8F0C832C0F0B7
:1042F000CC33D8F0C639F0F060EC72E180E090E0A9
:104300001DC060E072EC81E090E018C060E071EEEA
:1043100080E090E013C060E076E980E090E00EC0BD
:1043200060E870E780E090E009C060E07BE480E056
:1043300090E004C060E875E280E090E020915802CF
:10434000211102C05F985D982091580230E02F5FE4
:104350003F4F23703327209358020E94A53081E0FD
:10436000809378048091720481117ACFDF91CF918C
:10437000FF90EF90DF90CF900895A0E0B0E0E3ECE5
:10438000F1E20C941F358C01EB01FC0180819181DD
:10439000A281B381C880D980EA80FB80BC01CD01B5
:1043A0006C197D098E099F0997FF07C0909580952C
:1043B000709561957F4F8F4F9F4F24E630E040E02E
:1043C00050E00E94DE3469017A01F8018481958110
:1043D000A681B7814C815D816E817F818C019D01B9
:1043E000041B150B260B370BC901B80137FF07C09B
:1043F00090958095709561957F4F8F4F9F4F24E6E4
:1044000030E040E050E00E94DE34CA01B9010E9471
:104410007A344B015C01A7019601C701B6010E94E5
:104420007A34680D791D8A1D9B1DEDDBBC0180E08F
:1044300090E0CDB7DEB7ECE00C943B350F931F93C3
:1044400083E291E0A0D9811111C06EE574E083E2AE
:1044500091E093DF20919F013091A001890120E03C
:1044600030E06017710782079307E0F08091330115
:1044700090913401A0913501B0913601892B8A2B9E
:104480008B2B81F080913C0490913D04A0913E04DF
:10449000B0913F048093380490933904A0933A0478
:1044A000B0933B04809164008860809364001F9106
:1044B0000F910895CF92DF92EF92FF92CF93DF9307
:1044C00066EA71E080E893E00E944131CBE2D1E0FE
:1044D000C12CD12C760124EA31E0B701A60182EA91
:1044E00091E03CDB49915991699179912AE030E062
:1044F00080E893E00E9432308FEFC81AD80AE80AA9
:10450000F80A8EE1C816D104E104F10421F7CAEBE0
:10451000D8E220EA31E0B701A6018EE991E01EDB86
:10452000FE016591749180E893E00E94A92F8FEFBE
:10453000C81AD80AE80AF80A239684E2C816D104F1
:10454000E104F10431F76BE971E080E893E00E9447
:104550004131DF91CF91FF90EF90DF90CF900895A0
:104560005F9A0E947F185F9808950F931F93FC0134
:1045700080819181A281B3810097A105B105A9F045
:1045800000913C0410913D0420913E0430913F0481
:10459000081B190B2A0B3B0BAB0160E070E081E0BC
:1045A000401751076207730708F080E01F910F91D1
:1045B00008959B0140913C0450913D0460913E045C
:1045C00070913F04420F531F611D711DFC01408318
:1045D00051836283738308950F931F93FC0181E0DD
:1045E00000913C0410913D0420913E0430913F0421
:1045F00040815181628173810417150726073707AF
:1046000008F480E01F910F91089580E893E00E94E4
:104610009D3085E692E00C947115A4E0B0E0E3E1F2
:10462000F3E20C941D3580E00E94F717182F63E227
:1046300080E893E00E94373160E272E080E893E026
:104640000E949C2F6AE272E080E893E00E949C2F17
:104650004AE050E0612F80E893E00E944F300E94D2
:10466000113181E00E94F717182F63E280E893E090
:104670000E94373160E272E080E893E00E949C2F54
:104680006AE272E080E893E00E949C2F4AE050E0EA
:10469000612F80E893E00E944F300E94113182E048
:1046A0000E94F717182F63E280E893E00E943731E9
:1046B00060E272E080E893E00E949C2F6AE272E080
:1046C00080E893E00E949C2F4AE050E0612F80E850
:1046D00093E00E944F300E9411318BE10E94F71746
:1046E000182F63E280E893E00E94373160E272E0C5
:1046F00080E893E00E949C2F6AE272E080E893E0F9
:104700000E949C2F4AE050E0612F80E893E00E94D5
:104710004F300E94113183E00E94F717182F63E297
:1047200080E893E00E94373160E272E080E893E035
:104730000E949C2F6AE272E080E893E00E949C2F26
:104740004AE050E0612F80E893E00E944F300E94E1
:10475000113184E00E94F717182F63E280E893E09C
:104760000E94373160E272E080E893E00E949C2F63
:104770006AE272E080E893E00E949C2F4AE050E0F9
:10478000612F80E893E00E944F300E94113107EEC4
:1047900011E0F8018491882339F00E5F1F4F3196A4
:1047A00064910E943618F5CF60912F0189E00E9434
:1047B000361880918F0190919001A0919101B09154
:1047C0009201883E9340A105B10530F061EC8CE187
:1047D0000E94361884E005C061ED8CE10E94361815
:1047E00085E080908F0190909001A0909101B09011
:1047F0009201082F10E0C8010297A501940104C09E
:10480000220F331F441F551F8A95D2F760E673EEBF
:1048100086E190E00E94BC3469017A01025F1F4F7B
:10482000C501B40104C0660F771F881F991F0A9540
:10483000D2F727EC3DE240E050E00E94BC346C2D02
:1048400080E22C833B8349835A830E943618D70128
:10485000C60188279770AA27BB2723E0B695A7959E
:10486000979587952A95D1F74981682F642B81E226
:104870000E9436182C813B8149815A819927852FC6
:10488000742F632F82E20E9436182C81622F83E2FC
:104890000E94361860E070E880E090E0A701960181
:1048A0000E94BC3489010E5F1F4F612F677084E244
:1048B0000E943618602F85E20E94361880902B01E6
:1048C00090902C01A0902D01B0902E01811428E32E
:1048D00092062CE9A2062CE1B20650F002E0C12CAF
:1048E0009DE2D92E91E3E92EFF24F39411E009C053
:1048F00004E080E8C82E86E9D82E88E9E82EF12C5D
:1049000010E0C501B401A70196010E94BC34390131
:1049100088E1681A7108C701B6010E947A34A501BE
:104920009401261B370B480B590BA02FB0E00E94B7
:104930000F3521E732E040E050E00E94BC34111115
:1049400002C090E401C090E6862D8F71692F682B1C
:1049500085E72C833B830E9436183B81632F86E7D3
:104960000E9436182C81622F87E70E943618249601
:10497000EEE00C943935A1E0B0E0E1ECF4E20C9407
:104980002835182F80917904811108C0698345DE8C
:1049900081E0809379040E94171969818DE60E9455
:1049A0003618612F87E00E9436180E9485182196DC
:1049B000E3E00C9444350E948A1A682F89E0DBCF2B
:1049C00080919603811103C0F6DF0C941F1908959E
:1049D000A3E0B0E0EEEEF4E20C9429356B8389831A
:1049E0009A83EEDF6B8189819A810E949E1C0E94CE
:1049F0002E192396E2E00C944535A1E0B0E0E3E007
:104A0000F5E20C9429356983ECD8698185EC93E053
:104A1000DFDF2196E2E00C944535811106C08091DC
:104A2000730180FD02C083FF0AC0809115048111CB
:104A300002C063E001C060E081E091E0C9CF089569
:104A400060E089E098CFAF92BF92CF92DF92FF9261
:104A50000F931F93CF93DF93F3DFD0E0F12CC0E0EF
:104A600090E1A92E97E2B92E6D2F89E00E943618A9
:104A70000E94851810921B045F9A65E087E00E94EF
:104A800036182ED85F9880911B048823D1F0F394B8
:104A90008AE0C82ED12C00E010E065E087E00E949B
:104AA00036180E9417198BE20E94F717080F111D84
:104AB00081E0C81AD10889F70A151B0514F4CD2F17
:104AC0005801DF5FD03881F60E942E1980E48F15DF
:104AD00010F48C2F01C080E0DF91CF911F910F91D6
:104AE000FF90DF90CF90BF90AF9008958F929F92EC
:104AF000AF92BF92EF92FF920F931F93CF93DF93EA
:104B0000CDB7DEB7C45ED1090FB6F894DEBF0FBED5
:104B1000CDBF84EEEBE2F1E0DE01119601900D9243
:104B20008A95E1F75F9A5D9A6DE273E080E893E021
:104B30000E94413165EC71E080E893E00E944131D0
:104B400080E893E00E94A62F00E034EEF32EEE24DE
:104B5000E3940E941F2E4B015C0128EE820E23E09D
:104B6000921EA11CB11C10E00E941F2E6815790531
:104B70008A059B0540F40E94E5308823A9F30E9432
:104B8000F430173020F0173009F0A0C009C0E12F31
:104B9000F0E0E35DFC4FE4918E13E5CF1F5FE4CFBF
:104BA0000E94321B811102C00E947F1B0E94791B50
:104BB00081DC85EC93E00E94AB1DE091C503EE2300
:104BC00009F43FC08091C60381113BC08E2F90E055
:104BD000FC01E256F109E931F10550F7E15CFF4FC4
:104BE0000C94FA34FE013196ABE2B1E08F2D0190C6
:104BF0000D928A95E1F70E947F1BDACF88EE93E051
:104C00000E94D31DD5CF1FDF482F50E060E070E039
:104C100022EC31E080EC91E00E94AE1DC9CF0E94F1
:104C2000DB1BC6CFE092960360EB71E085EC93E06E
:104C30000E943C3360E085EC93E0CADE109296035C
:104C4000B7CF86EC93E00E941433162F653208F03C
:104C500054C086EC93E0BC01FC0120810196222324
:104C6000B9F02D33C1F7BC011E31A8F4FC0120813D
:104C7000222309F49DCF0E94143324E0129FF001F7
:104C80001124E55DFE4F608371838283938390CF0F
:104C90001E3108F48DCFE2EEE10FE63009F488CF43
:104CA0008E2F90E0FC01EE0FFF1F8E0F9F1FFC0167
:104CB000E454F74D4491FC01E654F74D85919491ED
:104CC00050E0415051090E94663372CF0E94321B5E
:104CD000882319F00E94791B12C0043118F00E9439
:104CE0007F1B0DC013E05D980E941F195D9A5F98AD
:104CF0000E941F195F9A1150B1F70F5F2ACF5F987A
:104D00005D98CC51DF4F0FB6F894DEBF0FBECDBF1C
:104D1000DF91CF911F910F91FF90EF90BF90AF90D7
:104D20009F908F90089567E089E025DE84EF91E001
:104D30000E94791864E089E01EDE8AEF90E00E940C
:104D4000791860E089E017DE80EA90E00E94791827
:104D50000C942E1910921B0460E085E00CDE0E947A
:104D6000701D86E20E94F717809318040E942E1986
:104D7000A8950895CF93DF93EDDF80911B048823DE
:104D800061F0C0911A04D4E680911B04811107C020
:104D900080911804873418F407C080E010C0DADF6F
:104DA0000E94701DD15081F7C23270F08C2F90E0BC
:104DB000819795958795843691050CF083E68093CD
:104DC0001904DF91CF91089581E0F9CFCF93C82FD7
:104DD000D1DF8823A1F081E08093680480913C04B6
:104DE00090913D04A0913E04B0913F04809306044D
:104DF00090930704A0930804B093090407C0CC2340
:104E000029F0C15029F30E94D01DE2CFCF9108951F
:104E1000CF9361E082E1E8D7CDEFC33018F40E9470
:104E2000FF1D04C081E191E00E94D31D80E0CEDF30
:104E300080911904811103C0CF5FC63071F760E023
:104E400082E1D2D7CF9108950F931F93CF93DF9331
:104E500000916301000FC1E0182FD1E08823A1F079
:104E6000A8950E94F11D60E085EC93E0B1DDD111C1
:104E700002C086E001C082E0A9DF80911904882386
:104E800019F0182FD0E0EACFDD23C1F1D0915F01F6
:104E9000DD23A1F180918701811728F080916F01B6
:104EA0008823A1F007C0B4DF909119049923B1F3CE
:104EB000892FD2CF38DF802F89DF80911904882392
:104EC00021F0182FD1E0C0E0C9CFC0E0809173017C
:104ED00080FD04C081FD02C082FF03C080E09DDD33
:104EE00002C0CC2349F0D13039F0802F6FDF909190
:104EF0001904C1E09111DCCFD150CACFDF91CF911D
:104F00001F910F9108950F931F93CF93DF930FB6C7
:104F1000F894A89580916000886180936000109259
:104F200060000FBE61E081E123D761E08DE020D712
:104F300060E08EE01DD760E082E01AD761E08FE08C
:104F400017D761E085E014D761E087E011D761E011
:104F500082E10ED760E082E147D784B58C7F84BDC3
:104F6000809169008C7F826080936900E89A7894D0
:104F700060E071EE80E090E00E94A53081E00E9448
:104F80002219809177018093460461E08BE0F0D68E
:104F90002C9861E08CE0ECD660E08CE025D782E3D1
:104FA00090E00E9426170E94FF1D0E941C1AEC012F
:104FB000C23B8CE0D807B8F462E971E080E893E086
:104FC0000E94413180E893E0C1D70E9411310E94D4
:104FD0001C1AEC01C43E8CE0D80728F40E949A1CED
:104FE0000E94D01DF4CF82DD81E090E0A0E0B0E02F
:104FF00080933C0490933D04A0933E04B0933F04FF
:105000008091330190913401A0913501B091360126
:105010000097A105B10561F480913804909139049D
:10502000A0913A04B0913B040197A109B10903C0D2
:105030000196A11DB11D8093380490933904A0936B
:105040003A04B0933B048091570190E00196092EF9
:10505000000CAA0BBB0B80930E0490930F04A0933B
:105060001004B093110440914B0150E04F5F5F4F2B
:10507000052E000C660B770B4093340450933504D7
:105080006093360470933704E0913B01F0913C014A
:10509000009137011091380120913F01309140017A
:1050A0004091410150914201ACE3B0E00E940F35C4
:1050B000E017F10749F460931C0470931D0480937A
:1050C0001E0490931F040FC09F01201B310B40E072
:1050D00050E00E94BC3420931C0430931D04409384
:1050E0001E0450931F04ACDC13E05D9A80E991E04C
:1050F0000E947C185D9880E293E00E947C18115019
:10510000A1F70E942E1969E871E080E893E00E94FF
:10511000413180E893E01AD70E941131CE0164E654
:1051200070E00E949534862F60E067DC0E94211CAD
:10513000882319F168E771E080E893E00E9441312B
:1051400080E893E003D70E9411310E94081B63E2BC
:1051500080E893E00E9437316DE272E080E893E0EE
:10516000EBD66AE272E080E893E0E6D661E071E0B7
:1051700080E893E0EED60E94113180917A008F771B
:1051800080937A0080E880BF83E080937F008091E5
:1051900064008068809364008091640084608093E0
:1051A0006400809164008860809364008091640052
:1051B000806480936400A89599E288E10FB6F89422
:1051C000A895809360000FBE90936000DF91CF910F
:1051D0001F910F9108958F929F92AF92BF92CF929D
:1051E000DF92EF92FF920F931F9329D50091400415
:1051F0001091410420914204309143046B017C01E1
:10520000C00ED11EE21EF31E99E288E10FB6F8949B
:10521000A895809360000FBE9093600088EE882E62
:1052200083E0982EA12CB12CC701B601A5019401F1
:105230000E94BC346091670170916801809169019E
:1052400090916A010E947A34A7019601261B370BC0
:10525000480B590BCA01B901A50194010E94BC3445
:1052600020933C0430933D0440933E0450933F040C
:10527000283532404105510508F472D90E94E219DF
:1052800090935C0480935B0463E280E893E0EFD743
:1052900069E372E080E893E04FD66AE272E080E86A
:1052A00093E04AD660915B0470915C044AE050E060
:1052B00080E893E009D7B5D720915B0430915C0476
:1052C000809173042B30310508F060C01092720495
:1052D000882309F443C06FE671E080E893E0D1D7FA
:1052E00080E893E033D69DD780917404882309F435
:1052F0003AC46CE370E087E594E037D9882309F479
:1053000032C480917504882309F42DC46EE170E0E5
:1053100083E594E02AD9882309F425C410926E0409
:1053200065E671E080E893E0ACD780E893E00ED6C4
:1053300078D780916A0481110E94771C80913C0487
:1053400090913D04A0913E04B0913F0480934B04A2
:1053500090934C04A0934D04B0934E0460913C0490
:1053600070913D0480913E0490913F0428E037E025
:1053700040E050E00E94BC34672B682B692B09F099
:1053800049C00E94FC1D0E94FC1D44C091E0909306
:10539000720420917404211112C040913C04509178
:1053A0003D0460913E0470913F0440935704509334
:1053B00058046093590470935A04909374048111B3
:1053C00029C010924B0410924C0410924D0410927C
:1053D0004E046BE471E080E893E053D780E893E0FB
:1053E000B5D51FD763E280E893E041D769E372E067
:1053F00080E893E0A1D56AE272E080E893E09CD572
:1054000060915B0470915C044AE050E080E893E0B6
:105410005BD607D7809172048093730480916704F0
:10542000882309F43DC00BD40091C0031091C1033F
:105430002091C2033091C303DC01CB01801B910B8F
:10544000A20BB30B853F9140A105B10548F18091B6
:105450007504882329F110926E0480913C04909188
:105460003D04A0913E04B0913F0480934B0490937F
:105470004C04A0934D04B0934E046DE371E080E8BA
:1054800093E0FFD680E893E061D5CBD680916A04A3
:1054900081110E94771C8091720481110E94C418AE
:1054A00080917504882309F46EC08091760481117F
:1054B00052C010924F041092500410925104109256
:1054C000520410924B0410924C0410924D0410920E
:1054D0004E0480913C0490913D04A0913E04B09113
:1054E0003F048093530490935404A0935504B093C5
:1054F000560480917204882319F081E080936E0431
:1055000081E08093770480911504882349F088E036
:10551000EEE5F4E0A3E2B1E001900D928A95E1F7A7
:105520008091A7039091A803A091A903B091AA0329
:1055300080939B0390939C03A0939D03B0939E0341
:1055400010927F0366E371E080E893E09AD680E8EA
:1055500093E0FCD466D680916F04882309F43BC0A5
:105560006FE271E080E893E08CD680E893E0EED4BF
:1055700058D610926E0481E08093700410926F04EC
:105580000E941E2228C080917704882321F16EE1B9
:1055900070E083E594E00E94B522811103C010926F
:1055A000770419C080913C0490913D04A0913E0481
:1055B000B0913F0480934F0490935004A093510402
:1055C000B093520462E271E080E893E05AD680E83A
:1055D00093E0BCD426D680917504809376046091C4
:1055E0005301709154018FE494E00E94B522882306
:1055F00019F110926E0480913C0490913D04A091A9
:105600003E04B0913F0480934B0490934C04A093CC
:105610004D04B0934E0410924F0410925004109217
:105620005104109252046FE071E080E893E029D6B3
:1056300080E893E08BD4F5D56CE370E08BE494E0E4
:105640000E94B522882399F00E941E226EEF70E01E
:1056500080E893E016D680E893E078D4E2D5109203
:105660004B0410924C0410924D0410924E04809101
:10567000300490913104A0913204B0913304892B0D
:105680008A2B8B2B09F071C088E394E00E94EC22F6
:10569000882309F4F7C06BEE70E080E893E0F1D561
:1056A00080E893E053D4BDD580913C0490913D04B3
:1056B000A0913E04B0913F04809330049093310454
:1056C000A0933204B0933304809320049093210478
:1056D000A0932204B0932304809137019091380164
:1056E000A0913901B0913A01809328049093290444
:1056F000A0932A04B0932B0460911C0470911D04A4
:1057000084E294E00E94D92280913F01909140016F
:105710002CE3289FB001299F700D11248CE294E0A6
:105720000E94D922209143013091440140914501CA
:1057300050914601ACE3B0E00E940F3500912C047B
:1057400010912D0420912E0430912F04DC01CB0107
:10575000800F911FA21FB31F8093380490933904C8
:10576000A0933A04B0933B048DC080E294E00E9481
:10577000EC22882309F44BC0D6DA60916B0170E00B
:1057800080911604909117040E949534892B51F052
:1057900080916904882331F00E94D01D60E081E08F
:1057A00091E016D980911604909117040196909378
:1057B00017048093160460912804709129046F5F88
:1057C0007F4F80E294E00E94D922D4DA8823F9F056
:1057D0000E949A1C8091190490E0A0E0B0E04091F2
:1057E0008701509188016091890170918A01481761
:1057F00059076A077B0708F40BDB8091730183FD6F
:1058000004C084FD02C085FF02C080E006D984E2A6
:1058100094E00E94EC22882339F160913C0470915D
:105820003D0480911C0490911D04680F791F8091A4
:10583000240490912504681B790B84E294E00E9473
:10584000D9228091280490912904A0912A04B09132
:105850002B040196A11DB11D809328049093290467
:10586000A0932A04B0932B048CE294E00E94EC22D3
:10587000882341F0109230041092310410923204C7
:105880001092330480916B04882309F4DCC00E94D9
:105890002621882309F4C3C06BED70E080E893E013
:1058A000F0D480E893E052D3BCD48EE594E00E941B
:1058B000C31B882351F08091120490911304019628
:1058C0009093130480931204AAC09091BE03809118
:1058D0008301891708F0A3C08091BD03823008F4CA
:1058E0009EC010921304109212048091470490916C
:1058F0004804A0914904B0914A04892B8A2B8B2B30
:1059000009F45FC09CD10091470410914804209194
:10591000490430914A04DC01CB01801B910BA20B9E
:10592000B30B883E9340A105B10508F462C066E858
:1059300073E08EE594E00E94BD212091A101309199
:10594000A201890120E030E0061717072807390770
:1059500070F580915D048F5F80935D0460E070E07E
:1059600087E494E00E94351688E0EEE5F4E0A6E8CE
:10597000B3E001900D928A95E1F760919B018091CF
:105980007704882309F435C0662329F080915D04EB
:10599000C0D791112EC06FEC70E080E893E071D415
:1059A00080E893E0D3D23DD40E94771C22C063EC00
:1059B00070E080E893E065D480E893E0C7D231D40A
:1059C00018C060EB70E080E893E05BD480E893E07F
:1059D000BDD227D460E070E087E494E00E943516E1
:1059E00088E0EEE5F4E0A6E8B3E001900D928A9538
:1059F000E1F780911504882391F0809114048111BE
:105A00000EC080917504882319F081E0809396037D
:105A100081E003D81092960381E080931404809073
:105A20000A0490900B04A0900C04B0900D0407D1D0
:105A300086169706A806B90608F048C08091720439
:105A4000811144C09CC080917204811111C084E313
:105A500094E00E94EC228823C9F120911204309135
:105A60001304809147019091480128173907B8F431
:105A700081E080936B0460914F01709150018AE046
:105A800094E00E94351688E0EBE1F1E0AEE5B4E089
:105A900001900D928A95E1F71092BE0317C0809194
:105AA0004B0190914C0124E6289FB001299F700D75
:105AB000112484E394E00E94D922809112049091F1
:105AC0001304019790931304809312048EE094E0E2
:105AD0000E94EC228823C9F00E949A1C4BD988238B
