:100000000C942E150C94F1180C9456150C9456154E
:100010000C9456150C9456150C94B91E0C94A818F3
:100020000C9456150C94B9180C94A7360C940B36F6
:100030000C9447370C9456150C94731E0C9456155B
:100040000C94EA320C9456150C945E160C9484169B
:100050000C9456150C9456150C9456150C94561574
:100060000C9456150C945615A526A926BB26D52604
:10007000C726DF26E926FA26102738273827233017
:1000800028301730AC3046308F30FD2FFD2FFD2F3C
:10009000FD2F44305430FD2FFD2FFD2F3831FD2F23
:1000A00038303330FD2FFD2F2030FD2FFD2F36301F
:1000B00023636F6F726420666972737420706F6956
:1000C0006E740023736B697020636F6F726400231A
:1000D0007361766520636F6F726400234D41564CE7
:1000E000494E4B20636F6F726473002374696D65B2
:1000F0006420626561636F6E20696E6974002364B9
:100100006973636F6E6E656374206C6F636B00233D
:1001100064697361726D20646973636F6E6E656389
:1001200074002364697361726D206C6F636B0023CC
:100130004372617368002341726D656400234D4111
:10014000564C494E4B20676F6E650023666F756E87
:100150006420454520636F6F726473002347534DDD
:10016000204F4B002362616C616E6365206661699C
:100170006C002347534D20696E6974204F4B003E3D
:100180000A0053003D0052003D005B434F4E46497C
:10019000475D0A004552524F523D000A0053656EBA
:1001A00074204F4B00534D532074657374004552B7
:1001B000524F523D000A0023726573756C74203DE6
:1001C0002000303132333435363738393A232E2057
:1001D0002A0020000D0A00302E3139004368757462
:1001E0006521004372617368210023454550524FD9
:1001F0004D20777269746520646F6E6521002569F2
:100200002E2530346C750023746F6E6520613D259A
:10021000640A000500064007010A050B120C150DC3
:10022000FD0E00300079007A057024711272087397
:10023000007400357A1D402A143655375538553923
:1002400055002B435553443A0023220041542B437D
:100250005553443D312C22002B4353513A002B433C
:100260005351002B434D47533A003E002200415466
:100270002B434D47533D22002B434D47443D310016
:100280002B434D47463D31004552524F520023000B
:10029000415400233E20415400232077616E743A7C
:1002A0002025530A003C20002B4346554E3D312C5F
:1002B00031002B4346554E3D31002B434E45544CA7
:1002C000494748543D31002B4346554E3D30002BA5
:1002D000434E45544C494748543D30002B43504F02
:1002E00057443D3100444F574E002B434E45544C2C
:1002F000494748543D30004530002B4346554E3D5C
:10030000312C31002B4343414C523F004343414C7D
:10031000523A2031002B435343423D31002B434698
:10032000554E3D3100453020563120583120533054
:100330003D300000435245473A20302C00327C8942
:1003400000EDD968770000005900000000000000AF
:1003500000D69FDCA81817AA90437327F6B968ED5A
:10036000F4DED409FEE61C1C84DDE80B992927D6AF
:10037000DF8D210F036418EFEE1E99B78252769439
:100380001500347C000026149E988F0000006A310E
:10039000168F8C059600E7B73F360000000000007E
:1003A00000AF669ED0385D8A6C20B95422007CED87
:1003B000044C80387486EDCBFA57CBDC19E2001D73
:1003C000DF5506E5CB01C30000000000000000007F
:1003D0009AB20086DBD0BC5416131586004E44BD7D
:1003E0007F6F151590010000B50000000000002F80
:1003F000000034E50000000000000000000047009D
:1004000000000000000000000000000000000000EC
:1004100000000000000000000000000000000000DC
:1004200000000000000000000000000000005A0072
:10043000000000000008CC31AA2C532E006372612A
:1004400073683A00236368757465206F6E006342B9
:100450006561636F6E20000700080009000A000B49
:10046000000C000D000E0010001100130015001705
:100470000019001C001F002200250029002D003259
:100480000037003C00420049005000580061006BFA
:1004900000760082008F009D00AD00BE00D100E616
:1004A00000FD0017013301510173019801C101EEF4
:1004B00001200256029202D4021C036C03C30324DF
:1004C000048E04020583051006AB0656071208E0E9
:1004D00008C309BD0AD00BFF0C4C0EBA0F4C110714
:1004E00013EE1406175419DC1BA51EB6211525CAD8
:1004F00028DF2C5B314B36B93BB24144487E4F710B
:10050000572F60CE696274FF7FFFFFFFFF02040672
:100510000843039D037B03C702800491029D03FDF2
:100520000358046C048726EA226F1FA81C2818971A
:1005300015FA11FD0DA50939050400000064080035
:100540000064617461000500000002100080FFDF9C
:10055000DAC0F1E999743601DABC9B0832442432DE
:100560001080DBEE9A0910313433128098CEBE9A97
:1005700008204335221088B9DDAD9980114433122B
:100580008190B9DFBB8980214524110888B9DDBB82
:100590008908304534118090B9ECBBAA0820644327
:1005A000210088A9EBBC9A8910523523110899DBE8
:1005B000CDAA9908305533120088B9DDBBAB8A2823
:1005C000633514110898CACCABAA88205524221090
:1005D00088A8DBCCAA9A88324633130198B9CDADEE
:1005E000AB9908433633130098CACDBBAC8910537E
:1005F0003523128098DACCAC9A89205443220180AA
:1006000099DACCBB9A08413534220188B9CDCCAAFD
:100610008918523433128198DADCBBAB88315533F8
:10062000230280B9ECBCBB8918533533120089CB47
:10063000CECB9908316333130190BACEBC9B88218D
:100640004434230280B9CEBCAA009E47001832551C
:10065000322219C2E0CAAB9A52192216120098CC63
:10066000AC9A083124332411A8DCCB9B88212225A5
:10067000333301BDCEAA892024335391C0D9A98C2C
:100680001822223268108ADDA9091014143188BAA0
:10069000ADAB3AA017231121CA8E0CD09020378819
:1006A00020A0CCAB1830425323AAF9BD8821235394
:1006B0001490F9AC8A30523322B9DEBA094144129F
:1006C00018CADC980842240080CC8D881044018030
:1006D000C0DB090860138000BD8C8010270008D89B
:1006E000AB8080640180A09E098851130808BF88F0
:1006F0008040240808FA8A0828268000E98A081819
:10070000260008D88C0808358180C09E08083581ED
:1007100080B0AF080844010898AF08086301089842
:10072000AE888063010888BD898072020888CC8900
:100730000060038880EB8A8041158808D98B882166
:10074000278019B99E88102681005741006AFF8AC8
:100750000840249009C09D881036009A92FB8900B9
:100760006102A02AB0AD09203682C938B9AD09505E
:100770002580CA12C89B09611480BB23DAAB0871BB
:100780001488AB32C99C09501580BB50A0BB0948E6
:100790002780C93982CB8A084601A88D23A8BC804E
:1007A000501508CA3984C98A88720288AD3193DA33
:1007B0008A807301909D4001BA9B80720388BC3887
:1007C00015B9BB88402780B98A5381CB9B806114BF
:1007D00090B9194280ADAB0861159099093291EC3E
:1007E000A988202781980A2111DA9E89085104914D
:1007F00088180190DC8C8A1872228088088190EC1D
:10080000AB990873248188080888CABFA9083157A2
:10081000018888088880FA9C8918720400898808F1
:1008200000A0DE8A881047018899892020B8EF0946
:100830008840150098BA083312C8EF80806102081A
:10084000B89C18430198CF800800A9540026088856
:10085000CB89202500A8BF8080730180C89B1832F7
:100860000591E08C8880360008CA9A0842130089F6
:10087000DF8880511308B8CB89202403A1F08E09AA
:1008800018430380AAAD89112403A0F99C090044F0
:100890002308A9CBAA104213A099DCA989304623CA
:1008A00088A998A9A980000012B1ADAD8A40351180
:1008B000232291A9CDBAAAA800211310A710198349
:1008C000821C9C0A0434581BA0F2B083F34A90386F
:1008D000A9125B0F028A308AC5A182C38902B8556A
:1008E0009B913A2C7D983A81A0B2D4B19780001A9E
:1008F0001A792A8889181EA310E389A780A2802864
:100900005D2A4B1B3A08C201F2A281C2A390302299
:100910009F40880E0399211F884888A87BA995913C
:100920001B07AB83B3A2109D11421F281D309A09EB
:10093000A297A995B022B0791A093B820AE2C408AD
:10094000C30191102C2A203E0A00FC3F00B312A0E4
:10095000BA7D004B280D4A10A8C893E493B4A05068
:100960009A88425B3B0CA8B2031A9097803AA11870
:10097000918C30A020C93A20BA097193A2234B5D13
:10098000E011A198003899F18088181919808080A9
:10099000808008800808800880080808080880808F
:1009A0008080808004040000003B080000646174C3
:1009B00061000500000003010077FFFFBF47B90198
:1009C000AA53900AA1EA72939BA8CC2E578808BE1E
:1009D000208410919E210001B800BE28033084AD10
:1009E000300211C9CD09112034B80A240190ECBCA1
:1009F00018015113A9411100B9FD9B000073810832
:100A0000210090B9CF8B0018458110020088CBEDF2
:100A10008A0800630210028098CAFB9CA06708093C
:100A20008898999900184314108190AAA9CDAC898F
:100A3000804245120100A99A9CCD9B881073241115
:100A40000190E910ADBA89084254121000A9AADA3F
:100A5000BDAA18483613021199BBFBBC8B1A20653E
:100A600013812289A9DCBC0B09214612028180B8BE
:100A7000BFAD8888417300018181D9BD9900087399
:100A800011681880A8CE88808141030011049AFF64
:100A90000901183090012492DF8A300139A3AB5646
:100AA00000E99B20230081BD6282F88A2003008038
:100AB000AD5380BD0800BE4E00160080BC6281AE02
:100AC00008231010FA3903DC08220011E93A04EB7C
:100AD00008228814D93A84BC10032A05EA48819D6B
:100AE00020B25882CC42B00C21A963A00D24DA18A0
:100AF000813A15CA4982AC00907181AB3192AE0047
:100B0000804490BB52A18E001805A08A32E00B8071
:100B10006802A90A15E908885280A83B04BC90180D
:100B20002680C94892AC98301581DB51A0AA893142
:100B30002590AC34A99D093115909C24A8AD0830AE
:100B400015908B2498AF092015809A2390FB0C18E0
:100B50004310AA4001D99D083123A08915A8EB8B29
:100B6000297300882008B1FBB91033139159081874
:100B7000BD8F193082A296B2B4A29C5B4B1A290297
:100B800038102E8998D8D0A48292A1334BB0491F37
:100B900009398B00480883E3D2A3B193A07A0A7A7B
:100BA000093A8900B8B5A380989400007B1B3A0AE3
:100BB00069C993D49300034400A001B191C4114BBF
:100BC000998180218C088108AB9738F2818090410F
:100BD0003A9D402C6A2B199AA780B1D492B308A2EF
:100BE000309A7A1A184D1B104D8A921099D482D3DC
:100BF00092B28021997C8A1018192B90D197888005
:100C00001011AA5D89383B2DA801E483C878C0A5DE
:100C1000080928889983213E8988C32189B28B04D9
:100C2000598980E112099F8AA21703012109EFABBC
:100C30008A411782A898214201CAFF891041128077
:100C4000999900184301FBBF08312600A89A891022
:100C50003304F19F8920440199AB0911313120FD02
:100C60009D08401580A9AA0031113048EF99005124
:100C70000380BB9A2122103878FC9980411480B9F6
:100C80009A1001819185C69C0A287301889A09816E
:100C9000C0900306C28D1B082314181880B9AE89B2
:100CA000105223FACA89282414110098BDBA886208
:100CB00033AEC9884800EC4B0032110180DBBC8A9E
:100CC0005143EAB809393315121098CDAB086302C5
:100CD0009FA9803142121200D8EB991024D28C0BBC
:100CE000881522310180CBBE892125F28A1B192368
:100CF00014220180EBAC8A2225F29A0A19142331BE
:100D00001190CCCC891224D49B0B0915234100816E
:100D1000DACB99205203AFA9903332331382EBCC54
:100D2000AB813345C19D0A091333431281DACBCA23
:100D300009303487D88A8A1804234210A0CABBAD70
:100D400001315590DBA9093033343311CADBAC9C37
:100D500001335588DBA9092042422201A9DBBBDA15
:100D600019415284B9ACAA103135242288ABAEAAFD
:100D70009A9B21376381CABB9A193235352290BAC2
:100D8000CCBA9C083346828F9AA01331300403BA40
:100D9000CBBB899819B040733413C0CC9C9B804363
:100DA00044331298CBCBBBB988124143221319B8F4
:100DB000CCABBCB86000F83C00223321A9FABEA934
:100DC000085243221280CACBBB8B901003255121BD
:100DD0008188ABCF9A8841131411089AAABA2C0CB7
:100DE000812238320F8800880088008800888000BF
:100DF00088008800888080800008080804040000BB
:100E00000096070000646174610004000000FB0AA2
:100E1000007F77975A40CC93A68832F13B81B85136
:100E20002A5B2D11D990B5C295184A2B3F181D1079
:100E3000A8D3B6A282183C4C3B1A89A3F3A4A229DA
:100E400018918AA0510B582A3F0A28C0D4C3A393F3
:100E5000293C292E588B1991F194A288102A49888F
:100E60000C8093D3285B2A5B0C01B0D393A2195B4F
:100E7000950E20880AA1C5941929A20909B1441C1C
:100E80001B81592C1AD092B418A3C802F8850810F7
:100E90008C582B192A28D082C1C2930000291E9099
:100EA0001852CC33AA39510FA309D391B3A31849CF
:100EB0002E4A2BA000B1B49288A23028EB481888A3
:100EC000202F1B93C2F392111A1B204F8A92C2A2A9
:100ED0001198024C8909001A101C59BA8588E782BA
:100EE0008090816A2C1908A080A3B2201E021A816A
:100EF000F9B592B4004B291A7D1B189881D2A391A1
:100F0000B201C1143F9A041CC22099122D00033271
:100F100000F092D6A30881381E003B4B90199A9797
:100F200008290AA50A9239F6A2A399855A8A103A85
:100F30002D3BA41B399AB61091C191939883E391EC
:100F4000204F98923C391F9110B09013C9842D30D6
:100F50009B28B229C7B1C341911B093F7A0A390BBB
:100F600029B1B1A793F3B3B223910F2A494B2B8B2D
:100F70007809990002E3A3C1948091085C9A5B0010
:100F8000207488CAB8DC1844140290FA8F88005282
:100F9000118088C8AD08087103808808DC8A084879
:100FA00016009888C1AC88807482808918AD9A0830
:100FB0006806809980E3A909085581901B38DBAA4F
:100FC00080402708C800818D0B087102809C11C2E7
:100FD000C988004581981D11A9BB80402780D82968
:100FE000219B9D08400680D910119B8C09611388B4
:100FF000EB2002AA8E08500380CC1112AA8E084062
:101000001498BA5011CA8C08600290BB50007252FA
:101010000018DD89806381A88B5281F09A8041039A
:10102000A0BA412388EF88103201A988322399FFA2
:101030000B1842018888202298FF0A183102801874
:10104000182190FBBF08211481008181019AFF8B38
:101050001032130010009991F8DF080033020010DD
:1010600088A990F0BF09203483811188CB80C2EF1A
:1010700009003313182088DA1C38FB8D08121581FB
:101080000100A8AD3948BF88004042000180C9ABCB
:101090001932F49B0B195324220098BA8D08F18D54
:1010A0000A084324120090CAAC8882BF9980424546
:1010B000210080B9BC0C20F18A0A2963140200883F
:1010C000CBAC1931FAA9883854230200A8DCAB292B
:1010D00041E18A8B183426211888CABC9B3153F809
:1010E0009989284315020088CBAD8A3142F0990ACC
:1010F0002943241200A0CBBD9A2034A48F9A8823C0
:1011000035221090AACEAA084133F0AA8A009B4447
:10111000007343220181B9CCBC892135B39F8B89EF
:101120004334220180BACDBB89304502AEAA984231
:1011300053220181B9BCAD8A186222F8A9892953CA
:10114000232210A8CBCCAA98103354819FAA98438D
:1011500043220291B9CCAC8988113843F9A9896935
:1011600033140210A9DACAAC9A89114444221190AE
:10117000DADC9B89185334221088BACCBBBA9908A0
:10118000224525241188B9EBCA9A8A0930353424BE
:101190001208BACCAC9BAA18213525231291C9ACF0
:1011A000BB9CAA81304334343118B8DC9BBCA89076
:1011B00011583316122099ABBFBA1819131713918F
:1011C000098B8E90081C298A3283979620990AAA47
:1011D0002A3A080D43A620A88AC0BBC884B3780960
:1011E000520A940808B2808080808080808080804D
:1011F0008080808080800808080404000000C20607
:101200000000646174610004000000010200F0F756
:10121000F7F27F4B2B89929100A0B2A5A18108C360
:101220007E0BD394004C2B08C1C3B4A3301D08B26D
:10123000382E3A1AD2945A2CB8A6014B3CA8D3A502
:10124000003A2BA8B6B3305E2B89D2B5824A3C89CE
:10125000C2B4014A2B09B1B5824A3C0AB2C4822801
:101260001C90B282793CD8C6025B2C98B492284C70
:101270002BA8B59200291A098088E4B3027B3B0AA7
:10128000B1B592492C88B2013B2AE1B581180849D1
:101290002DA8B582294B0AD1C6025C2BA8B4826A5C
:1012A0001B88B2B4113B2A99C4A391791CA1824B2B
:1012B0000AD2833A1B29208CE5A30189C4214E2C34
:1012C00098C3A3383B0BD3822909A1814A1BF3B5EC
:1012D000203BC8A591384F1A9881182AD1B401082B
:1012E00098D3947A3D99B4824A2BA8C482398A92C1
:1012F0006A2B99D582390BC294494D99B2012A1AA9
:10130000A484100AFA9928780181005056000089B7
:101310009F80816308A89195C00C082087800B5995
:1013200080CC80006380B8A816B80D084003809C6C
:101330005981BC88103581C89925D98A08611188DE
:10134000BB4083AE89101681A88C52B0AB087812CE
:1013500090D91814D999806310898D2084DA88185F
:101360002580A98C5281BC88201790C9096280BC55
:1013700008200680CA096200EA88101500BA8B614D
:1013800012A89F08518298AC102481F88A182580F1
:10139000BA0B602108BE80200690D908311209AF2F
:1013A00009400390EB80320208BF88400490CA09CC
:1013B000421209DD88201491D989211490E08B18FC
:1013C0006210998C19520019CD88111481D8991185
:1013D000148088AF09302400BBAB320781A0AF88EE
:1013E000303400BA8D10330008FF88003302A8BBE8
:1013F00009420292F09F08313380B99C283120893C
:10140000FF9800421390A99B20300024490090DAF5
:101410009D8831351298B9999180009BBF8A1863D5
:1014200053008888A0D2B298090A894968598A303D
:101430000AB1849B08D78208388F95810A3A3A1BF3
:10144000A0940E8287191A8EA79208083A2B0819C1
:10145000290C203AD0019097C2294F3A19FAA49446
:10146000180A19081888A1103A4A085CB984D03CB7
:101470009401081B0C5C0CA78188801808199068DF
:101480001BC8833A11B991810A087128F881393B48
:101490001AC0B412B8838A98315E291BB120DAD6FB
:1014A00095980129181A2DB148B12FB393B2085B52
:1014B00099A36B800929D8831AB35B390C1808B338
:1014C000018AB3B3078C699029092A8A7B98820222
:1014D0003E8980B0D611B101A1208AC0833C4BB8AF
:1014E000B4C37B10A0A2B28B8580D0306CA0A0B218
:1014F000B780820AB2408B80D0874B190A82E00302
:10150000AA87929A401C492D08C800003100003972
:101510009B6D88E192828993972C392E182A2A2D67
:1015200090C4A2B2D6A3A2A30A5909581C5C0919F7
:1015300019A080F816A098B08302BA3981223F4ED4
:101540000819288E94B1850A901AA618193C008BA8
:101550002A28B4A4E011B085E11893B188222E6F37
:10156000B8084229A0DAB018210942920293DB8020
:10157000B1D4004A48088C081B8280808000880013
:10158000088880000888800088008800080808080B
:101590008880808080800404000000AB0400006428
:1015A00061746100030000000009003F3F7FC9D65D
:1015B000F09F7E96B2D1A000283B2A0A18323781CC
:1015C000C8CD891135128188DF8A083026008899B4
:1015D000FA89880154018889A88F09085113008A63
:1015E00088FB9A802127019889B89F880063120898
:1015F000AA81EC9880312681B819C09D091864022F
:10160000889B01F99980302780A82B819E8A0073DE
:101610000290CA21B1BC09284701998D13C8AA08B4
:10162000501580BA3C04C99A08720290DB3083CA14
:101630009B006500A8AB6101CA99103580D90A5199
:1016400081CA99201680CA096280CA09201588CBF0
:10165000085300EA09201498CB002401D90D28234F
:1016600088AC19430198ED084181A8891122289876
:10167000FF083281AA0921123898FF094380AA087D
:1016800012811083FF895281B90812008822F98FD4
:101690003013B90B3282BA3015FB0F4181AA1822E0
:1016A000A09A4183EF0843005A5500B9093390AC22
:1016B0003023F08F2004C8093280BB3814B1BF1822
:1016C00017A08B4181B91A4300FA8B7101BA182314
:1016D000A0AC212390EF085280AA2813A89C3013B5
:1016E00090FE084200B9192291AC193481FA0E30EB
:1016F00003A09C3012A98D482289CF803383B8BAC9
:101700001114A0AB30529ABF19521291A99981912C
:10171000A0808080A91A4B5031302009BA90EBCBC1
:101720009001A180201584A2021D10A08E00282AFD
:101730000308F8890088E44819A0328B80003E3FF6
:1017400089A238C3FA864A0BB2A281A74AC03900DF
:101750000B4AA31F949808A399072E08908038B8C5
:1017600002E401901820BA6F1A08089A050AB3C358
:10177000D1059B84A8130C2A81182AA27E800C8094
:10178000818109A2B2C24831CF9798719080AADBBB
:101790000102000680A2943A2E8B20B06C8818912A
:1017A00019A08800CC95A1000235003D0E8598D186
:1017B0008120C2A030097AA03A191A828A12C1A1E6
:1017C000D7A0148A8110AC2923CA97B012011F4BED
:1017D00081094B0C048A3085C0F981081029598190
:1017E000A948181F88A094A5B1834A2C8C9096C351
:1017F0008289393B8939591F29A0B1C458E208228E
:1018000028B8ACA029881927080808800808808013
:101810000808800880800880088008800880088088
:101820000808080880808004040000007608000092
:10183000646174610005000000FF2F00F4F87498E3
:1018400099880830188008A099A02308B5B6A41973
:101850000B5A2A112E2B195B1AB0C295C5A210F093
:10186000925808D19108A1826A5D4B8AA1A2011801
:10187000980028F1B2D692102A28293E3E8AA2A3C7
:10188000C4C37B818988092008B2F2110928490B59
:10189000D8D494102A3B3B3C2B5A3D8AC5B3B4D3D1
:1018A000A2A3011A113E5B3C3B8AA28190B2D59360
:1018B00028B9C383302E3A2E1980B1D5B3B3117A2B
:1018C0003B3D3B0AC20190D38208F2C4A3103A4CBC
:1018D0001B98A2125E3C3A1BA0C49280B2C293B283
:1018E000D5B492384E3B1AA8B3036C3C0A900199C8
:1018F000C3B5B3B4A2205B2C09A1B392202F09B2C7
:101900008298794C1BC192206C1A89D2A40088C29B
:10191000B4A481283C0D1A5A49288090E8AA98114D
:10192000551280A9FA9A081055018888BA8F0900C3
:1019300044029098B99F091800DA5400230089984E
:10194000FB890848340099A0F98A093046808898B4
:10195000D99A08203781A098D88C09204582989878
:10196000C88E881044829089A99F8800440390996A
:1019700099AF98004404800A8ABD98807314080ABD
:101980008AFA908030350899C0C00A1A294583A088
:10199000090C8AC0A8302301141201C8DCAC9A10CB
:1019A00042531312A8CBCD9A881153330381DACB5B
:1019B000AB892042532200C8BACA9A0932342402A1
:1019C000909BAEA9A81824313321C8CACB808D8042
:1019D000638131B101DAD8191E010138121CA0D27D
:1019E000A0805A19808384F389293D1B205AA0586E
:1019F0008B02D891F4A5A0B5E380F779188B819973
:101A0000A387090AB08618391D180909F1A7A21879
:101A10002B19A281493C2AA1C5A1893A6829190834
:101A2000E3D3A0991071310098CF890840068180D6
:101A3000E88A0A2871118890001D50008F8818517B
:101A4000028098F989881054008888CC98802117E2
:101A50008188989E880831070088B89D881861039E
:101A60008090D89C880072028088D98B891074017C
:101A70000898D98A881064018888EA8988105401F6
:101A80008898FA98801044018889FB8908103501EC
:101A90008898DC99882046018898EB998010550039
:101AA0008098DA99092864028898E89A8810720266
:101AB0008088B99E09085215088998AD9908314760
:101AC000008998E999802854829098B89E89187264
:101AD00013809998CC99882147019889C89B0B2934
:101AE0007316088A88D9A888104682908A88AD998A
:101AF00088511781A888989C9A08721580A88888B0
:101B00009C9B88414700988989B9A99938478100E9
:101B1000118898A9DABC9B08525323210001CDBD3E
:101B2000AA990116140492020D290F8C8A08212605
:101B300002809899A0E8DA8900B35000002304815C
:101B400089990880DCAC092874038098A901A2FB5C
:101B50008D092864118899891091CD9B094037011E
:101B600090A99A1283FC8C0920360288BA9A211413
:101B7000EAAD8810550288B99B3033B0EF89006216
:101B80000380A9AC183302FA9C08303600A8DB8920
:101B9000222391FB8D08422380C99C19421108FA27
:101BA0009B00511480A9AC08330380A8FD8A00442F
:101BB0000390CB8B3024809910F98F18510288CA7A
:101BC000893022989902F39F80422288DB0A3013E1
:101BD000A09B4851BF88202582B9AD112391D9908F
:101BE00085D38C19611188BB0A510299AB2286F00A
:101BF0009A004401989D083281AA8A3205FB8B0025
:101C00003601A99D183380BB0A4402FC8A10448126
:101C1000B8AB282590BB193402F98E084302A8AC52
:101C2000183391DB09421298DF88301580B98B4157
:101C300013B9AD283482C9DB00B64D00085312A099
:101C4000C9081392DC396110A8BF185292A88A32D1
:101C500092CB980181898974218909BA9900003849
:101C600025F1BF4002A1810491BB8C2801801102A3
:101C7000F99F5001981012802A1FCF819791183830
:101C8000298B9A911108088800880008888000082C
:101C9000880088800008888000880088000808087C
:101CA0000888808080808004040000001005000007
:101CB0006461746100030000000100007F776F4FD2
:101CC0004D3C4B5B2D09FC270C80F301B1A5283C52
:101CD0003A1D292A0188C0B592A29101001C3A3A06
:101CE0007000BA9E9A0863241108FA9D08085311DF
:101CF000080008CF89805804808892F19A8880363D
:101D000000982928BF89807803809902F99A800871
:101D10003780901A009F8A806013089981FA998809
:101D20001054018909989C909801231311012138BE
:101D3000B8FF9E88002042231281C9DE9A881031A4
:101D4000341402000CDD9C888152842011A8CC9DA3
:101D5000092133233390DFAC882027010880EAAAC9
:101D6000890073038008A99F0A092027008880C979
:101D700099AA094134102082B9FBCC892853123228
:101D800001BAFDAA882127011080ACAD8A0873131F
:101D90000080B0DD8A082846810008CB9D888062DB
:101DA000130008C8BD89803047808080CC8A08082D
:101DB00064020808C99D880800904F0055010880FA
:101DC000D99C080860130008A8BF8808283601803D
:101DD00080DC9B080872130008B9AF890838270116
:101DE0008090FA9A080862130880B8AF0A882036F3
:101DF000110890FA9B090852241008A8BE9B88106D
:101E000046120080C9BD8A083037110090EAAC89BB
:101E1000805143010098FBAB880052240100A8DCEC
:101E2000AB890063331200A8DDAC890041251100A5
:101E300090DBBC9A803237030080CABE9A88305546
:101E4000128100A9CDAB89107233010098DBBD9AD5
:101E5000084045128008B8DCAB8900633401800873
:101E6000CADC9A88105423018888DACC9A881055E5
:101E700013818089D8BCAA0928742301889899BE47
:101E80009C89085135128088B9CABD9A991065336A
:101E90000280A0DB9AACAA99286525010098CBABFB
:101EA000A89A9A897346020188B9CC8A9098A909A0
:101EB0007236120088DAAC8A00CC420083B8DC8922
:101EC00074341281A8EBBB0A4101A9CB8963352286
:101ED0000099CCAC89203391DBBB0964342280AA01
:101EE000BDAC88203214A1BDAC1962341280AABCEA
:101EF0008B1092BDAD8963352281A9CCBB8920327C
:101F00002301A89AAA808393BA397B24121210B9AC
:101F1000FB9AAAA187120108D0A199011C8B028209
:101F20007039282F8ABA950102948E01BA51694BF3
:101F3000000BACC6949180101B089080B301280F51
:101F4000002A08242F2A6C4B9F870908080808805C
:101F500008800880088008800808800880088008B9
:101F60008008800808080808808080808080040439
:101F7000000000700600006461746100040000004D
:101F800000040080F07767FBA00EA88F817733A84C
:101F9000FC9B0810422332800192BFCF9A0011525D
:101FA00032221091A9EEAD8800113424018188DA23
:101FB000CF8980103125120188A8EE9B880020442B
:101FC00023020088EBCE8908003234230180A8DF89
:101FD000AC8808115243118080B9CF9B88002154EE
:101FE00023010088DABE9B8810314622010098FA4E
:101FF000BC9A0800423523108098ECBC8B881042B4
:102000004512018098FABC998810413523018098C7
:10201000DCBD9A0918323723118098EBBDAB8818C4
:10202000415423018190D9BD9C9900205433120062
:1020300080AACFBB9A8811734322000099EBCC9AF7
:102040000908324523028190CACDBB8B0920452562
:10205000121188A8EBBCAB8908434523120090CA33
:10206000DCBBAA8930545322010099DBEBAA9A0801
:10207000314533230188CAEBCBAB99285244320057
:102080003146000191B9DADBBA99185162413C85B9
:10209000984CA8D88AA1B45381D3316B0AF00909AE
:1020A000002401090081B0EF88003113A829219292
:1020B000F09F88003103A8311180F09F890021230F
:1020C00089230281F09F8A08113308241100C0BFC0
:1020D000BA8911431154010190ECBA9A1820435364
:1020E000231080CACEAA9910313435110198DCBC76
:1020F000AA09103355131280AAECBB9A88225344C4
:10210000120298BBBE9D99182244331201BADCBD5D
:102110009A88123444220198CBCE9909183235534B
:1021200090A1EAAAAA182034541081A9BDAB9A2024
:102130002337140091FBAA9A083044241090D9AD9B
:1021400099092114270109EB9A9919424152829960
:10215000EAABA8181422262290DD0B9C39423EA639
:102160001208FB88901014B8334098EF109041810A
:10217000AA3104F88B301813D9894480DC08320066
:10218000364C0011FC0A2580EB884380A88C510155
:10219000B88D488398AB301688CC082598AA282398
:1021A00010D88F4081A909140912FC0833A88C317A
:1021B000A14891BF5082B919049923F00C42889B21
:1021C00031912C23FC1905B81A33BA6982AE4883C1
:1021D000BB3084BB53A19E50919B31A29C34B09FD5
:1021E00051B10B32B10D24B89D62B01B32C01B152A
:1021F000C09B73B81A32D01A1498AD61B10B32C1BA
:102200001B3380DD49949B22928D2281E80B17AB12
:102210002012CB301100CF50C21A21B02A8211E215
:102220009E35BC32809A110914F92C960D03080AC8
:10223000813902F92EA42B810189811800A3FF2482
:102240008D8228A02880892001FF33AC8339B128F2
:1022500080890050F15FD13889038B8398082A1652
:10226000FC78C9112AA32B8198982095D82FC639BC
:1022700099148B0209A910120BF46EC8112AA3003D
:10228000EB5200120AC00020B816BF168C9240A86C
:102290001088980A22B863F93AB38828860980889A
:1022A0009B10842A83ED29A2085084099098AC12CF
:1022B000211903CE8D048A1343A8009ACB095388B1
:1022C00022B1EB9F12838080800880800808808084
:1022D0000880080880088008800880088008800836
:1022E0008008808080800808080404000000AF0691
:1022F0000000646174610004000000FF0400F7F74F
:10230000F7C5A491D97FF6210AD1228BB2130CA272
:10231000013FB48838C0A86DC31930E821888910FE
:102320008802FB79B00915AB13A83091CF62BA28A7
:10233000848C12A822E1AB45BB31B31D12AA15C98A
:102340009A279D31D229821C03AC2A978B52D8211F
:10235000A14AA2BB7AD308239D12B041A8DB63BA7D
:1023600010850C129A14AABB379C30E329012B83E9
:10237000AB0F978B61B910A25990AA5DB29934AB9B
:1023800038C222B0FA79A08A079B409811A8FB4373
:102390008A2BA699311928AAAF07B869909A0480A8
:1023A00001BA2F84C932981C129091F959008C13EC
:1023B000C029212A89BF14B22C31BB108680A91FE5
:1023C00022E810838B5881A0F910138E30A1A93315
:1023D000018BBF23B69941880B2392F91D51990AAD
:1023E00002B2804208DF0104A80920280882F80E02
:1023F000300198A901141199DF8000D05200318179
:10240000C8A8321499EC8818401188890101089CE9
:10241000FA8900211131423280FBDC9A09203243D3
:10242000251190C8CCAD8910213425110899CCBD57
:102430009A08215432220098DBDCAB8810524313F7
:102440000290B8DDAD8908213434128098DBDD9A22
:1024500088114143230190B8DE9C8A002153331335
:102460000099EBBEAA08104235138280B9DEBB8901
:1024700008501522128098DBBE9A08204334334A54
:1024800090CAECAA88101355110080C8DA9C8920E4
:102490004141128281E0D9BA0A104342412880B9F1
:1024A000FCBA88114332501119ACCE998011240422
:1024B0001291B1AE8F89103211321280AFAF9800F5
:1024C0003304112118CCCD99004313114818FBDABD
:1024D00098184213002028FCBA891873120828188B
:1024E000CDCA881054828810809F9B8821368188AD
:1024F00001B0BF9A086115808800004C5200BB8A69
:10250000094026819881C0AD89197213080A00FB21
:102510009A881037819818A09F8A084116809901DF
:10252000D8AA89187402880A01EB9A88113602A980
:102530004B01AE9B80313790993280DE8A0841147E
:1025400090892280EE8908311490893200FC8C0831
:10255000301480A81203F89F08103200093921882E
:10256000FF8900111380082110DABF09103204819D
:10257000001100FBAF8881233228080100FABF88D0
:1025800000402202820008A8FD8D09083243120093
:102590000089E9BF898830442300009999FC8E881E
:1025A000182134020088B9A8FD9A88185343018184
:1025B00088CA99C99E89005124130090CAAC88C06A
:1025C0009C89006433210088EBCB0802BD988061B0
:1025D00024221080DABC9941D19A091854132200A0
:1025E000A0CD9C0942C09A0A1835151200B0FBAA6A
:1025F0000831948F998022253101004C4300B9CFD6
:1026000099082202AF99802255118280CAAC8A10A3
:1026100012A19F9A002446100198BB9E891111B106
:102620009E891924361201A8CCAB981101B1AF9A3A
:102630001854441210A9CABC99012120F8AA894053
:10264000632402809ACCB89001288BAFA918444526
:102650001281A0B99C0C1A98A0BBAB1A375631F066
:102660008880808080808080808080808080808062
:10267000808080800808800880800880088008802A
:1026800080808008080804040000000C0600006434
:102690006174610004000000FD0000777757A220FC
:1026A000EB98DC8A3179235091880AD9FB8D081187
:1026B0005313130898B9FFCA09182327210118AA30
:1026C000ECAC8C803254221108A8BDAFAA00214581
:1026D000131100A8BCBFAA08305414118090CABDC1
:1026E000AC88104425118080BACF9A881042260108
:1026F0000080B9CEAA88104226110088A9CE9B0975
:10270000104217010090B8DD8A8801531401009827
:10271000DABD8908115512008098EC9B8900223798
:10272000020080B9CF8A88104116010088C9AE899D
:1027300008107312008098DCAB881041361080902E
:10274000C9AF8908116312000099ED9A8000322602
:10275000010098F99C09081154118080B9BF8908BB
:102760002062230000A9CF9A80104125010099EC36
:102770009A880042150180B0BF8920080471810841
:10278000CABA89411112349180ED9C0932813324F7
:1027900080A8DF9A08430800155400110008CA9D5C
:1027A00009508010230098F99D0851A020128190B3
:1027B000FA9C08539931020099F99D0834A9410106
:1027C0008198F99C1824A9410200A8E89D0834B911
:1027D000500280A0C9AD8855B848010890A9BC0A2C
:1027E00073B23A14088899BE8A70940B238080993A
:1027F000F99A2817AA4181809889CD8873A0290366
:10280000088899EB9A3827AB4300089999AE8A72E9
:10281000B32B05808098C99C8837B948020898096D
:10282000F88B0827B9488200A819E09B1937B938F6
:102830000201C829D09D8854B0290211C03BB2AE14
:102840008A68858B0338819F03AAA88A66A81880A6
:1028500022D8299808AD1937A9182803CB9139F047
:102860009A89579A013B838AE130C9889A73A1916A
:102870003B8608C92189A8BA2A670AB85208A01B52
:1028800081018EA96894901B0420BAB16A98B08C1B
:102890006994811C820288002052000A888098ACCA
:1028A000503096201CA1931B9EA102BB2A142749DD
:1028B0008AB18388CB0A08B8BE147220B1B3102A3B
:1028C0009BEC0018BB8C8527282A9AB2A3980E1A75
:1028D00090D93B508792001B2A91D8B00140AC8D13
:1028E000820702181C0991C0A10038EBCA1172219D
:1028F000089988A2C1890939A9BF1C222793800A97
:102900003A99CAA19101DCAC5B502293A18890BA9C
:10291000890908B1EEDB025332101A8AA9A8B488DB
:1029200098C8AA8C1B4C34523200A80AA491BEBA93
:10293000AF992870220282A0A111DAB80DAB102243
:10294000824A89297008A50502B2F0AA2C4B192ADF
:102950002F29018582B1B4E2A080A0181C30291271
:102960003D0006999A088AA788C3A04889397F7BC9
:10297000892D01C0B4B4B2A29491295B4C1A2A4AA1
:102980000A8880A1B3B591A1A393C28913813C2E7B
:1029900019200A2F192929000137003B3F3A898065
:1029A0001899B2C5C5A4814B5B2A0A00080808081B
:1029B000080888008800880088008800880088004F
:1029C000880008080888808080041C383D43413A0C
:1029D000004F4B004350494E3A2052454144590064
:1029E0002B435245473F002B4350494E3F000100C7
:1029F000030303030303010303030000000003A315
:102A00000110B30110C30110D30110930108E301B9
:102A10002C0102040810204080010204081020014B
:102A20000204081020040404040404040402020242
:102A30000202020303030303030000000023002635
:102A400000290000000000250028002B00000000E5
:102A500000240027002A00008A2F962F11241FBE71
:102A6000CFEFD8E0DEBFCDBF12E0A0E0B1E0E2EDF5
:102A7000F9E702C005900D92A437B107D9F725E018
:102A8000A4E7B2E001C01D92AC34B207E1F715E152
:102A9000CDE2D5E104C02197FE010E94713CCC3209
:102AA000D107C9F70E947C350C94973A0C9400002A
:102AB000CF92DF92EF92FF920F931F93E82FF92F9F
:102AC00005C0015011092109310961F19081962356
:102AD0009417B9F305C0015011092109310911F109
:102AE000908196239413F7CFC12CD12CE12CF12C9B
:102AF0000AC08FEFC81AD80AE80AF80A0C151D0593
:102B00002E053F0579F080818623841791F36C2D83
:102B10007D2D8E2D9F2D1F910F91FF90EF90DF90B7
:102B2000CF90089560E070E080E090E01F910F91F9
:102B3000FF90EF90DF90CF900895FA01AA272830F8
:102B400051F1203181F1E8946F936E7F6E5F7F4F7A
:102B50008F4F9F4FAF4FB1E03ED0B4E03CD0670FF6
:102B6000781F891F9A1FA11D680F791F8A1F911D49
:102B7000A11D6A0F711D811D911DA11D20D009F499
:102B800068943F912AE0269F11243019305D3193DB
:102B9000DEF6CF010895462F4770405D4193B3E0C4
:102BA0000FD0C9F7F6CF462F4F70405D4A3318F06B
:102BB000495D31FD4052419302D0A9F7EACFB4E01C
:102BC000A6959795879577956795BA95C9F70097D4
:102BD0006105710508959B01AC010A2E0694579575
:102BE000479537952795BA95C9F7620F731F841FCC
:102BF000951FA01D0895E0917402F0917502CF0118
:102C0000019690937502809374026083E091740240
:102C1000F0917502108281E090E0089580E00895BF
:102C200080E0089580E008950895FC0113821282E7
:102C300024E132E0318320830895FB012081822743
:102C400090E1899F900111242827822F90E0582F2E
:102C500044279C0163E0220F331F6A95E1F7422766
:102C60005327218130E02427352774E095958795F7
:102C70007A95E1F7822793279183808308959C01B9
:102C8000862FB901DACF6CE771E00E94203C6056D4
:102C900060938B0210928C0280918C028823E1F366
:102CA00008950C94A23608950E94B137882329F024
:102CB0000E948C370E946C38F7CF08951F920F92B4
:102CC0000FB60F9211242F938F939F93EF93FF933F
:102CD0009091C60080914A058F5F8F7320914B05BC
:102CE000821741F0E0914A05F0E0E85FFA4F9083E7
:102CF00080934A05FF91EF919F918F912F910F90B3
:102D00000FBE0F901F9018951F920F920FB60F9243
:102D100011248F939F93EF93FF9390914905809196
:102D20004805981779F0E0914905F0E0EC5FFA4F1B
:102D300080818093C600809149058F5F8370809366
:102D4000490505C08091C1008F7D8093C100FF912E
:102D5000EF919F918F910F900FBE0F901F9018953C
:102D6000A1E0B0E0E6EBF6E10C949C3C7C018B0129
:102D7000081B190B442361F0C8018E0D9F1D498368
:102D80000E94C73CF70181937F0149814150F2CFF6
:102D90002196E6E00C94B83CEF92FF921F93CF93FC
:102DA000DF937C01C62FD72F142F160F1C1741F06D
:102DB000F70161917F01CE010E94CF3C2196F6CFB1
:102DC000DF91CF911F91FF90EF9008950F931F9384
:102DD000CF93DF93EC018B010E943433DC01CB01F4
:102DE000800F911FA11DB11D88839983AA83BB8386
:102DF000DF91CF911F910F910895FC0113821282F0
:102E00002FE332E031832083089568EE73E080E0A1
:102E100090E00C94653360E08AE00E940934F5DFAD
:102E200061E08AE00E940934F0CF61E08AE00E940C
:102E3000CD3361E08AE00E94093461E089E00E94BC
:102E4000CD3361E089E00E94093461E086E00E94B0
:102E5000CD3361E086E00E94093460E088E00E94A2
:102E6000CD3362E083E00C94CD330F931F93CF9367
:102E7000DF9395B7906295BF95B7906495BF14BEE8
:102E800090916000977F9093600090ED9093600028
:102E900083FD02C098E001C098E28770892B98E119
:102EA0000FB6F894A895909360000FBE80936000D1
:102EB000A8958091600080648093600083B7817FD3
:102EC000682B63BF9FB7F8942FB3FB983DB31DBA2F
:102ED00040916B0010926B0050916C0010926C004E
:102EE00060916D0010926D0070916E0010926E00F6
:102EF000E0916F0010926F00F091700010927000DE
:102F0000ACB58CB58F778CBDB091C1008091C100FC
:102F10008F718093C100C091BC008091BC008E7FF6
:102F20008093BC00D0B780B7877F80BF10917A00B4
:102F300080917A00877F80937A0007B787B78F7771
:102F400087BF789483B7816083BF889583B78E7F6E
:102F500083BF0FB6F894A895809160008861809334
:102F60006000109260000FBE07BF10937A00D0BFC0
:102F7000C093BC00B093C100ACBDF0937000E0936F
:102F80006F0070936E0060936D0050936C004093DF
:102F90006B003DBB2FBB9FBF809160008F7B8093F8
:102FA0006000DF91CF911F910F91089564E05DCF94
:102FB0000F931F93CF93DF93EC018C01011582E0F7
:102FC000180720F089E0F2DF1250F8CFD0FF02C0DE
:102FD00088E0ECDFC7FF02C087E0E8DFC6FF02C081
:102FE00086E0E4DFC5FF02C085E0E0DFC4FF02C089
:102FF00084E0DCDFC3FF02C083E0D8DFC2FF02C091
:1030000082E0D4DFC1FF02C081E0D0DFC0FF02C098
:1030100080E0CCDFDF91CF911F910F910895A0E068
:10302000B0E0E5E1F8E10C94923C409165045091E8
:1030300066046091670470916804480F591F611D10
:10304000711D409365045093660460936704709308
:1030500068049C01A8EEB3E00E94773C4B015C0140
:1030600080916F0085FD63C0709064008091640062
:10307000877F809364006090810080918100887FC9
:103080008093810050908000C0918400D091850091
:103090000091880010918900E0908A00F0908B00E8
:1030A000C0908600D090870040906F001092800002
:1030B00010928100109285001092840010926F008F
:1030C00083E08093810060E080E0CFDE8091840027
:1030D000909185001092810040926F00D0928700FD
:1030E000C0928600F0928B00E0928A0010938900D3
:1030F00000938800D0938500C09384005092800094
:103100006092810070926400880F991F880F991F48
:1031100090936A0480936904A0E0B0E08816990651
:10312000AA06BB0680F0881A990AAA0ABB0A20914F
:10313000690430916A0440E050E0C501B4010E9486
:10314000333CC90135DFCDB7DEB7E0E10C94AE3CCE
:103150001F920F920FB60F9211248F934198809176
:10316000BB0381112C9A8F910F900FBE0F901F906F
:1031700018951F920F920FB60F9211248F93419AB8
:103180008091BB0381112C988F910F900FBE0F90EF
:103190001F90189598E04298000087FF02C0419A5E
:1031A00001C041980000429A0000880F915099F7A1
:1031B000429808955C9A42985C98ECCF429898E0C7
:1031C00080E0429A000026B12170880F822B42983D
:1031D00000009150B1F708958F77ECDFEFDF5C9A34
:1031E00008951F920F920FB60F9211242F933F93C1
:1031F0004F935F936F937F938F939F93AF93BF93FF
:10320000EF93FF93CF93DF931F92CDB7DEB783E0A9
:10321000E3DF898384E0E0DF8983898186FF07C05B
:1032200081E08093400486E2D7DF80933F040F90D3
:10323000DF91CF91FF91EF91BF91AF919F918F91CE
:103240007F916F915F914F913F912F910F900FBEA2
:103250000F901F901895A1E0B0E0E1E3F9E10C9424
:10326000A03C80686983A6DF6981862F93DF5C9A22
:103270002196E2E00C94BC3CCF92DF92EF92FF9259
:10328000CF93DF937B019C0140E050E060E271EA64
:1032900087E090E00E94553CE9010E9434339B0195
:1032A000AC012E0D3F1D411D511D69017A010E9487
:1032B00034336C157D058E059F0548F4419ACE0187
:1032C0000E949F334198CE010E949F33F0CFDF913F
:1032D000CF91FF90EF90DF90CF90089568E572E076
:1032E000CBCF66E970E0C8CFA4E0B0E0EAE7F9E14F
:1032F0000C94943C83E070DF84E06EDF03E112E025
:10330000F8018491882331F00E5F1F4F319664914C
:10331000A2DFF6CF60912F0189E09DDF80918F01C0
:1033200090919001A0919101B0919201883E9340BB
:10333000A105B10528F061EC8CE18DDF84E004C0CB
:1033400061ED8CE188DF85E080908F0190909001A5
:10335000A0909101B0909201082F10E0C80102974F
:10336000A501940104C0220F331F441F551F8A95E5
:10337000D2F760E673EE86E190E00E94333C69018B
:103380007A01025F1F4FC501B40104C0660F771FA9
:10339000881F991F0A95D2F727EC3DE240E050E0E4
:1033A0000E94333C6C2D80E22C833B8349835A83FB
:1033B00052DFD701C60188279770AA27BB2723E0D1
:1033C000B695A795979587952A95D1F74981682F46
:1033D000642B81E240DF2C813B8149815A8199270E
:1033E000852F742F632F82E236DF2C81622F83E2D8
:1033F00032DF60E070E880E090E0A70196010E9473
:10340000333C89010E5F1F4F612F677084E223DF19
:10341000602F85E220DF80902B0190902C01A090FE
:103420002D01B0902E01811428E392062CE9A2060A
:103430002CE1B20650F002E0C12C9DE2D92E91E3BE
:10344000E92EFF24F39411E009C004E080E8C82EBF
:1034500086E9D82E88E9E82EF12C10E0C501B401E8
:10346000A70196010E94333C390188E1681A71086E
:10347000C701B6010E94F13BA5019401261B370B41
:10348000480B590BA02FB0E00E94863C21E732E0A8
:1034900040E050E00E94333C111102C090E401C0B2
:1034A00090E6862D8F71692F682B85E72C833B83EF
:1034B000D2DE3B81632F86E7CEDE2C81622F87E749
:1034C000CADE2496EEE00C94B03C61E070E080E04F
:1034D00090E00C9465336AE070E080E090E00C943A
:1034E0006533A0E0B0E0E7E7FAE10C949A3C0E9473
:1034F00034336B017C0120EDC20E27E0D21EE11CAB
:10350000F11CE6E1FAE2C491EAE2FAE2E491F0E0C9
:10351000EE0FFF1FED5BF54D05911491DC2FD0955B
:103520000E9434336C157D058E059F0570F4F801FB
:1035300080818C2B808380ED97E00E949F33F8017F
:1035400080818D238083C7DFEBCFCDB7DEB7E8E086
:103550000C94B63C0E94B1378823B1F065EA72E062
:103560008FE994E00E94953885EA93E00E94BA378B
:10357000882341F00E948C37682F8FE994E00E94E5
:10358000B534F2CFA8DFE6CF089562E370E080E0C3
:1035900090E00C946533F9DFF8CFA0E0B0E0E3ED04
:1035A000FAE10C94953C6C017B01EA010E943433F2
:1035B0004B015C018C0E9D1EA11CB11C10928F0250
:1035C00010928E02D1E0E114F10409F0D0E0439AA8
:1035D000E2DF43986EE872E08FE994E00E9495384C
:1035E000C0E004E912E077DF0E94B137882309F4D4
:1035F0004AC02D9A0F5F1F4F0E948C37782EF8011A
:1036000031978083F8011082682F8FE994E00E943F
:10361000B534FAE07F1205C063E28FE994E00E94BE
:10362000B5340E94B1378111E5CF2D98C1111AC070
:10363000B60184E992E00E94C33A9093910280938C
:103640009002892B71F468E872E084E992E00E94AC
:10365000C33A9093910280939002892B19F0C3E0B2
:1036600001C0C1E0E114F10491F0B70184E992E0F6
:103670000E94C33A90938F0280938E02D1E0892BEF
:1036800031F4D0E004C0CC2311F0D11108C00E9465
:103690003433681579058A059B0508F4A4CFC093D7
:1036A00093028C2FCDB7DEB7EDE00C94B13CA0E0D7
:1036B000B0E0EDE5FBE10C949A3C8C01D62FC72FCE
:1036C0007A01690147DFCF93DF9389E992E09F9305
:1036D0008F938FE994E09F938F930E94B23863E9B0
:1036E00072E08FE994E00E949538B8018FE994E088
:1036F0000E94A93860E972E085EA93E00E9495385B
:10370000B80185EA93E00E94A938A601B7018D2F80
:103710009C2F43DF91E00F900F900F900F900F9030
:103720000F90813009F090E0892FCDB7DEB7E8E047
:103730000C94B63C20E137E2BACFCF93CDE3C15031
:10374000B1F044E353E061ED79E280EE99E2F2DF1B
:10375000882369F0E0918E02F0918F028085833397
:1037600031F0853331F0813321F04FDBE8CF80E059
:1037700001C081E0CF91089548E552E061ED79E222
:103780008EE592E0D7DF882331F080918E02909110
:103790008F020596089580E090E008959A0140E038
:1037A00050E085CF40E157E2F9CF61ED79E2FACF01
:1037B0008FEC92E0FADF87EC92E0F7DF91E0811185
:1037C00001C090E0892F0895AB0161ED79E2E6CF69
:1037D000CF93C9E168EC70E083E393E0F5DF8111FA
:1037E00003C0C150B9F701C081E0CF91089568ECE2
:1037F00070E08AEE92E0E8DF48EC50E065EE72E0BF
:103800008CED92E0CBDF0E94C137E4E6F0E08081EE
:1038100088608083109292020895E4E6F0E080814F
:10382000877F808361EA71E080E090E00E948235CA
:10383000CFDF87EF92E0B9DFDACFAB0160E070E075
:10384000ACCE0F931F93CF93DF93FC0120812223F3
:1038500009F43BC08B01EC0180E892E0A6DF88E729
:1038600092E0A3DF6EE672E085EA93E00E9495386D
:10387000BE0185EA93E00E94B3346CDE6CE672E030
:1038800085EA93E00E94A93868EB7BE08AE692E043
:10389000D4DF8130E1F4B80185EA93E00E94B334CB
:1038A0006AE185EA93E00E94D03440E355E763E69D
:1038B00072E081ED99E271DE813049F420918E024F
:1038C00030918F02232B21F402C081E001C080E0FF
:1038D000DF91CF911F910F9108955DDE5CDE5BCE8D
:1038E00060E086E00E940934F8DF61E086E00E9433
:1038F000093451CECF9320919202211152C09B01E5
:10390000AC0180916400877F80936400DA01C90173
:10391000B695A79597958795BC01CD017C5D8B40A9
:103920009F4F0E94333CCA01B9010E94823573DA6D
:10393000CBE04EDF8823E1F085E293E036DF8DE1D6
:1039400093E033DF85E193E030DF64ED79E287EEE9
:1039500099E228DF882371F0F0DE882359F06CE0CB
:1039600073E084E093E01EDF982F882319F01BC0DA
:10397000B7DF51DA8AEF92E018DF47DA46DA45DA44
:1039800044DA43DAC150A9F60E94C137809164003D
:1039900088608093640090E081E0911108C080E02D
:1039A00006C081E004C081E080939202F5CFCF9100
:1039B000089560E076E980E090E09CCFCF93882383
:1039C00011F0F6DE23C08CDFCBE002DF882399F014
:1039D0008AEB92E0EADE82EB92E0E7DE882391F068
:1039E00064ED79E287EE99E2DDDE882359F0A5DE09
:1039F000882341F00BC074DF0EDA07DAC15029F7D3
:103A000080E004C088EA92E0D0DEF7CFCF9108953D
:103A1000AF92BF92DF92EF92FF920F931F93CF93DB
:103A2000DF931F92CDB7DEB78C0194DDD12C6CE40F
:103A300072E085EA93E00E949538DD2011F08AE279
:103A400001C083E20E94D2354AE050E0B80185EA25
:103A500093E00E94763569E472E085EA93E00E9483
:103A6000A93868E97AE382E492E0E7DE813039F050
:103A7000D11003C0DD24D394DACF80E05EC0898307
:103A80002CDFA0919002B09191025D0196E0A90E09
:103A9000B11C50E0EAEEF3E020E030E060E040E00E
:103AA0007DE28981D5019D915D01992309F444C08E
:103AB000923221F4611141C061E0F4CF662391F3A9
:103AC000DD20B1F1890124E0000F111F2A95E1F7F3
:103AD00091360CF0905230ED390F3A3014F039EC49
:103AE000390F7801E30EF11C37FDFA9497014F5F0F
:103AF0004430C1F69E2D052F10E00653164DD80117
:103B00004C91E41202C05F5F07C0563021F470830D
:103B10001182319601C050E02F3F310529F020F08D
:103B200020E030E040E0BECF908311823196F8CFA4
:103B3000908311823196B6CF862F0F90DF91CF916F
:103B40001F910F91FF90EF90DF90BF90AF9008957D
:103B5000AEE0B0E0EEEAFDE10C949F3C84E690E03C
:103B600057DF882379F11982AAEEB3E010E0FE0155
:103B70003196CF012D91211104C02981211111C04D
:103B800021C02D3211F411E0F5CF30ED320F3A3073
:103B900020F4208311823196EDCF2D7F2C3251F706
:103BA000ECCF0E94713A112341F06115710539F093
:103BB00088279927861B970B07C0CB0105C08FEF7D
:103BC0009FEF02C080E090E02E96E3E00C94BB3CB7
:103BD000A1E0B0E0EEEEFDE10C949F3C182F809147
:103BE0009E04811107C069837FDB81E080939E047E
:103BF000CCDC69818DE62FDB612F87E02CDB6BDC71
:103C00002196E3E00C94BB3C60E089E0E1CF909129
:103C10009E04911102C0882319F060E087E01BDB4D
:103C200010929E04089580E0F2CF67E089E0D0DF33
:103C300084EF91E053DB64E089E0CADF8AEF90E033
:103C40004DDB60E089E0C4DF80EA90E047DBEBCF4A
:103C50007058A0918D02B0E0FD01EE0FFF1FE95AF0
:103C6000FB4F4591549182FF02C09A0102C020E0AF
:103C700030E05695479581FF02C0240F351F5695B9
:103C8000479580FF02C0240F351F56954795240F96
:103C9000351F83FF08C02617370770F4AB01421B9E
:103CA000530B9A010EC0AB01409550952417350770
:103CB00030F4260F371F05C020E030E002C02FEFA0
:103CC0003FEF8770E82FF0E0E75FFA4FE491AE0F27
:103CD000B11DA935B10514F0A8E5B0E0A0938D029F
:103CE000C901905808951F920F920FB60F92112498
:103CF0008F939F9386B590918A02890F87BD80919B
:103D00008902882359F0809188028F5F809388020E
:103D100080FD02C080ED04C080E302C080918B0270
:103D20008093B30081E080938C029F918F910F90DC
:103D30000FBE0F901F90189522E320938A0221E076
:103D400020938902BC0180E090E00E9465331092CC
:103D50008902089584E690E0EFCFEAE7F0E0808101
:103D60008068808380818B7F808380818660808370
:103D7000B2CB1F920F920FB60F9211248F93EF9335
:103D8000FF930FB6F894A8958091600088618093A6
:103D90006000109260000FBEA895E0E6F0E0808120
:103DA0008F7B8083FF91EF918F910F900FBE0F90CB
:103DB0001F901895A4E0B0E0E0EEFEE10C949F3C6B
:103DC000CCDF14E620E030E0A90182E129833A83C8
:103DD0004B835C830E945B3429813A814B815C81F7
:103DE000280F391F411D511D29833A834B835C8362
:103DF0006CDB115029813A814B815C811111E5CF37
:103E000080917A008F7780937A00AAE0B0E00E94D8
:103E1000863C21E035E040E050E00E94333CC9019F
:103E20002496E3E00C94BB3CA4E0B0E0EAE1FFE1BF
:103E30000C949F3C92DF10E420E030E0A90183E184
:103E400029833A834B835C830E945B3429813A81C6
:103E50004B815C81280F391F411D511D29833A83F5
:103E60004B835C8332DB115029813A814B815C8129
:103E70001111E5CFA0EAB1E00E94863C26E09695BC
:103E80008795779567952A95D1F723E330E040E051
:103E900050E00E94333C21388CE038074105510541
:103EA00060F58EE480937C0010DB14E620E030E0C7
:103EB000A90129833A834B835C8307DB80917A00D5
:103EC000806480937A005C814B813A812981809162
:103ED0007A0086FDFCCF809178006091790090E0B7
:103EE000962B280F391F411D511D115011F76BE101
:103EF00073E682E197E00E94333CC9012496E3E037
:103F00000C94BB3C80913E04811105C080911A0144
:103F1000833320F0815080931A0102C010921A015D
:103F200020911A01223350F088E790E0821B91091A
:103F30006AE070E00E94203C862F089587E0089593
:103F4000E1DF682F89E044CE8091BB03811102C07C
:103F5000F7DFC3CC08958F929F92AF92BF92CF921A
:103F6000DF92EF92FF92CF93DF936B017C0197FF7B
:103F70000DC06DE282E892E00E94B534F094E094C6
:103F8000D094C094C11CD11CE11CF11C80E8882E87
:103F900086E9982E88E9A82EB12CC701B601A501A3
:103FA00094010E94553CE90160E879E687E69FEFBD
:103FB0000E94F13BA7019601260F371F481F591F8A
:103FC000A0E1B7E20E94863CA50194010E94333C27
:103FD0005F934F933F932F93DF93CF938EEF91E0B7
:103FE0009F938F9382E892E09F938F930E94B238C1
:103FF0008DB79EB70A960FB6F8949EBF0FBE8DBFC1
:10400000DF91CF91FF90EF90DF90CF90BF90AF9076
:104010009F908F90089581E080938E0481E091E0DD
:10402000909375028093740260918304709184046C
:1040300080918504909186048EDF63E282E892E0AD
:104040000E94B5346091870470918804809189043E
:1040500090918A0480DF80919504882329F06AE298
:1040600082E892E00C94B5340895A4E0B0E0EBE36C
:10407000F0E20C949E3C42E062E070E0CE010196DA
:104080000E94B01689819A81C797A1F58FEF9FEFA3
:104090009093AA038093A90384EE90E09A83898386
:1040A000CE0103969C838B8304E010E089819A8182
:1040B000892B79F0C8010E94C73C69EA73E00E942D
:1040C0001D1689819A8101979A8389830F5F1F4FFB
:1040D000EDCF42E060E070E0CE0101960E94B016A4
:1040E00081E049815A812091A9033091AA034217A6
:1040F000530709F080E02496E4E00C94BA3C44EEC7
:1041000064E070E08BE291E00C94B016EF92FF92C5
:104110001F93CF93DF938FEF9FEF9093AA0380932A
:10412000A9038BE2E82E81E0F82EC4E0D0E0F7018D
:1041300011917F01612FCE010E94CF3C69EA73E0AB
:10414000812F0E941D162196C83ED10581F742E0BD
:1041500060E070E089EA93E00E94CC1687E390E08B
:104160009093AA038093A90342E062E070E089EA99
:1041700093E00E94CC166AEE71E08FE994E00E9411
:1041800095388FE994E00E94BD340E946538DF9134
:10419000CF911F91FF90EF900895FC018081918154
:1041A000A281B3818F3F9F4FAF4FBF4F61F081E03E
:1041B00044815581668177814F3F5F4F6F4F7F4FBD
:1041C00019F080E0089581E008951F93CF93DF9365
:1041D000C091E90388E0C89FE0011124C85FDE4F69
:1041E00011E648E0BE0183EB93E00E94B01683EB3A
:1041F00093E0D3DF811123C04091B3035091B40306
:104200006091B5037091B6032AE030E08FE994E045
:104210000E94273580E20E946C384091B70350918C
:10422000B8036091B9037091BA032AE030E08FE9D6
:1042300094E00E9427358FE994E00E94BD342896CF
:10424000C11583E0D80710F0C0E0D1E0115049F665
:10425000DF91CF911F9108950F931F93CF931092E9
:10426000E90348E060E071E083EB93E00E94B01660
:1042700000E011E0C0E0085F1F4F011583E0180760
:1042800010F000E011E048E0B8018BEA93E00E94F2
:10429000B01683EB93E081DFCF5F811128C08BEAFA
:1042A00093E07BDF882319F188E0E3EBF3E0A3E8F8
:1042B000B4E001900D928A95E1F7C093E90388E09C
:1042C000EBE1F1E0ABEAB3E001900D928A95E1F702
:1042D00088E0EBEAF3E0A3EBB3E001900D928A955E
:1042E000E1F78091E903CF911F910F91089588E044
:1042F000EBEAF3E0A3EBB3E001900D928A95E1F7CE
:10430000C13609F0B8CFDBCF6091E90388E0689F40
:10431000B0011124739548E083E894E00E94CC1624
:104320008091E9038F5F803618F48093E90302C01F
:104330001092E9036091E90388E0689FB0011124BD
:10434000739548E08BE191E00E94CC1610928F04A7
:104350000895439ABAD8439808954F925F927F92F6
:104360008F929F92AF92BF92CF92DF92EF92FF9285
:104370000F931F93CF93DF9300D01F92CDB7DEB77B
:1043800010928D02209164002F7B2093640023E023
:10439000209370002093B00021E02093B100109290
:1043A000B30022E025BB20916E00226020936E00B6
:1043B000662351F069838A839B83CCDCECD86981C6
:1043C00061509B818A81F4CF8C01E12CF12C5CED52
:1043D000852E55E0952EA12CB12C60918B0170910A
:1043E0008C0180918D0190918E010E946533F801BE
:1043F00091918F01992309F45FC09B83AADF9B8170
:1044000080ED890F8A3050F590E0880F991FFC01EC
:10441000EB5DFA4F45905490FC01EF5EFA4FC5906A
:10442000D49020918B0130918C0140918D0150915D
:104430008E01ACEDB0E00E94863C605E7C448B4F08
:104440009F4FA50194010E94333C369527953695E0
:10445000279520938A0210928C0210C0933219F48F
:1044600079DC93D802C09E3211F474DC05C09A3214
:1044700019F484EF91E060DC30DAAFCF80918C02E8
:104480008823E1F3C40CD51C4C145D0409F4A5CFBA
:10449000F2017490B701872DDBDB7C010E9443168B
:1044A000B701872D82958F70D3DB7C010E94431664
:1044B000FFEF4F1A5F0AE8CF80916E008D7F8093E7
:1044C0006E00109270001092B1002C9880916400E0
:1044D0008064809364000F900F900F90DF91CF91D4
:1044E0001F910F91FF90EF90DF90CF90BF90AF9012
:1044F0009F908F907F905F904F900895A3E0B0E0E1
:10450000E4E8F2E20C94A03C6B8389839A831CDD7F
:104510006B8189819A8121DF86DB2396E2E00C940E
:10452000BC3C6F927F929F92AF92BF92CF92DF92EC
:10453000EF92FF920F931F93CF93DF931F92CDB70C
:10454000DEB78C01809164008F7B8093640083E0F0
:10455000809370008093B00081E08093B10082E08E
:1045600085BB80916E00826080936E00662331F07F
:104570006983F0DB10D869816150F8CF80E18093C6
:104580008A0280E880938B02F80101900020E9F70D
:104590003197DE2ED01AC02E380188E1B82E07E000
:1045A00012E09FE9E92E94E0F92EAA24A39420E8D2
:1045B000922E862D8C198D15C8F5CBDEF3018191D5
:1045C0003F018E3251F028F4833261F08A3229F0B3
:1045D00006C080538A3038F002C08BE004C090924D
:1045E0008B021BC08AE08B9D802D11248B5F8093F2
:1045F0008602809186021F928F931F930F93FF92E2
:10460000EF920E94B2380E946538A09287020F9004
:104610000F900F900F900F900F905FD90E94051789
:10462000109287020E94C51A58D9C3CF80916E009C
:104630008D7F80936E00109270001092B0001092E7
:10464000B1002C98809164008064809364000F9086
:10465000DF91CF911F910F91FF90EF90DF90CF905E
:10466000BF90AF909F907F906F900895A3E0B0E0CF
:10467000ECE3F3E20C94A03C6B8389839A8364DCC3
:104680006B8189819A814DDFCEDA2396E2E00C942A
:10469000BC3C60915B0170915C0180915D019091E7
:1046A0005E010C946533AF92BF92CF92DF92FF927E
:1046B0000F931F93CF93DF93A7DAD0E0F12CC0E0E4
:1046C00090E1A92E97E2B92E6D2F89E00E942B1957
:1046D0000E946B1A109240042D9A65E087E00E94B8
:1046E0002B19D7DF2D98809140048823D1F0F394C3
:1046F0008AE0C82ED12C00E010E065E087E00E943F
:104700002B190E94C51A8BE20E94EC18080F111D8C
:1047100081E0C81AD10889F70A151B0514F4CD2FBA
:104720005801DF5FD03881F67EDA80E48F1510F40F
:104730008C2F01C080E0DF91CF911F910F91FF90EE
:10474000DF90CF90BF90AF900895EF92FF920F93BC
:104750001F93CF938C017B01C0E00E9439388111F7
:1047600009C0E114F10419F0F7010995F6CF0E9490
:10477000651AF3CF0E9448388D3051F4F801EC0FE0
:10478000F11D1082CF911F910F91FF90EF9008952E
:10479000CC2319F08A3019F4F1CF8A30F1F2F80104
:1047A000EC0FF11D8083C034C0F6CF5FD6CF60E040
:1047B00070E0CBCFCF92DF92EF92FF92CF93DF9357
:1047C0006A017B01E901BC018FE994E00E94953800
:1047D0002AE030E0B701A6018FE994E00E94693534
:1047E000BE018FE994E00E949538DF91CF91FF9050
:1047F000EF90DF90CF90089582EC91E00C940F1829
:10480000CF93DF93EC0161E085E00E9409342097AB
:1048100071F02C9A80916B0490E00E949F332C9849
:1048200080916B0490E00E949F332197F0CF60E06D
:1048300085E00E940934DF91CF910895EAEEF3E01C
:104840006AE00E94003C805D8083905D91831282CB
:104850000895A1E0B0E0EFE2F4E20C94A03C69839B
:10486000EDDF69818AEE93E049DE2196E2E00C9467
:10487000BC3CCF93C82F81110BC08091730180FD88
:1048800007C083FD05C08091730181FD10C00DC07C
:1048900080913A04811102C063E001C060E081E0D0
:1048A00091E02CDECC2379F30CC084FF0AC0809108
:1048B0003A04811102C063E001C060E081E091E050
:1048C000D5DECF91089587EB90E09ACF83E393E014
:1048D00097CF1092400460E085E07AD9DADE86E274
:1048E0000E94EC1880933D049ED9A8950895CF931B
:1048F000DF93EFDF80914004882361F0C0913F0493
:10490000D4E680914004811107C080913D04873432
:1049100018F406C080E00FC0DCDFBBDED15089F7A1
:10492000C23270F08C2F90E08197959587958436F0
:1049300091050CF083E680933E04DF91CF910895BA
:1049400081E0F9CFCF93C82FD2DF8823A1F081E097
:1049500080938D048091610490916204A09163041E
:10496000B091640480932B0490932C04A0932D04A5
:10497000B0932E0406C0CC2321F0C15029F33CDFB4
:10498000E3CFCF910895CF9361E08CE00E9409348A
:10499000CDEFC33010F49ADF03C081E191E030DF46
:1049A00080E0D0DF80913E04811103C0CF5FC6302C
:1049B00081F760E08CE00E940934CF91089508955A
:1049C0000F931F93CF93DF9300916301000FC1E01A
:1049D000182FD1E0882399F0A89530DF60E08AEEA7
:1049E00093E08CDDD11102C086E001C082E0AADF35
:1049F00080913E04882319F0182FD0E0EBCFDD23FF
:104A0000C1F1D0915F01DD23A1F180918701811770
:104A100028F080916F018823A1F007C0B4DF909146
:104A20003E049923B1F3892FD3CFFFD8802F8ADF9B
:104A300080913E04882321F0182FD1E0C0E0CACF36
:104A4000C0E08091730180FD04C081FD02C082FF3F
:104A500003C080E00EDF02C0CC2349F0D13039F032
:104A6000802F70DF90913E04C1E09111DCCFD150D6
:104A7000CACFDF91CF911F910F910895CF92DF920E
:104A8000EF92FF9240E150E0E0E0F0E820E030E813
:104A9000EE9F6001EF9FD00CD00C1124E12CF12C83
:104AA0006C157D058E059F0510F4E227F3273695DA
:104AB00027954150510919F0E22BF32BE9CFCF0193
:104AC000FF90EF90DF90CF900895A0E0B0E0EBE68C
:104AD000F5E20C94963C8C01EB01FC018081918104
:104AE000A281B381C880D980EA80FB80BC01CD015E
:104AF0006C197D098E099F0997FF07C090958095D5
:104B0000709561957F4F8F4F9F4F24E630E040E0D6
:104B100050E00E94553C69017A01F8018481958139
:104B2000A681B7814C815D816E817F818C019D0161
:104B3000041B150B260B370BC901B80137FF07C043
:104B400090958095709561957F4F8F4F9F4F24E68C
:104B500030E040E050E00E94553CCA01B9010E949B
:104B6000F13B4B015C01A7019601C701B6010E9410
:104B7000F13B680D791D8A1D9B1D80DFBC0180E023
:104B800090E0CDB7DEB7ECE00C94B23CCF93DF936E
:104B900090919104992309F454C090919204911139
:104BA00050C0C82F8AEE93E09093750280937402F0
:104BB00080919504882331F063EE71E082E892E001
:104BC0000E94A938CC2331F06CED71E082E892E0CC
:104BD0000E94A93863EE71E082E892E00E94B3344B
:104BE00061E071E082E892E00E94C03480E00E94BF
:104BF000DE1C6AEE73E083EA91E00E94211CD82F4C
:104C00006AEE73E083EB91E00E94211CC1E0811108
:104C100003C0D11101C0C0E06AEE73E083EC91E003
:104C20000E94211C8111C1E06AEE73E083ED91E0E6
:104C30000E94211C811102C0CC2319F081E08093D5
:104C40009204DF91CF91089564E474E08FE994E0D9
:104C50000E9495388FE994E00E94BD340E94653827
:104C600081E0809396048091CC039091CD03A09134
:104C7000CE03B091CF034091C0035091C103609126
:104C8000C2037091C303841B950BA60BB70B8D3B1E
:104C90009240A105B10514F00E94711A81E076DFFF
:104CA000109292040C94D81B80919A04811103C035
:104CB0001092A40308958091960481111DC0409123
:104CC000BC035091BD036091BE037091BF038091FE
:104CD000CC039091CD03A091CE03B091CF034817A0
:104CE00059076A077B0724F38091A4038F5F8093A1
:104CF000A4038A3108F0A8CF0895A2E0B0E0E3E869
:104D0000F6E20C94903C10928B041A8201E010E0C1
:104D100082E0282E312C44244A94542C0E943938A5
:104D2000882309F4E0C20E944838282F10927602A6
:104D30008091790290917A028B30910508F0B1C090
:104D4000FC01EC5CFF4F0C94713C109281021092BC
:104D500080022E3F29F010937A0200937902A1C0BD
:104D600030927A0220927902109297025092950224
:104D70004092940296C02093970210927B02622F79
:104D800084E992E00E943F1684E090E009C02093FD
:104D90009802622F84E992E00E943F1683E090E03F
:104DA00090937A02809379027CC020939902622FBB
:104DB00084E992E00E943F1685E090E0F1CF2093D5
:104DC0009A02622F84E992E00E943F1686E090E00A
:104DD000E7CF20939B02622F84E992E00E943F1666
:104DE00080919702811103C088E090E0D9CF87E0DD
:104DF00090E0D6CFE0917B0281E08E0F80937B0222
:104E0000F0E0E456FD4F2083622F84E992E00E9497
:104E10003F1690917B0280919702981342C0E4CF95
:104E2000E0919B02F0E0E35CFC4F649184E992E046
:104E300029830E943F162981422F50E080919402DD
:104E40009091950299274817590731F02E3F09F4A0
:104E500087CF8AE090E0A4CF89E090E090937A0237
:104E600080937902E0917B02F0E0E456FD4F18C098
:104E7000422F50E060909502712C4615570509F0BD
:104E800068CF0A9709F465CF91E09093760210936A
:104E90007A0200937902E0917B02F0E0E356FD4F45
:104EA000208320917602222399F0809198028093AA
:104EB0007C0280917E0290917F02009721F41092F3
:104EC000810210928002019690937F0280937E026D
:104ED00010927802222309F4FDC160E070E085EEB3
:104EE00093E00E94E61621E020938B0420938C042B
:104EF00080919B02882339F19091E403992321F05A
:104F0000209199029213EFC18E3309F49BC188F46A
:104F1000883171F18E3109F4A4C0813009F0DAC111
:104F20008091AA029091AB029093C5038093C40331
:104F3000D1C1893609F4F0C08D3F09F4AFC18A347C
:104F400009F0C8C143C08091A002863009F4C2C1F3
:104F5000809199028093E40380919C028093D40312
:104F60008091A202881F8827881F80939A04B2C16B
:104F70008091A4029091A502A091A602B091A702EF
:104F80008093830490938404A0938504B093860453
:104F90008091A8029091A902A091AA02B091AB02BF
:104FA0008093870490938804A0938904B0938A0423
:104FB0008091B8028093E2038091B9028093E30369
:104FC00081E080938F0491E09A8384C1F090AE02D7
:104FD000F092E10320E030E048EC52E46091A4025A
:104FE0007091A5028091A6029091A7020E948E3B2B
:104FF0000E940C3B6093DD037093DE038093DF031C
:105000009093E00320E030E048EC52E46091A80285
:105010007091A9028091AA029091AB020E948E3BEE
:105020000E940C3B6093D9037093DA038093DB03F7
:105030009093DC03E091D403F0E0E251F64D20813F
:1050400021FB332730F920FF45C1311143C16831BD
:105050007C4F8F4F9F4F0CF41FC1FF2009F41CC1E0
:1050600039C121EE3EE245E652E46091A40270911E
:10507000A5028091A6029091A7020E948E3B0E94F9
:105080000C3B6B017C017093D8036093D70321EE36
:105090003EE245E652E46091A0027091A102809147
:1050A000A2029091A3020E948E3B0E940C3B70933F
:1050B000D6036093D503E091D403F0E0E251F64DBE
:1050C000208120FF07C10D2C000CEE08FF08F7FE21
:1050D00008C0F094E094D094C094C11CD11CE11C91
:1050E000F11C21E5C216D104E104F1040CF0D4C096
:1050F000CB01770FAA0BBB0BB7FF07C0B095A095EC
:10510000909581959F4FAF4FBF4F81359105A10578
:10511000B1050CF0C1C0DEC08091CC039091CD03ED
:10512000A091CE03B091CF038093BC039093BD03B5
:10513000A093BE03B093BF0320E030E048EC52E4FC
:105140006091D0027091D1028091D2029091D302ED
:105150000E948E3B0E940C3B6093CC037093CD0366
:105160008093CE039093CF0320E030E04AE754E4ED
:105170006091A4027091A5028091A6029091A7026D
:105180000E948E3B0E940C3B4B015C017093CB0351
:105190006093CA0320E030E04AE754E46091A8023B
:1051A0007091A9028091AA029091AB020E948E3B5D
:1051B0000E940C3B6B017C017093C9036093C80390
:1051C00020E030E04AE754E46091AC027091AD0217
:1051D0008091AE029091AF020E948E3B0E940C3BE8
:1051E0007093C7036093C603E091D403F0E0E251EB
:1051F000F64D308131FB222720F930FF6BC02111A1
:1052000069C0889CA001899C500D500D1124CC9C34
:105210009001CD9C300D300D1124240F351F669F59
:10522000F001679FF00DF00D1124B9016E0F7F1F83
:10523000072E000C880B990B21DC81349F4108F468
:1052400049C02AC020E030E048EC52E46091A4025A
:105250007091A5028091A6029091A7020E948E3BB8
:105260000E940C3B6093D0037093D1038093D203D0
:105270009093D303E091D403F0E0E251F64D208106
:1052800021FB332730F920FF25C0332319F1693C76
:10529000710581059105F4F007DD1CC080919C0229
:1052A0008430C0F4EDE9F2E0AAEEB3E082E30190CD
:1052B0000D928A95E1F710921C0446E050E06DE3F0
:1052C00074E08AEE93E00E94A03A892B19F481E001
:1052D000809394040E943938811120CD8AEA90E0AD
:1052E0000E949F331BCD8A812296E2E10C94AC3C54
:1052F000CF92DF92EF92FF92CF93DF9380918C0455
:10530000882331F0FADC90918C0490939D046FC057
:1053100080919D048111F6CF0E943638439A2D9AD0
:105320000E9434336B017C0124E6C20ED11CE11CC7
:10533000F11CDAEFCFEF24EC39E040E050E060E020
:1053400080E00E9429346F3F71058105910509F0C5
:1053500064F4662351F06C1708F4C62F0E943433AE
:10536000C616D706E806F90610F0D15021F7CF3F50
:1053700019F4C091000102C0C0930001CB3078F055
:10538000C33190F0CD31A8F0C832C0F0CC33D8F0A2
:10539000C639F0F060EC72E180E090E01DC060E0A2
:1053A00072EC81E090E018C060E071EE80E090E087
:1053B00013C060E076E980E090E00EC060E870E73E
:1053C00080E090E009C060E07BE480E090E004C011
:1053D00060E875E280E090E00E94F9372D984398EC
:1053E00081E080939D048091970481118BCFDF91A0
:1053F000CF91FF90EF90DF90CF90089580E0C6CBE3
:105400000F931F9383E291E00E94CD20811111C080
:1054100063E874E083E291E058DB20919F013091D2
:10542000A001890120E030E060177107820793072F
:10543000E8F08091330190913401A0913501B09151
:105440003601892B8A2B8B2B81F0809161049091FE
:105450006204A0916304B091640480935D0490930E
:105460005E04A0935F04B0936004C8DF0E94F71B42
:10547000809164008860809364001F910F9108956B
:10548000CF92DF92EF92FF92CF93DF936AE871E0C1
:105490008FE994E00E949538CBE2D1E0C12CD12C69
:1054A000760128E831E0B701A60186E891E082D9CB
:1054B00049915991699179912AE030E08FE994E01E
:1054C0000E9459358FEFC81AD80AE80AF80A8EE107
:1054D000C816D104E104F10421F7CFEFD9E224E8A2
:1054E00031E0B701A60182E891E064D9FE0165913F
:1054F00074918FE994E00E94C0348FEFC81AD80AE3
:10550000E80AF80A239684E2C816D104E104F104FB
:1055100031F76FE771E08FE994E00E949538DF91F1
:10552000CF91FF90EF90DF90CF9008952D9A0E9439
:10553000651A2D9808950F931F93FC018081918126
:10554000A281B3810097A105B105A9F00091610482
:10555000109162042091630430916404081B190BBC
:105560002A0B3B0BAB0160E070E081E04017510774
:105570006207730708F080E01F910F9108959B0167
:1055800040916104509162046091630470916404DD
:10559000420F531F611D711DFC01408351836283C3
:1055A000738308950F931F93FC0181E000916104C0
:1055B0001091620420916304309164044081518110
:1055C00062817381041715072607370708F480E006
:1055D0001F910F9108958F929F92AF92BF92CF9299
:1055E000DF92EF92FF920F931F930E94343300914A
:1055F00065041091660420916704309168046B0182
:105600007C01C00ED11EE21EF31E99E288E10FB6A6
:10561000F894A895809360000FBE9093600088EE88
:10562000882E83E0982EA12CB12CC701B601A501CC
:1056300094010E94333C60916701709168018091F0
:10564000690190916A010E94F13BA7019601261B16
:10565000370B480B590BCA01B901A50194010E94EF
:10566000333C20936104309362044093630450936D
:105670006404283532404105510508F457DF0E9483
:10568000DA1E9C0190938104809380049091980489
:105690002B30310508F04AC010929704992389F104
:1056A00080919904882309F41DC46CE370E08CE7B1
:1056B00094E041DF882309F415C480919A0488237B
:1056C00009F410C46EE170E088E794E034DF8823C9
:1056D00009F408C41092930480918F0481110E94F0
:1056E00084218091610490916204A0916304B0913F
:1056F00064048093700490937104A0937204B09337
:1057000073046091610470916204809163049091CC
:10571000640428E037E040E050E00E94333C672B0F
:10572000682B692B31F5CFD8CED823C081E0809388
:10573000970420919904211112C040916104509165
:105740006204609163047091640440937C045093FC
:105750007D0460937E0470937F048093990491117B
:1057600008C010927004109271041092720410928A
:105770007304809197048093980480918C0488230B
:1057800009F43FC071D70091E5031091E603209121
:10579000E7033091E803DC01CB01801B910BA20BE6
:1057A000B30B853F9140A105B10558F180919A0452
:1057B000882339F1109293048091610490916204DE
:1057C000A0916304B0916404809370049093710479
:1057D000A0937204B09373046DE371E08FE994E0D9
:1057E0000E9495388FE994E00E94BD340E9465388C
:1057F00080918F0481110E948421809197048111EE
:1058000023DA80919A04882309F473C080919B0461
:10581000811155C010927404109275041092760490
:105820001092770410927004109271041092720416
:10583000109273048091610490916204A0916304BA
:10584000B09164048093780490937904A0937A04CF
:10585000B0937B0480919704882319F081E08093B2
:10586000930481E080939C0480913A04882349F05A
:1058700088E0E3E8F4E0A3E2B1E001900D928A95BC
:10588000E1F78091CC039091CD03A091CE03B0912C
:10589000CF038093C0039093C103A093C203B0933E
:1058A000C3031092A40366E371E08FE994E00E94C1
:1058B00095388FE994E00E94BD340E94653880914C
:1058C0009404882309F43FC06FE271E08FE994E00B
:1058D0000E9495388FE994E00E94BD340E9465389B
:1058E0001092930481E0809395041092940488DDD3
:1058F0002AC080919C04882331F16EE170E088E732
:1059000094E019DE811103C010929C041CC08091A8
:10591000610490916204A0916304B0916404809347
:10592000740490937504A0937604B093770462E2B4
:1059300071E08FE994E00E9495388FE994E00E942D
:10594000BD340E94653880919A0480939B046091D5
:1059500053017091540184E794E0EDDD882329F12F
:10596000109293048091610490916204A091630469
:10597000B09164048093700490937104A0937204B6
:10598000B09373041092740410927504109276040C
:10599000109277046FE071E08FE994E00E949538EF
:1059A0008FE994E0EAD70E9465386CE370E080E705
:1059B00094E0C1DD8823A1F023DD6EEF70E08FE974
:1059C00094E00E9495388FE994E0D7D70E9465381B
:1059D0001092700410927104109272041092730469
:1059E0008091550490915604A0915704B0915804A9
:1059F000892B8A2B8B2B09F070C08DE594E0D2DDCA
:105A0000882309F4F7C06BEE70E08FE994E00E9400
:105A100095388FE994E0B1D70E9465388091610490
:105A200090916204A0916304B09164048093550442
:105A300090935604A0935704B09358048093450460
:105A400090934604A0934704B09348048091370193
:105A500090913801A0913901B0913A0180934D04A1
:105A600090934E04A0934F04B0935004609141046E
:105A70007091420489E494E082DD80913F0190912D
:105A800040012CE3289FB001299F700D112481E56E
:105A900094E075DD2091430130914401409145012E
:105AA00050914601ACE3B0E00E94863C0091510465
:105AB000109152042091530430915404DC01CB0125
:105AC000800F911FA21FB31F80935D0490935E040B
:105AD000A0935F04B09360048DC085E494E062DD20
