:100000000C942E150C9401190C9456150C9456153D
:100010000C9456150C9456150C94DA1E0C94B818C2
:100020000C9456150C94C9180C94E5360C9449366A
:100030000C9485370C9456150C94941E0C945615FC
:100040000C9410330C9456150C945E160C94841674
:100050000C9456150C9456150C9456150C94561574
:100060000C9456150C945615C726CB26DD26F7267C
:10007000E92601270B271C2732275A275A27463003
:100080004B303A30D1306930B4302030203020301D
:100090002030673077302030203020305E31203003
:1000A0005B30563020302030433020302030593003
:1000B00023636F6F726420666972737420706F6956
:1000C0006E740023736B697020636F6F726400231A
:1000D0007361766520636F6F726400234D41564CE7
:1000E000494E4B20636F6F726473002374696D65B2
:1000F0006420626561636F6E20696E6974002364B9
:100100006973636F6E6E656374206C6F636B00233D
:1001100064697361726D20646973636F6E6E656389
:1001200074002364697361726D206C6F636B0023CC
:100130004372617368002341726D656400234D4111
:10014000564C494E4B20676F6E650023666F756E87
:100150006420454520636F6F726473002347534DDD
:10016000204F4B002362616C616E6365206661699C
:100170006C002347534D20696E6974204F4B003E3D
:100180000A0053003D0052003D005B434F4E46497C
:10019000475D0A004552524F523D000A0053656EBA
:1001A00074204F4B00534D532074657374004552B7
:1001B000524F523D000A0023726573756C74203DE6
:1001C0002000303132333435363738393A232E2057
:1001D0002A0020000D0A00302E3139004368757462
:1001E0006521004372617368210023454550524FD9
:1001F0004D20777269746520646F6E6521002569F2
:100200002E2530346C750023746F6E6520613D259A
:10021000640A000500064007010A050B120C150DC3
:10022000FD0E00300079007A057024711272087397
:10023000007400357A1D402A143655375538553923
:1002400055002B435553443A0023220041542B437D
:100250005553443D312C22002B4353513A002B433C
:100260005351002B434D47533A003E002200415466
:100270002B434D47533D22002B434D47443D310016
:100280002B434D47463D31004552524F520023000B
:10029000415400233E20415400232077616E743A7C
:1002A0002025530A003C20002B4346554E3D312C5F
:1002B00031002B4346554E3D31002B434E45544CA7
:1002C000494748543D31002B4346554E3D30002BA5
:1002D000434E45544C494748543D30002B43504F02
:1002E00057443D3100444F574E002B434E45544C2C
:1002F000494748543D30004530002B4346554E3D5C
:10030000312C31002B4343414C523F004343414C7D
:10031000523A2031002B435343423D31002B434698
:10032000554E3D3100453020563120583120533054
:100330003D300000435245473A20302C00327C8942
:1003400000EDD968770000005900000000000000AF
:1003500000D69FDCA81817AA90437327F6B968ED5A
:10036000F4DED409FEE61C1C84DDE80B992927D6AF
:10037000DF8D210F036418EFEE1E99B78252769439
:100380001500347C000026149E988F0000006A310E
:10039000168F8C059600E7B73F360000000000007E
:1003A00000AF669ED0385D8A6C20B95422007CED87
:1003B000044C80387486EDCBFA57CBDC19E2001D73
:1003C000DF5506E5CB01C30000000000000000007F
:1003D0009AB20086DBD0BC5416131586004E44BD7D
:1003E0007F6F151590010000B50000000000002F80
:1003F000000034E50000000000000000000047009D
:1004000000000000000000000000000000000000EC
:1004100000000000000000000000000000000000DC
:1004200000000000000000000000000000005A0072
:10043000000000000008CC31AA2C532E006372612A
:1004400073683A00236368757465206F6E006342B9
:100450006561636F6E20000700080009000A000B49
:10046000000C000D000E0010001100130015001705
:100470000019001C001F002200250029002D003259
:100480000037003C00420049005000580061006BFA
:1004900000760082008F009D00AD00BE00D100E616
:1004A00000FD0017013301510173019801C101EEF4
:1004B00001200256029202D4021C036C03C30324DF
:1004C000048E04020583051006AB0656071208E0E9
:1004D00008C309BD0AD00BFF0C4C0EBA0F4C110714
:1004E00013EE1406175419DC1BA51EB6211525CAD8
:1004F00028DF2C5B314B36B93BB24144487E4F710B
:10050000572F60CE696274FF7FFFFFFFFF02040672
:100510000843039D037B03C702800491029D03FDF2
:100520000358046C048726EA226F1FA81C2818971A
:1005300015FA11FD0DA50939050400000064080035
:100540000064617461000500000002100080FFDF9C
:10055000DAC0F1E999743601DABC9B0832442432DE
:100560001080DBEE9A0910313433128098CEBE9A97
:1005700008204335221088B9DDAD9980114433122B
:100580008190B9DFBB8980214524110888B9DDBB82
:100590008908304534118090B9ECBBAA0820644327
:1005A000210088A9EBBC9A8910523523110899DBE8
:1005B000CDAA9908305533120088B9DDBBAB8A2823
:1005C000633514110898CACCABAA88205524221090
:1005D00088A8DBCCAA9A88324633130198B9CDADEE
:1005E000AB9908433633130098CACDBBAC8910537E
:1005F0003523128098DACCAC9A89205443220180AA
:1006000099DACCBB9A08413534220188B9CDCCAAFD
:100610008918523433128198DADCBBAB88315533F8
:10062000230280B9ECBCBB8918533533120089CB47
:10063000CECB9908316333130190BACEBC9B88218D
:100640004434230280B9CEBCAA009E47001832551C
:10065000322219C2E0CAAB9A52192216120098CC63
:10066000AC9A083124332411A8DCCB9B88212225A5
:10067000333301BDCEAA892024335391C0D9A98C2C
:100680001822223268108ADDA9091014143188BAA0
:10069000ADAB3AA017231121CA8E0CD09020378819
:1006A00020A0CCAB1830425323AAF9BD8821235394
:1006B0001490F9AC8A30523322B9DEBA094144129F
:1006C00018CADC980842240080CC8D881044018030
:1006D000C0DB090860138000BD8C8010270008D89B
:1006E000AB8080640180A09E098851130808BF88F0
:1006F0008040240808FA8A0828268000E98A081819
:10070000260008D88C0808358180C09E08083581ED
:1007100080B0AF080844010898AF08086301089842
:10072000AE888063010888BD898072020888CC8900
:100730000060038880EB8A8041158808D98B882166
:10074000278019B99E88102681005741006AFF8AC8
:100750000840249009C09D881036009A92FB8900B9
:100760006102A02AB0AD09203682C938B9AD09505E
:100770002580CA12C89B09611480BB23DAAB0871BB
:100780001488AB32C99C09501580BB50A0BB0948E6
:100790002780C93982CB8A084601A88D23A8BC804E
:1007A000501508CA3984C98A88720288AD3193DA33
:1007B0008A807301909D4001BA9B80720388BC3887
:1007C00015B9BB88402780B98A5381CB9B806114BF
:1007D00090B9194280ADAB0861159099093291EC3E
:1007E000A988202781980A2111DA9E89085104914D
:1007F00088180190DC8C8A1872228088088190EC1D
:10080000AB990873248188080888CABFA9083157A2
:10081000018888088880FA9C8918720400898808F1
:1008200000A0DE8A881047018899892020B8EF0946
:100830008840150098BA083312C8EF80806102081A
:10084000B89C18430198CF800800A9540026088856
:10085000CB89202500A8BF8080730180C89B1832F7
:100860000591E08C8880360008CA9A0842130089F6
:10087000DF8880511308B8CB89202403A1F08E09AA
:1008800018430380AAAD89112403A0F99C090044F0
:100890002308A9CBAA104213A099DCA989304623CA
:1008A00088A998A9A980000012B1ADAD8A40351180
:1008B000232291A9CDBAAAA800211310A710198349
:1008C000821C9C0A0434581BA0F2B083F34A90386F
:1008D000A9125B0F028A308AC5A182C38902B8556A
:1008E0009B913A2C7D983A81A0B2D4B19780001A9E
:1008F0001A792A8889181EA310E389A780A2802864
:100900005D2A4B1B3A08C201F2A281C2A390302299
:100910009F40880E0399211F884888A87BA995913C
:100920001B07AB83B3A2109D11421F281D309A09EB
:10093000A297A995B022B0791A093B820AE2C408AD
:10094000C30191102C2A203E0A00FC3F00B312A0E4
:10095000BA7D004B280D4A10A8C893E493B4A05068
:100960009A88425B3B0CA8B2031A9097803AA11870
:10097000918C30A020C93A20BA097193A2234B5D13
:10098000E011A198003899F18088181919808080A9
:10099000808008800808800880080808080880808F
:1009A0008080808004040000003B080000646174C3
:1009B00061000500000003010077FFFFBF47B90198
:1009C000AA53900AA1EA72939BA8CC2E578808BE1E
:1009D000208410919E210001B800BE28033084AD10
:1009E000300211C9CD09112034B80A240190ECBCA1
:1009F00018015113A9411100B9FD9B000073810832
:100A0000210090B9CF8B0018458110020088CBEDF2
:100A10008A0800630210028098CAFB9CA06708093C
:100A20008898999900184314108190AAA9CDAC898F
:100A3000804245120100A99A9CCD9B881073241115
:100A40000190E910ADBA89084254121000A9AADA3F
:100A5000BDAA18483613021199BBFBBC8B1A20653E
:100A600013812289A9DCBC0B09214612028180B8BE
:100A7000BFAD8888417300018181D9BD9900087399
:100A800011681880A8CE88808141030011049AFF64
:100A90000901183090012492DF8A300139A3AB5646
:100AA00000E99B20230081BD6282F88A2003008038
:100AB000AD5380BD0800BE4E00160080BC6281AE02
:100AC00008231010FA3903DC08220011E93A04EB7C
:100AD00008228814D93A84BC10032A05EA48819D6B
:100AE00020B25882CC42B00C21A963A00D24DA18A0
:100AF000813A15CA4982AC00907181AB3192AE0047
:100B0000804490BB52A18E001805A08A32E00B8071
:100B10006802A90A15E908885280A83B04BC90180D
:100B20002680C94892AC98301581DB51A0AA893142
:100B30002590AC34A99D093115909C24A8AD0830AE
:100B400015908B2498AF092015809A2390FB0C18E0
:100B50004310AA4001D99D083123A08915A8EB8B29
:100B6000297300882008B1FBB91033139159081874
:100B7000BD8F193082A296B2B4A29C5B4B1A290297
:100B800038102E8998D8D0A48292A1334BB0491F37
:100B900009398B00480883E3D2A3B193A07A0A7A7B
:100BA000093A8900B8B5A380989400007B1B3A0AE3
:100BB00069C993D49300034400A001B191C4114BBF
:100BC000998180218C088108AB9738F2818090410F
:100BD0003A9D402C6A2B199AA780B1D492B308A2EF
:100BE000309A7A1A184D1B104D8A921099D482D3DC
:100BF00092B28021997C8A1018192B90D197888005
:100C00001011AA5D89383B2DA801E483C878C0A5DE
:100C1000080928889983213E8988C32189B28B04D9
:100C2000598980E112099F8AA21703012109EFABBC
:100C30008A411782A898214201CAFF891041128077
:100C4000999900184301FBBF08312600A89A891022
:100C50003304F19F8920440199AB0911313120FD02
:100C60009D08401580A9AA0031113048EF99005124
:100C70000380BB9A2122103878FC9980411480B9F6
:100C80009A1001819185C69C0A287301889A09816E
:100C9000C0900306C28D1B082314181880B9AE89B2
:100CA000105223FACA89282414110098BDBA886208
:100CB00033AEC9884800EC4B0032110180DBBC8A9E
:100CC0005143EAB809393315121098CDAB086302C5
:100CD0009FA9803142121200D8EB991024D28C0BBC
:100CE000881522310180CBBE892125F28A1B192368
:100CF00014220180EBAC8A2225F29A0A19142331BE
:100D00001190CCCC891224D49B0B0915234100816E
:100D1000DACB99205203AFA9903332331382EBCC54
:100D2000AB813345C19D0A091333431281DACBCA23
:100D300009303487D88A8A1804234210A0CABBAD70
:100D400001315590DBA9093033343311CADBAC9C37
:100D500001335588DBA9092042422201A9DBBBDA15
:100D600019415284B9ACAA103135242288ABAEAAFD
:100D70009A9B21376381CABB9A193235352290BAC2
:100D8000CCBA9C083346828F9AA01331300403BA40
:100D9000CBBB899819B040733413C0CC9C9B804363
:100DA00044331298CBCBBBB988124143221319B8F4
:100DB000CCABBCB86000F83C00223321A9FABEA934
:100DC000085243221280CACBBB8B901003255121BD
:100DD0008188ABCF9A8841131411089AAABA2C0CB7
:100DE000812238320F8800880088008800888000BF
:100DF00088008800888080800008080804040000BB
:100E00000096070000646174610004000000FB0AA2
:100E1000007F77975A40CC93A68832F13B81B85136
:100E20002A5B2D11D990B5C295184A2B3F181D1079
:100E3000A8D3B6A282183C4C3B1A89A3F3A4A229DA
:100E400018918AA0510B582A3F0A28C0D4C3A393F3
:100E5000293C292E588B1991F194A288102A49888F
:100E60000C8093D3285B2A5B0C01B0D393A2195B4F
:100E7000950E20880AA1C5941929A20909B1441C1C
:100E80001B81592C1AD092B418A3C802F8850810F7
:100E90008C582B192A28D082C1C2930000291E9099
:100EA0001852CC33AA39510FA309D391B3A31849CF
:100EB0002E4A2BA000B1B49288A23028EB481888A3
:100EC000202F1B93C2F392111A1B204F8A92C2A2A9
:100ED0001198024C8909001A101C59BA8588E782BA
:100EE0008090816A2C1908A080A3B2201E021A816A
:100EF000F9B592B4004B291A7D1B189881D2A391A1
:100F0000B201C1143F9A041CC22099122D00033271
:100F100000F092D6A30881381E003B4B90199A9797
:100F200008290AA50A9239F6A2A399855A8A103A85
:100F30002D3BA41B399AB61091C191939883E391EC
:100F4000204F98923C391F9110B09013C9842D30D6
:100F50009B28B229C7B1C341911B093F7A0A390BBB
:100F600029B1B1A793F3B3B223910F2A494B2B8B2D
:100F70007809990002E3A3C1948091085C9A5B0010
:100F8000207488CAB8DC1844140290FA8F88005282
:100F9000118088C8AD08087103808808DC8A084879
:100FA00016009888C1AC88807482808918AD9A0830
:100FB0006806809980E3A909085581901B38DBAA4F
:100FC00080402708C800818D0B087102809C11C2E7
:100FD000C988004581981D11A9BB80402780D82968
:100FE000219B9D08400680D910119B8C09611388B4
:100FF000EB2002AA8E08500380CC1112AA8E084062
:101000001498BA5011CA8C08600290BB50007252FA
:101010000018DD89806381A88B5281F09A8041039A
:10102000A0BA412388EF88103201A988322399FFA2
:101030000B1842018888202298FF0A183102801874
:10104000182190FBBF08211481008181019AFF8B38
:101050001032130010009991F8DF080033020010DD
:1010600088A990F0BF09203483811188CB80C2EF1A
:1010700009003313182088DA1C38FB8D08121581FB
:101080000100A8AD3948BF88004042000180C9ABCB
:101090001932F49B0B195324220098BA8D08F18D54
:1010A0000A084324120090CAAC8882BF9980424546
:1010B000210080B9BC0C20F18A0A2963140200883F
:1010C000CBAC1931FAA9883854230200A8DCAB292B
:1010D00041E18A8B183426211888CABC9B3153F809
:1010E0009989284315020088CBAD8A3142F0990ACC
:1010F0002943241200A0CBBD9A2034A48F9A8823C0
:1011000035221090AACEAA084133F0AA8A009B4447
:10111000007343220181B9CCBC892135B39F8B89EF
:101120004334220180BACDBB89304502AEAA984231
:1011300053220181B9BCAD8A186222F8A9892953CA
:10114000232210A8CBCCAA98103354819FAA98438D
:1011500043220291B9CCAC8988113843F9A9896935
:1011600033140210A9DACAAC9A89114444221190AE
:10117000DADC9B89185334221088BACCBBBA9908A0
:10118000224525241188B9EBCA9A8A0930353424BE
:101190001208BACCAC9BAA18213525231291C9ACF0
:1011A000BB9CAA81304334343118B8DC9BBCA89076
:1011B00011583316122099ABBFBA1819131713918F
:1011C000098B8E90081C298A3283979620990AAA47
:1011D0002A3A080D43A620A88AC0BBC884B3780960
:1011E000520A940808B2808080808080808080804D
:1011F0008080808080800808080404000000C20607
:101200000000646174610004000000010200F0F756
:10121000F7F27F4B2B89929100A0B2A5A18108C360
:101220007E0BD394004C2B08C1C3B4A3301D08B26D
:10123000382E3A1AD2945A2CB8A6014B3CA8D3A502
:10124000003A2BA8B6B3305E2B89D2B5824A3C89CE
:10125000C2B4014A2B09B1B5824A3C0AB2C4822801
:101260001C90B282793CD8C6025B2C98B492284C70
:101270002BA8B59200291A098088E4B3027B3B0AA7
:10128000B1B592492C88B2013B2AE1B581180849D1
:101290002DA8B582294B0AD1C6025C2BA8B4826A5C
:1012A0001B88B2B4113B2A99C4A391791CA1824B2B
:1012B0000AD2833A1B29208CE5A30189C4214E2C34
:1012C00098C3A3383B0BD3822909A1814A1BF3B5EC
:1012D000203BC8A591384F1A9881182AD1B401082B
:1012E00098D3947A3D99B4824A2BA8C482398A92C1
:1012F0006A2B99D582390BC294494D99B2012A1AA9
:10130000A484100AFA9928780181005056000089B7
:101310009F80816308A89195C00C082087800B5995
:1013200080CC80006380B8A816B80D084003809C6C
:101330005981BC88103581C89925D98A08611188DE
:10134000BB4083AE89101681A88C52B0AB087812CE
:1013500090D91814D999806310898D2084DA88185F
:101360002580A98C5281BC88201790C9096280BC55
:1013700008200680CA096200EA88101500BA8B614D
:1013800012A89F08518298AC102481F88A182580F1
:10139000BA0B602108BE80200690D908311209AF2F
:1013A00009400390EB80320208BF88400490CA09CC
:1013B000421209DD88201491D989211490E08B18FC
:1013C0006210998C19520019CD88111481D8991185
:1013D000148088AF09302400BBAB320781A0AF88EE
:1013E000303400BA8D10330008FF88003302A8BBE8
:1013F00009420292F09F08313380B99C283120893C
:10140000FF9800421390A99B20300024490090DAF5
:101410009D8831351298B9999180009BBF8A1863D5
:1014200053008888A0D2B298090A894968598A303D
:101430000AB1849B08D78208388F95810A3A3A1BF3
:10144000A0940E8287191A8EA79208083A2B0819C1
:10145000290C203AD0019097C2294F3A19FAA49446
:10146000180A19081888A1103A4A085CB984D03CB7
:101470009401081B0C5C0CA78188801808199068DF
:101480001BC8833A11B991810A087128F881393B48
:101490001AC0B412B8838A98315E291BB120DAD6FB
:1014A00095980129181A2DB148B12FB393B2085B52
:1014B00099A36B800929D8831AB35B390C1808B338
:1014C000018AB3B3078C699029092A8A7B98820222
:1014D0003E8980B0D611B101A1208AC0833C4BB8AF
:1014E000B4C37B10A0A2B28B8580D0306CA0A0B218
:1014F000B780820AB2408B80D0874B190A82E00302
:10150000AA87929A401C492D08C800003100003972
:101510009B6D88E192828993972C392E182A2A2D67
:1015200090C4A2B2D6A3A2A30A5909581C5C0919F7
:1015300019A080F816A098B08302BA3981223F4ED4
:101540000819288E94B1850A901AA618193C008BA8
:101550002A28B4A4E011B085E11893B188222E6F37
:10156000B8084229A0DAB018210942920293DB8020
:10157000B1D4004A48088C081B8280808000880013
:10158000088880000888800088008800080808080B
:101590008880808080800404000000AB0400006428
:1015A00061746100030000000009003F3F7FC9D65D
:1015B000F09F7E96B2D1A000283B2A0A18323781CC
:1015C000C8CD891135128188DF8A083026008899B4
:1015D000FA89880154018889A88F09085113008A63
:1015E00088FB9A802127019889B89F880063120898
:1015F000AA81EC9880312681B819C09D091864022F
:10160000889B01F99980302780A82B819E8A0073DE
:101610000290CA21B1BC09284701998D13C8AA08B4
:10162000501580BA3C04C99A08720290DB3083CA14
:101630009B006500A8AB6101CA99103580D90A5199
:1016400081CA99201680CA096280CA09201588CBF0
:10165000085300EA09201498CB002401D90D28234F
:1016600088AC19430198ED084181A8891122289876
:10167000FF083281AA0921123898FF094380AA087D
:1016800012811083FF895281B90812008822F98FD4
:101690003013B90B3282BA3015FB0F4181AA1822E0
:1016A000A09A4183EF0843005A5500B9093390AC22
:1016B0003023F08F2004C8093280BB3814B1BF1822
:1016C00017A08B4181B91A4300FA8B7101BA182314
:1016D000A0AC212390EF085280AA2813A89C3013B5
:1016E00090FE084200B9192291AC193481FA0E30EB
:1016F00003A09C3012A98D482289CF803383B8BAC9
:101700001114A0AB30529ABF19521291A99981912C
:10171000A0808080A91A4B5031302009BA90EBCBC1
:101720009001A180201584A2021D10A08E00282AFD
:101730000308F8890088E44819A0328B80003E3FF6
:1017400089A238C3FA864A0BB2A281A74AC03900DF
:101750000B4AA31F949808A399072E08908038B8C5
:1017600002E401901820BA6F1A08089A050AB3C358
:10177000D1059B84A8130C2A81182AA27E800C8094
:10178000818109A2B2C24831CF9798719080AADBBB
:101790000102000680A2943A2E8B20B06C8818912A
:1017A00019A08800CC95A1000235003D0E8598D186
:1017B0008120C2A030097AA03A191A828A12C1A1E6
:1017C000D7A0148A8110AC2923CA97B012011F4BED
:1017D00081094B0C048A3085C0F981081029598190
:1017E000A948181F88A094A5B1834A2C8C9096C351
:1017F0008289393B8939591F29A0B1C458E208228E
:1018000028B8ACA029881927080808800808808013
:101810000808800880800880088008800880088088
:101820000808080880808004040000007608000092
:10183000646174610005000000FF2F00F4F87498E3
:1018400099880830188008A099A02308B5B6A41973
:101850000B5A2A112E2B195B1AB0C295C5A210F093
:10186000925808D19108A1826A5D4B8AA1A2011801
:10187000980028F1B2D692102A28293E3E8AA2A3C7
:10188000C4C37B818988092008B2F2110928490B59
:10189000D8D494102A3B3B3C2B5A3D8AC5B3B4D3D1
:1018A000A2A3011A113E5B3C3B8AA28190B2D59360
:1018B00028B9C383302E3A2E1980B1D5B3B3117A2B
:1018C0003B3D3B0AC20190D38208F2C4A3103A4CBC
:1018D0001B98A2125E3C3A1BA0C49280B2C293B283
:1018E000D5B492384E3B1AA8B3036C3C0A900199C8
:1018F000C3B5B3B4A2205B2C09A1B392202F09B2C7
:101900008298794C1BC192206C1A89D2A40088C29B
:10191000B4A481283C0D1A5A49288090E8AA98114D
:10192000551280A9FA9A081055018888BA8F0900C3
:1019300044029098B99F091800DA5400230089984E
:10194000FB890848340099A0F98A093046808898B4
:10195000D99A08203781A098D88C09204582989878
:10196000C88E881044829089A99F8800440390996A
:1019700099AF98004404800A8ABD98807314080ABD
:101980008AFA908030350899C0C00A1A294583A088
:10199000090C8AC0A8302301141201C8DCAC9A10CB
:1019A00042531312A8CBCD9A881153330381DACB5B
:1019B000AB892042532200C8BACA9A0932342402A1
:1019C000909BAEA9A81824313321C8CACB808D8042
:1019D000638131B101DAD8191E010138121CA0D27D
:1019E000A0805A19808384F389293D1B205AA0586E
:1019F0008B02D891F4A5A0B5E380F779188B819973
:101A0000A387090AB08618391D180909F1A7A21879
:101A10002B19A281493C2AA1C5A1893A6829190834
:101A2000E3D3A0991071310098CF890840068180D6
:101A3000E88A0A2871118890001D50008F8818517B
:101A4000028098F989881054008888CC98802117E2
:101A50008188989E880831070088B89D881861039E
:101A60008090D89C880072028088D98B891074017C
:101A70000898D98A881064018888EA8988105401F6
:101A80008898FA98801044018889FB8908103501EC
:101A90008898DC99882046018898EB998010550039
:101AA0008098DA99092864028898E89A8810720266
:101AB0008088B99E09085215088998AD9908314760
:101AC000008998E999802854829098B89E89187264
:101AD00013809998CC99882147019889C89B0B2934
:101AE0007316088A88D9A888104682908A88AD998A
:101AF00088511781A888989C9A08721580A88888B0
:101B00009C9B88414700988989B9A99938478100E9
:101B1000118898A9DABC9B08525323210001CDBD3E
:101B2000AA990116140492020D290F8C8A08212605
:101B300002809899A0E8DA8900B35000002304815C
:101B400089990880DCAC092874038098A901A2FB5C
:101B50008D092864118899891091CD9B094037011E
:101B600090A99A1283FC8C0920360288BA9A211413
:101B7000EAAD8810550288B99B3033B0EF89006216
:101B80000380A9AC183302FA9C08303600A8DB8920
:101B9000222391FB8D08422380C99C19421108FA27
:101BA0009B00511480A9AC08330380A8FD8A00442F
:101BB0000390CB8B3024809910F98F18510288CA7A
:101BC000893022989902F39F80422288DB0A3013E1
:101BD000A09B4851BF88202582B9AD112391D9908F
:101BE00085D38C19611188BB0A510299AB2286F00A
:101BF0009A004401989D083281AA8A3205FB8B0025
:101C00003601A99D183380BB0A4402FC8A10448126
:101C1000B8AB282590BB193402F98E084302A8AC52
:101C2000183391DB09421298DF88301580B98B4157
:101C300013B9AD283482C9DB00B64D00085312A099
:101C4000C9081392DC396110A8BF185292A88A32D1
:101C500092CB980181898974218909BA9900003849
:101C600025F1BF4002A1810491BB8C2801801102A3
:101C7000F99F5001981012802A1FCF819791183830
:101C8000298B9A911108088800880008888000082C
:101C9000880088800008888000880088000808087C
:101CA0000888808080808004040000001005000007
:101CB0006461746100030000000100007F776F4FD2
:101CC0004D3C4B5B2D09FC270C80F301B1A5283C52
:101CD0003A1D292A0188C0B592A29101001C3A3A06
:101CE0007000BA9E9A0863241108FA9D08085311DF
:101CF000080008CF89805804808892F19A8880363D
:101D000000982928BF89807803809902F99A800871
:101D10003780901A009F8A806013089981FA998809
:101D20001054018909989C909801231311012138BE
:101D3000B8FF9E88002042231281C9DE9A881031A4
:101D4000341402000CDD9C888152842011A8CC9DA3
:101D5000092133233390DFAC882027010880EAAAC9
:101D6000890073038008A99F0A092027008880C979
:101D700099AA094134102082B9FBCC892853123228
:101D800001BAFDAA882127011080ACAD8A0873131F
:101D90000080B0DD8A082846810008CB9D888062DB
:101DA000130008C8BD89803047808080CC8A08082D
:101DB00064020808C99D880800904F0055010880FA
:101DC000D99C080860130008A8BF8808283601803D
:101DD00080DC9B080872130008B9AF890838270116
:101DE0008090FA9A080862130880B8AF0A882036F3
:101DF000110890FA9B090852241008A8BE9B88106D
:101E000046120080C9BD8A083037110090EAAC89BB
:101E1000805143010098FBAB880052240100A8DCEC
:101E2000AB890063331200A8DDAC890041251100A5
:101E300090DBBC9A803237030080CABE9A88305546
:101E4000128100A9CDAB89107233010098DBBD9AD5
:101E5000084045128008B8DCAB8900633401800873
:101E6000CADC9A88105423018888DACC9A881055E5
:101E700013818089D8BCAA0928742301889899BE47
:101E80009C89085135128088B9CABD9A991065336A
:101E90000280A0DB9AACAA99286525010098CBABFB
:101EA000A89A9A897346020188B9CC8A9098A909A0
:101EB0007236120088DAAC8A00CC420083B8DC8922
:101EC00074341281A8EBBB0A4101A9CB8963352286
:101ED0000099CCAC89203391DBBB0964342280AA01
:101EE000BDAC88203214A1BDAC1962341280AABCEA
:101EF0008B1092BDAD8963352281A9CCBB8920327C
:101F00002301A89AAA808393BA397B24121210B9AC
:101F1000FB9AAAA187120108D0A199011C8B028209
:101F20007039282F8ABA950102948E01BA51694BF3
:101F3000000BACC6949180101B089080B301280F51
:101F4000002A08242F2A6C4B9F870908080808805C
:101F500008800880088008800808800880088008B9
:101F60008008800808080808808080808080040439
:101F7000000000700600006461746100040000004D
:101F800000040080F07767FBA00EA88F817733A84C
:101F9000FC9B0810422332800192BFCF9A0011525D
:101FA00032221091A9EEAD8800113424018188DA23
:101FB000CF8980103125120188A8EE9B880020442B
:101FC00023020088EBCE8908003234230180A8DF89
:101FD000AC8808115243118080B9CF9B88002154EE
:101FE00023010088DABE9B8810314622010098FA4E
:101FF000BC9A0800423523108098ECBC8B881042B4
:102000004512018098FABC998810413523018098C7
:10201000DCBD9A0918323723118098EBBDAB8818C4
:10202000415423018190D9BD9C9900205433120062
:1020300080AACFBB9A8811734322000099EBCC9AF7
:102040000908324523028190CACDBB8B0920452562
:10205000121188A8EBBCAB8908434523120090CA33
:10206000DCBBAA8930545322010099DBEBAA9A0801
:10207000314533230188CAEBCBAB99285244320057
:102080003146000191B9DADBBA99185162413C85B9
:10209000984CA8D88AA1B45381D3316B0AF00909AE
:1020A000002401090081B0EF88003113A829219292
:1020B000F09F88003103A8311180F09F890021230F
:1020C00089230281F09F8A08113308241100C0BFC0
:1020D000BA8911431154010190ECBA9A1820435364
:1020E000231080CACEAA9910313435110198DCBC76
:1020F000AA09103355131280AAECBB9A88225344C4
:10210000120298BBBE9D99182244331201BADCBD5D
:102110009A88123444220198CBCE9909183235534B
:1021200090A1EAAAAA182034541081A9BDAB9A2024
:102130002337140091FBAA9A083044241090D9AD9B
:1021400099092114270109EB9A9919424152829960
:10215000EAABA8181422262290DD0B9C39423EA639
:102160001208FB88901014B8334098EF109041810A
:10217000AA3104F88B301813D9894480DC08320066
:10218000364C0011FC0A2580EB884380A88C510155
:10219000B88D488398AB301688CC082598AA282398
:1021A00010D88F4081A909140912FC0833A88C317A
:1021B000A14891BF5082B919049923F00C42889B21
:1021C00031912C23FC1905B81A33BA6982AE4883C1
:1021D000BB3084BB53A19E50919B31A29C34B09FD5
:1021E00051B10B32B10D24B89D62B01B32C01B152A
:1021F000C09B73B81A32D01A1498AD61B10B32C1BA
:102200001B3380DD49949B22928D2281E80B17AB12
:102210002012CB301100CF50C21A21B02A8211E215
:102220009E35BC32809A110914F92C960D03080AC8
:10223000813902F92EA42B810189811800A3FF2482
:102240008D8228A02880892001FF33AC8339B128F2
:1022500080890050F15FD13889038B8398082A1652
:10226000FC78C9112AA32B8198982095D82FC639BC
:1022700099148B0209A910120BF46EC8112AA3003D
:10228000EB5200120AC00020B816BF168C9240A86C
:102290001088980A22B863F93AB38828860980889A
:1022A0009B10842A83ED29A2085084099098AC12CF
:1022B000211903CE8D048A1343A8009ACB095388B1
:1022C00022B1EB9F12838080800880800808808084
:1022D0000880080880088008800880088008800836
:1022E0008008808080800808080404000000AF0691
:1022F0000000646174610004000000FF0400F7F74F
:10230000F7C5A491D97FF6210AD1228BB2130CA272
:10231000013FB48838C0A86DC31930E821888910FE
:102320008802FB79B00915AB13A83091CF62BA28A7
:10233000848C12A822E1AB45BB31B31D12AA15C98A
:102340009A279D31D229821C03AC2A978B52D8211F
:10235000A14AA2BB7AD308239D12B041A8DB63BA7D
:1023600010850C129A14AABB379C30E329012B83E9
:10237000AB0F978B61B910A25990AA5DB29934AB9B
:1023800038C222B0FA79A08A079B409811A8FB4373
:102390008A2BA699311928AAAF07B869909A0480A8
:1023A00001BA2F84C932981C129091F959008C13EC
:1023B000C029212A89BF14B22C31BB108680A91FE5
:1023C00022E810838B5881A0F910138E30A1A93315
:1023D000018BBF23B69941880B2392F91D51990AAD
:1023E00002B2804208DF0104A80920280882F80E02
:1023F000300198A901141199DF8000D05200318179
:10240000C8A8321499EC8818401188890101089CE9
:10241000FA8900211131423280FBDC9A09203243D3
:10242000251190C8CCAD8910213425110899CCBD57
:102430009A08215432220098DBDCAB8810524313F7
:102440000290B8DDAD8908213434128098DBDD9A22
:1024500088114143230190B8DE9C8A002153331335
:102460000099EBBEAA08104235138280B9DEBB8901
:1024700008501522128098DBBE9A08204334334A54
:1024800090CAECAA88101355110080C8DA9C8920E4
:102490004141128281E0D9BA0A104342412880B9F1
:1024A000FCBA88114332501119ACCE998011240422
:1024B0001291B1AE8F89103211321280AFAF9800F5
:1024C0003304112118CCCD99004313114818FBDABD
:1024D00098184213002028FCBA891873120828188B
:1024E000CDCA881054828810809F9B8821368188AD
:1024F00001B0BF9A086115808800004C5200BB8A69
:10250000094026819881C0AD89197213080A00FB21
:102510009A881037819818A09F8A084116809901DF
:10252000D8AA89187402880A01EB9A88113602A980
:102530004B01AE9B80313790993280DE8A0841147E
:1025400090892280EE8908311490893200FC8C0831
:10255000301480A81203F89F08103200093921882E
:10256000FF8900111380082110DABF09103204819D
:10257000001100FBAF8881233228080100FABF88D0
:1025800000402202820008A8FD8D09083243120093
:102590000089E9BF898830442300009999FC8E881E
:1025A000182134020088B9A8FD9A88185343018184
:1025B00088CA99C99E89005124130090CAAC88C06A
:1025C0009C89006433210088EBCB0802BD988061B0
:1025D00024221080DABC9941D19A091854132200A0
:1025E000A0CD9C0942C09A0A1835151200B0FBAA6A
:1025F0000831948F998022253101004C4300B9CFD6
:1026000099082202AF99802255118280CAAC8A10A3
:1026100012A19F9A002446100198BB9E891111B106
:102620009E891924361201A8CCAB981101B1AF9A3A
:102630001854441210A9CABC99012120F8AA894053
:10264000632402809ACCB89001288BAFA918444526
:102650001281A0B99C0C1A98A0BBAB1A375631F066
:102660008880808080808080808080808080808062
:10267000808080800808800880800880088008802A
:1026800080808008080804040000000C0600006434
:102690006174610004000000FD0000777757A220FC
:1026A000EB98DC8A3179235091880AD9FB8D081187
:1026B0005313130898B9FFCA09182327210118AA30
:1026C000ECAC8C803254221108A8BDAFAA00214581
:1026D000131100A8BCBFAA08305414118090CABDC1
:1026E000AC88104425118080BACF9A881042260108
:1026F0000080B9CEAA88104226110088A9CE9B0975
:10270000104217010090B8DD8A8801531401009827
:10271000DABD8908115512008098EC9B8900223798
:10272000020080B9CF8A88104116010088C9AE899D
:1027300008107312008098DCAB881041361080902E
:10274000C9AF8908116312000099ED9A8000322602
:10275000010098F99C09081154118080B9BF8908BB
:102760002062230000A9CF9A80104125010099EC36
:102770009A880042150180B0BF8920080471810841
:10278000CABA89411112349180ED9C0932813324F7
:1027900080A8DF9A08430800155400110008CA9D5C
:1027A00009508010230098F99D0851A020128190B3
:1027B000FA9C08539931020099F99D0834A9410106
:1027C0008198F99C1824A9410200A8E89D0834B911
:1027D000500280A0C9AD8855B848010890A9BC0A2C
:1027E00073B23A14088899BE8A70940B238080993A
:1027F000F99A2817AA4181809889CD8873A0290366
:10280000088899EB9A3827AB4300089999AE8A72E9
:10281000B32B05808098C99C8837B948020898096D
:10282000F88B0827B9488200A819E09B1937B938F6
:102830000201C829D09D8854B0290211C03BB2AE14
:102840008A68858B0338819F03AAA88A66A81880A6
:1028500022D8299808AD1937A9182803CB9139F047
:102860009A89579A013B838AE130C9889A73A1916A
:102870003B8608C92189A8BA2A670AB85208A01B52
:1028800081018EA96894901B0420BAB16A98B08C1B
:102890006994811C820288002052000A888098ACCA
:1028A000503096201CA1931B9EA102BB2A142749DD
:1028B0008AB18388CB0A08B8BE147220B1B3102A3B
:1028C0009BEC0018BB8C8527282A9AB2A3980E1A75
:1028D00090D93B508792001B2A91D8B00140AC8D13
:1028E000820702181C0991C0A10038EBCA1172219D
:1028F000089988A2C1890939A9BF1C222793800A97
:102900003A99CAA19101DCAC5B502293A18890BA9C
:10291000890908B1EEDB025332101A8AA9A8B488DB
:1029200098C8AA8C1B4C34523200A80AA491BEBA93
:10293000AF992870220282A0A111DAB80DAB102243
:10294000824A89297008A50502B2F0AA2C4B192ADF
:102950002F29018582B1B4E2A080A0181C30291271
:102960003D0006999A088AA788C3A04889397F7BC9
:10297000892D01C0B4B4B2A29491295B4C1A2A4AA1
:102980000A8880A1B3B591A1A393C28913813C2E7B
:1029900019200A2F192929000137003B3F3A898065
:1029A0001899B2C5C5A4814B5B2A0A00080808081B
:1029B000080888008800880088008800880088004F
:1029C000880008080888808080041C383D43413A0C
:1029D000004F4B004350494E3A2052454144590064
:1029E0002B435245473F002B4350494E3F000100C7
:1029F000030303030303010303030000000003A315
:102A00000110B30110C30110D30110930108E301B9
:102A10002C0102040810204080010204081020014B
:102A20000204081020040404040404040402020242
:102A30000202020303030303030000000023002635
:102A400000290000000000250028002B00000000E5
:102A500000240027002A0000AD2FB92F11241FBE2B
:102A6000CFEFD8E0DEBFCDBF12E0A0E0B1E0EEE4F2
:102A7000FAE702C005900D92A237B107D9F725E019
:102A8000A2E7B2E001C01D92AB34B207E1F715E155
:102A9000CDE2D5E104C02197FE010E94AF3CCC32CB
:102AA000D107C9F70E94BA350C94D53A0C940000AE
:102AB000CF92DF92EF92FF920F931F93E82FF92F9F
:102AC00005C0015011092109310961F19081962356
:102AD0009417B9F305C0015011092109310911F109
:102AE000908196239413F7CFC12CD12CE12CF12C9B
:102AF0000AC08FEFC81AD80AE80AF80A0C151D0593
:102B00002E053F0579F080818623841791F36C2D83
:102B10007D2D8E2D9F2D1F910F91FF90EF90DF90B7
:102B2000CF90089560E070E080E090E01F910F91F9
:102B3000FF90EF90DF90CF900895FA01AA272830F8
:102B400051F1203181F1E8946F936E7F6E5F7F4F7A
:102B50008F4F9F4FAF4FB1E03ED0B4E03CD0670FF6
:102B6000781F891F9A1FA11D680F791F8A1F911D49
:102B7000A11D6A0F711D811D911DA11D20D009F499
:102B800068943F912AE0269F11243019305D3193DB
:102B9000DEF6CF010895462F4770405D4193B3E0C4
:102BA0000FD0C9F7F6CF462F4F70405D4A3318F06B
:102BB000495D31FD4052419302D0A9F7EACFB4E01C
:102BC000A6959795879577956795BA95C9F70097D4
:102BD0006105710508959B01AC010A2E0694579575
:102BE000479537952795BA95C9F7620F731F841FCC
:102BF000951FA01D0895E0917202F0917302CF011C
:102C0000019690937302809372026083E091720246
:102C1000F0917302108281E090E0089580E00895C1
:102C200080E0089580E008950895FC0113821282E7
:102C300024E132E0318320830895FB012081822743
:102C400090E1899F900111242827822F90E0582F2E
:102C500044279C0163E0220F331F6A95E1F7422766
:102C60005327218130E02427352774E095958795F7
:102C70007A95E1F7822793279183808308959C01B9
:102C8000862FB901DACF6CE771E00E945E3C605696
:102C90006093890210928A0280918A028823E1F36C
:102CA00008950C94E03608950E94EF37882329F0A8
:102CB0000E94CA370E94AA38F7CF08951F920F9238
:102CC0000FB60F9211242F938F939F93EF93FF933F
:102CD0009091C600809149058F5F8F7320914A05BE
:102CE000821741F0E0914905F0E0E95FFA4F9083E7
:102CF00080934905FF91EF919F918F912F910F90B4
:102D00000FBE0F901F9018951F920F920FB60F9243
:102D100011248F939F93EF93FF9390914805809197
:102D20004705981779F0E0914805F0E0ED5FFA4F1C
:102D300080818093C600809148058F5F8370809367
:102D4000480505C08091C1008F7D8093C100FF912F
:102D5000EF919F918F910F900FBE0F901F9018953C
:102D6000A1E0B0E0E6EBF6E10C94DA3C7C018B01EB
:102D7000081B190B442361F0C8018E0D9F1D498368
:102D80000E94053DF70181937F0149814150F2CFB7
:102D90002196E6E00C94F63CEF92FF921F93CF93BE
:102DA000DF937C01C62FD72F142F160F1C1741F06D
:102DB000F70161917F01CE010E940D3D2196F6CF72
:102DC000DF91CF911F91FF90EF9008950F931F9384
:102DD000CF93DF93EC018B010E945A33DC01CB01CE
:102DE000800F911FA11DB11D88839983AA83BB8386
:102DF000DF91CF911F910F910895FC0113821282F0
:102E00002FE332E031832083089568EE73E080E0A1
:102E100090E00C948B3360E08AE00E942F34F5DF61
:102E200061E08AE00E942F34F0CFCF9361E08AE026
:102E30000E94F33361E08AE00E942F3461E089E070
:102E40000E94F33361E089E00E942F3461E086E064
:102E50000E94F33361E086E00E942F3460E088E056
:102E60000E94F33362E087E00E94F33388E00E941F
:102E70004F34C82F813039F487E00E944F348111DC
:102E800002C0C0939002CF9108950F931F93CF93E8
:102E9000DF9395B7906295BF95B7906495BF14BEC8
:102EA00090916000977F9093600090ED9093600008
:102EB00083FD02C098E001C098E28770892B98E1F9
:102EC0000FB6F894A895909360000FBE80936000B1
:102ED000A8958091600080648093600083B7817FB3
:102EE000682B63BF9FB7F8942FB3FB983DB31DBA0F
:102EF00040916B0010926B0050916C0010926C002E
:102F000060916D0010926D0070916E0010926E00D5
:102F1000E0916F0010926F00F091700010927000BD
:102F2000ACB58CB58F778CBDB091C1008091C100DC
:102F30008F718093C100C091BC008091BC008E7FD6
:102F40008093BC00D0B780B7877F80BF10917A0094
:102F500080917A00877F80937A0007B787B78F7751
:102F600087BF789483B7816083BF889583B78E7F4E
:102F700083BF0FB6F894A895809160008861809314
:102F80006000109260000FBE07BF10937A00D0BFA0
:102F9000C093BC00B093C100ACBDF0937000E0934F
:102FA0006F0070936E0060936D0050936C004093BF
:102FB0006B003DBB2FBB9FBF809160008F7B8093D8
:102FC0006000DF91CF911F910F91089564E05DCF74
:102FD0000F931F93CF93DF93EC018C01011582E0D7
:102FE000180720F089E0F2DF1250F8CFD0FF02C0BE
:102FF00088E0ECDFC7FF02C087E0E8DFC6FF02C061
:1030000086E0E4DFC5FF02C085E0E0DFC4FF02C068
:1030100084E0DCDFC3FF02C083E0D8DFC2FF02C070
:1030200082E0D4DFC1FF02C081E0D0DFC0FF02C078
:1030300080E0CCDFDF91CF911F910F910895A0E048
:10304000B0E0E5E2F8E10C94D03C4091640450918A
:1030500065046091660470916704480F591F611DF3
:10306000711D4093640450936504609366047093EB
:1030700067049C01A8EEB3E00E94B53C4B015C01E3
:1030800080916F0085FD63C0709064008091640042
:10309000877F809364006090810080918100887FA9
:1030A0008093810050908000C0918400D091850071
:1030B0000091880010918900E0908A00F0908B00C8
:1030C000C0908600D090870040906F0010928000E2
:1030D00010928100109285001092840010926F006F
:1030E00083E08093810060E080E0CFDE8091840007
:1030F000909185001092810040926F00D0928700DD
:10310000C0928600F0928B00E0928A0010938900B2
:1031100000938800D0938500C09384005092800073
:103120006092810070926400880F991F880F991F28
:103130009093690480936804A0E0B0E08816990633
:10314000AA06BB0680F0881A990AAA0ABB0A20912F
:1031500068043091690440E050E0C501B4010E9468
:10316000713CC90135DFCDB7DEB7E0E10C94EC3C32
:103170001F920F920FB60F9211248F934198809156
:10318000BA0381112C9A8F910F900FBE0F901F9050
:1031900018951F920F920FB60F9211248F93419A98
:1031A0008091BA0381112C988F910F900FBE0F90D0
:1031B0001F90189598E04298000087FF02C0419A3E
:1031C00001C041980000429A0000880F915099F781
:1031D000429808955C9A42985C98ECCF429898E0A7
:1031E00080E0429A000026B12170880F822B42981D
:1031F00000009150B1F708958F77ECDFEFDF5C9A14
:1032000008951F920F920FB60F9211242F933F93A0
:103210004F935F936F937F938F939F93AF93BF93DE
:10322000EF93FF93CF93DF931F92CDB7DEB783E089
:10323000E3DF898384E0E0DF8983898186FF07C03B
:1032400081E080933F0486E2D7DF80933E040F90B5
:10325000DF91CF91FF91EF91BF91AF919F918F91AE
:103260007F916F915F914F913F912F910F900FBE82
:103270000F901F901895A1E0B0E0E1E4F9E10C9403
:10328000DE3C80686983A6DF6981862F93DF5C9AC4
:103290002196E2E00C94FA3CCF92DF92EF92FF92FB
:1032A000CF93DF937B019C0140E050E060E271EA44
:1032B00087E090E00E94933CE9010E945A339B0111
:1032C000AC012E0D3F1D411D511D69017A010E9467
:1032D0005A336C157D058E059F0548F4419ACE0141
:1032E0000E94C5334198CE010E94C533F0CFDF91D3
:1032F000CF91FF90EF90DF90CF90089568E572E056
:10330000CBCF66E970E0C8CFA4E0B0E0EAE8F9E12D
:103310000C94D23C83E070DF84E06EDF03E112E0C6
:10332000F8018491882331F00E5F1F4F319664912C
:10333000A2DFF6CF60912F0189E09DDF80918F01A0
:1033400090919001A0919101B0919201883E93409B
:10335000A105B10528F061EC8CE18DDF84E004C0AB
:1033600061ED8CE188DF85E080908F019090900185
:10337000A0909101B0909201082F10E0C80102972F
:10338000A501940104C0220F331F441F551F8A95C5
:10339000D2F760E673EE86E190E00E94713C69012D
:1033A0007A01025F1F4FC501B40104C0660F771F89
:1033B000881F991F0A95D2F727EC3DE240E050E0C4
:1033C0000E94713C6C2D80E22C833B8349835A839D
:1033D00052DFD701C60188279770AA27BB2723E0B1
:1033E000B695A795979587952A95D1F74981682F26
:1033F000642B81E240DF2C813B8149815A819927EE
:10340000852F742F632F82E236DF2C81622F83E2B7
:1034100032DF60E070E880E090E0A70196010E9452
:10342000713C89010E5F1F4F612F677084E223DFBB
:10343000602F85E220DF80902B0190902C01A090DE
:103440002D01B0902E01811428E392062CE9A206EA
:103450002CE1B20650F002E0C12C9DE2D92E91E39E
:10346000E92EFF24F39411E009C004E080E8C82E9F
:1034700086E9D82E88E9E82EF12C10E0C501B401C8
:10348000A70196010E94713C390188E1681A710810
:10349000C701B6010E942F3CA5019401261B370BE2
:1034A000480B590BA02FB0E00E94C43C21E732E04A
:1034B00040E050E00E94713C111102C090E401C054
:1034C00090E6862D8F71692F682B85E72C833B83CF
:1034D000D2DE3B81632F86E7CEDE2C81622F87E729
:1034E000CADE2496EEE00C94EE3C61E070E080E0F1
:1034F00090E00C948B336AE070E080E090E00C94F4
:103500008B33A0E0B0E0E7E8FAE10C94D83C0E94ED
:103510005A336B017C0120EDC20E27E0D21EE11C64
:10352000F11CE6E1FAE2C491EAE2FAE2E491F0E0A9
:10353000EE0FFF1FED5BF54D05911491DC2FD0953B
:103540000E945A336C157D058E059F0570F4F801B5
:1035500080818C2B808380ED97E00E94C533F80139
:1035600080818D238083C7DFEBCFCDB7DEB7E8E066
:103570000C94F43C0E94EF378823B1F065EA72E0C6
:103580008EE994E00E94D33884EA93E00E94F837F1
:10359000882341F00E94CA37682F8EE994E00E9488
:1035A000F334F2CFA8DFE6CF089562E370E080E065
:1035B00090E00C948B33F9DFF8CFA0E0B0E0E3EEBD
:1035C000FAE10C94D33C6C017B01EA010E945A336E
:1035D0004B015C018C0E9D1EA11CB11C10928D0232
:1035E00010928C02D1E0E114F10409F0D0E0439A8A
:1035F000E2DF43986EE872E08EE994E00E94D338EF
:10360000C0E003E912E077DF0E94EF37882309F476
:103610004AC02D9A0F5F1F4F0E94CA37782EF801BB
:1036200031978083F8011082682F8EE994E00E9420
:10363000F334FAE07F1205C063E28EE994E00E9461
:10364000F3340E94EF378111E5CF2D98C1111AC0D4
:10365000B60183E992E00E94013B90938F02809330
:103660008E02892B71F468E872E083E992E00E948F
:10367000013B90938F0280938E02892B19F0C3E057
:1036800001C0C1E0E114F10491F0B70183E992E0D7
:103690000E94013B90938D0280938C02D1E0892B94
:1036A00031F4D0E004C0CC2311F0D11108C00E9445
:1036B0005A33681579058A059B0508F4A4CFC09391
:1036C00092028C2FCDB7DEB7EDE00C94EF3CA0E07A
:1036D000B0E0EDE6FBE10C94D83CD62F609190026F
:1036E0006623A9F169017A01C72F8C0143DFCF93CB
:1036F000DF9389E992E09F938F938EE994E09F9303
:103700008F930E94F03863E972E08EE994E00E94A2
:10371000D338B8018EE994E00E94E73860E972E09E
:1037200084EA93E00E94D338B80184EA93E00E94CF
:10373000E738A601B7018D2F9C2F3FDF91E00F9056
:103740000F900F900F900F900F90813009F090E044
:10375000892FCDB7DEB7E8E00C94F43C20E137E2E6
:10376000B6CFCF93CDE3C150B1F044E353E061ED68
:1037700079E280EE99E2F2DF882369F0E0918C0231
:10378000F0918D028085833331F0853331F08133C0
:1037900021F03BDBE8CF80E001C081E0CF910895CC
:1037A00048E552E061ED79E28EE592E0D7DF8823CB
:1037B00031F080918C0290918D020596089580E001
:1037C00090E008959A0140E050E081CF40E157E257
:1037D000F9CF61ED79E2FACF8FEC92E0FADF87EC76
:1037E00092E0F7DF91E0811101C090E0892F089508
:1037F000AB0161ED79E2E6CFCF93C9E168EC70E00F
:1038000083E393E0F5DF811103C0C150B9F701C034
:1038100081E0CF910895809190028823A9F068EC0F
:1038200070E08AEE92E0E4DF48EC50E065EE72E092
:103830008CED92E0C7DF0E94FF37809164008860C2
:1038400080936400109291020895809190028823E1
:1038500081F080916400877F8093640061EA71E069
:1038600080E090E00E94C035C7DF87EF92E0B1DFD3
:10387000D2CF0895AB0160E070E09FCE0F931F930D
:10388000CF93DF93FC012081222309F43BC08B01FD
:10389000EC0180E892E09DDF88E792E09ADF6EE637
:1038A00072E084EA93E00E94D338BE0184EA93E098
:1038B0000E94F1345FDE6CE672E084EA93E00E94DD
:1038C000E73868EB7BE08AE692E0D4DF8130E1F410
:1038D000B80184EA93E00E94F1346AE184EA93E05B
:1038E0000E940E3540E355E763E672E081ED99E210
:1038F00064DE813049F420918C0230918D02232BBB
:1039000021F402C081E001C080E0DF91CF911F91DE
:103910000F91089550DE4FDE4ECE60E086E00E94AB
:103920002F34F8DF61E086E00E942F3444CECF933D
:1039300030919002332309F45AC020919102211151
:1039400056C09B01AC0180916400877F8093640026
:10395000DA01C901B695A79597958795BC01CD0168
:103960007C5D8B409F4F0E94713CCA01B9010E944F
:10397000C03551DACBE040DF8823E1F085E293E007
:1039800028DF8DE193E025DF85E193E022DF64ED20
:1039900079E287EE99E21ADF882371F0E2DE88236C
:1039A00059F06CE073E084E093E010DF982F8823F7
:1039B00019F019C0B2DF2FDA8AEF92E00ADF25DAB8
:1039C00024DA23DA22DA21DAC150A9F60E94FF377D
:1039D0008091640088608093640090E031E09111F0
:1039E00006C030E004C081E080939102F7CF832FBE
:1039F000CF91089560E076E980E090E098CFCF9392
:103A0000882311F0E9DE23C088DFCBE0F5DE8823D0
:103A100099F08AEB92E0DDDE82EB92E0DADE882339
:103A200091F064ED79E287EE99E2D0DE882359F0D7
:103A300098DE882341F00BC070DFEDD9E6D9C15084
:103A400029F780E004C088EA92E0C3DEF7CFCF9187
:103A50000895AF92BF92DF92EF92FF920F931F9360
:103A6000CF93DF931F92CDB7DEB78C0183DDD12CCE
:103A70006CE472E084EA93E00E94D338DD2011F018
:103A80008AE201C083E20E9410364AE050E0B801A9
:103A900084EA93E00E94B43569E472E084EA93E03A
:103AA0000E94E73868E97AE382E492E0E3DE81305D
:103AB00039F0D11003C0DD24D394DACF80E05EC0AA
:103AC000898328DFA0918E02B0918F025D0196E07C
:103AD000A90EB11C50E0E9EEF3E020E030E060E038
:103AE00040E07DE28981D5019D915D01992309F432
:103AF00044C0923221F4611141C061E0F4CF6623E9
:103B000091F3DD20B1F1890124E0000F111F2A9506
:103B1000E1F791360CF0905230ED390F3A3014F055
:103B200039EC390F7801E30EF11C37FDFA94970157
:103B30004F5F4430C1F69E2D052F10E00653164D01
:103B4000D8014C91E41202C05F5F07C0563021F4E7
:103B500070831182319601C050E02F3F310529F06A
:103B600020F020E030E040E0BECF9083118231961B
:103B7000F8CF908311823196B6CF862F0F90DF91C8
:103B8000CF911F910F91FF90EF90DF90BF90AF907A
:103B90000895AEE0B0E0EFECFDE10C94DD3C84E68E
:103BA00090E057DF882379F11982A9EEB3E010E0A5
:103BB000FE013196CF012D91211104C029812111DF
:103BC00011C021C02D3211F411E0F5CF30ED320FCC
:103BD0003A3020F4208311823196EDCF2D7F2C32A4
:103BE00051F7ECCF0E94AF3A112341F061157105F6
:103BF00039F088279927861B970B07C0CB0105C092
:103C00008FEF9FEF02C080E090E02E96E3E00C94EF
:103C1000F93CA1E0B0E0EFE0FEE10C94DD3C182FB0
:103C200080919D04811107C069836EDB81E08093E0
:103C30009D04BBDC69818DE61EDB612F87E01BDB09
:103C40005ADC2196E3E00C94F93C60E089E0E1CF96
:103C500090919D04911102C0882319F060E087E0E3
:103C60000ADB10929D04089580E0F2CF67E089E0BE
:103C7000D0DF84EF91E042DB64E089E0CADF8AEFC5
:103C800090E03CDB60E089E0C4DF80EA90E036DB76
:103C9000EBCF7058A0918B02B0E0FD01EE0FFF1F3B
:103CA000E95AFB4F4591549182FF02C09A0102C02C
:103CB00020E030E05695479581FF02C0240F351F64
:103CC0005695479580FF02C0240F351F569547959E
:103CD000240F351F83FF08C02617370770F4AB0188
:103CE000421B530B9A010EC0AB014095509524170F
:103CF000350730F4260F371F05C020E030E002C042
:103D00002FEF3FEF8770E82FF0E0E75FFA4FE49185
:103D1000AE0FB11DA935B10514F0A8E5B0E0A09330
:103D20008B02C901905808951F920F920FB60F92FF
:103D300011248F939F9386B590918802890F87BD38
:103D400080918702882359F0809186028F5F80934B
:103D5000860280FD02C080ED04C080E302C0809135
:103D600089028093B30081E080938A029F918F91B2
:103D70000F900FBE0F901F90189522E3209388029A
:103D800021E020938702BC0180E090E00E948B3309
:103D900010928702089584E690E0EFCFEAE7F0E022
:103DA00080818068808380818B7F80838081866032
:103DB0008083A1CB1F920F920FB60F9211248F9385
:103DC000EF93FF930FB6F894A895809160008861F7
:103DD00080936000109260000FBEA895E0E6F0E0CE
:103DE00080818F7B8083FF91EF918F910F900FBE29
:103DF0000F901F901895A4E0B0E0E1E0FFE10C9473
:103E0000DD3CCCDF14E620E030E0A90182E129832B
:103E10003A834B835C830E94993429813A814B8198
:103E20005C81280F391F411D511D29833A834B8323
:103E30005C835BDB115029813A814B815C811111DC
:103E4000E5CF80917A008F7780937A00AAE0B0E086
:103E50000E94C43C21E035E040E050E00E94713C0B
:103E6000C9012496E3E00C94F93CA4E0B0E0EBE354
:103E7000FFE10C94DD3C92DF10E420E030E0A9018A
:103E800083E129833A834B835C830E94993429819F
:103E90003A814B815C81280F391F411D511D2983B7
:103EA0003A834B835C8321DB115029813A814B811A
:103EB0005C811111E5CFA0EAB1E00E94C43C26E08C
:103EC00096958795779567952A95D1F723E330E006
:103ED00040E050E00E94713C21388CE038074105F9
:103EE000510560F58EE480937C00FFDA14E620E053
:103EF00030E0A90129833A834B835C83F6DA809111
:103F00007A00806480937A005C814B813A812981B8
:103F100080917A0086FDFCCF8091780060917900D5
:103F200090E0962B280F391F411D511D115011F79C
:103F30006BE173E682E197E00E94713CC90124962F
:103F4000E3E00C94F93C80913D04811105C080911F
:103F50001A01833320F0815080931A0102C010921D
:103F60001A0120911A01223350F088E790E0821B59
:103F700091096AE070E00E945E3C862F089587E018
:103F80000895E1DF682F89E044CE8091BA03811162
:103F900002C0F7DFBFCC08958F929F92AF92BF927D
:103FA000CF92DF92EF92FF92CF93DF936B017C0170
:103FB00097FF0DC06DE280E892E00E94F334F09428
:103FC000E094D094C094C11CD11CE11CF11C80E889
:103FD000882E86E9982E88E9A82EB12CC701B60153
:103FE000A50194010E94933CE90160E879E687E627
:103FF0009FEF0E942F3CA7019601260F371F481FF5
:10400000591FA0E1B7E20E94C43CA50194010E949F
:10401000713C5F934F933F932F93DF93CF938EEF3A
:1040200091E09F938F9380E892E09F938F930E94FB
:10403000F0388DB79EB70A960FB6F8949EBF0FBEA4
:104040008DBFDF91CF91FF90EF90DF90CF90BF9029
:10405000AF909F908F90089581E080938D0481E0D0
:1040600091E0909373028093720260918204709148
:10407000830480918404909185048EDF63E280E85C
:1040800092E00E94F33460918604709187048091DD
:1040900088049091890480DF80919404882329F01A
:1040A0006AE280E892E00C94F3340895A4E0B0E072
:1040B000ECE5F0E20C94DC3C42E062E070E0CE0122
:1040C00001960E94B01689819A81C797A1F58FEF5A
:1040D0009FEF9093A9038093A80384EE90E09A83C6
:1040E0008983CE0103969C838B8304E010E0898151
:1040F0009A81892B79F0C8010E94053D68EA73E036
:104100000E941D1689819A8101979A8389830F5F86
:104110001F4FEDCF42E060E070E0CE0101960E94BB
:10412000B01681E049815A812091A8033091A903FA
:104130004217530709F080E02496E4E00C94F83C21
:1041400044EE64E070E08BE291E00C94B016EF92E4
:10415000FF921F93CF93DF938FEF9FEF9093A9036D
:104160008093A8038BE2E82E81E0F82EC4E0D0E033
:10417000F70111917F01612FCE010E940D3D68EA88
:1041800073E0812F0E941D162196C83ED10581F74C
:1041900042E060E070E088EA93E00E94CC1687E39A
:1041A00090E09093A9038093A80342E062E070E05E
:1041B00088EA93E00E94CC166AEE71E08EE994E002
:1041C0000E94D3388EE994E00E94FB340E94A33809
:1041D000DF91CF911F91FF90EF900895FC018081B6
:1041E0009181A281B3818F3F9F4FAF4FBF4F61F04D
:1041F00081E044815581668177814F3F5F4F6F4FEA
:104200007F4F19F080E0089581E008951F93CF93C8
:10421000DF93C091E80388E0C89FE0011124C85FE4
:10422000DE4F11E648E0BE0182EB93E00E94B0163B
:1042300082EB93E0D3DF811123C04091B203509110
:10424000B3036091B4037091B5032AE030E08EE9C6
:1042500094E00E94653580E20E94AA384091B6033E
:104260005091B7036091B8037091B9032AE030E030
:104270008EE994E00E9465358EE994E00E94FB345B
:104280002896C11583E0D80710F0C0E0D1E01150A6
:1042900049F6DF91CF911F9108950F931F93CF930C
:1042A0001092E80348E060E071E082EB93E00E9446
:1042B000B01600E011E0C0E0085F1F4F011583E079
:1042C000180710F000E011E048E0B8018AEA93E036
:1042D0000E94B01682EB93E081DFCF5F811128C08E
:1042E0008AEA93E07BDF882319F188E0E2EBF3E0D0
:1042F000A2E8B4E001900D928A95E1F7C093E8033B
:1043000088E0EBE1F1E0AAEAB3E001900D928A9532
:10431000E1F788E0EAEAF3E0A2EBB3E001900D9266
:104320008A95E1F78091E803CF911F910F9108954D
:1043300088E0EAEAF3E0A2EBB3E001900D928A95FF
:10434000E1F7C13609F0B8CFDBCF6091E80388E030
:10435000689FB0011124739548E082E894E00E94C0
:10436000CC168091E8038F5F803618F48093E803C1
:1043700002C01092E8036091E80388E0689FB001F2
:104380001124739548E08BE191E00E94CC161092C5
:104390008E040895439AA9D8439808954F925F9246
:1043A0007F928F929F92AF92BF92CF92DF92EF92C5
:1043B000FF920F931F93CF93DF9300D01F92CDB73F
:1043C000DEB710928B02209164002F7B2093640053
:1043D00023E0209370002093B00021E02093B100EF
:1043E0001092B30022E025BB20916E002260209342
:1043F0006E00662351F069838A839B83CCDCDBD813
:10440000698161509B818A81F4CF8C01E12CF12C70
:104410005CED852E55E0952EA12CB12C60918B0181
:1044200070918C0180918D0190918E010E948B334F
:10443000F80191918F01992309F45FC09B83AADF52
:104440009B8180ED890F8A3050F590E0880F991F8D
:10445000FC01EB5DFA4F45905490FC01EF5EFA4F82
:10446000C590D49020918B0130918C0140918D01A9
:1044700050918E01ACEDB0E00E94C43C605E7C4483
:104480008B4F9F4FA50194010E94713C3695279553
:10449000369527952093880210928A0210C0933295
:1044A00019F479DC82D802C09E3211F474DC05C0A4
:1044B0009A3219F484EF91E060DC2CDAAFCF80916E
:1044C0008A028823E1F3C40CD51C4C145D0409F462
:1044D000A5CFF2017490B701872DDBDB7C010E9430
:1044E0004316B701872D82958F70D3DB7C010E9424
:1044F0004316FFEF4F1A5F0AE8CF80916E008D7F61
:1045000080936E00109270001092B1002C988091F0
:1045100064008064809364000F900F900F90DF918F
:10452000CF911F910F91FF90EF90DF90CF90BF90B0
:10453000AF909F908F907F905F904F900895A3E0F1
:10454000B0E0E5EAF2E20C94DE3C6B8389839A8367
:104550001CDD6B8189819A8121DF86DB2396E2E075
:104560000C94FA3C6F927F929F92AF92BF92CF923F
:10457000DF92EF92FF920F931F93CF93DF931F92DF
:10458000CDB7DEB78C01809164008F7B809364008F
:1045900083E0809370008093B00081E08093B1004D
:1045A00082E085BB80916E00826080936E006623FE
:1045B00039F06983F0DB0E94DB1A69816150F7CF23
:1045C00080E18093880280E880938902F80101905D
:1045D0000020E9F73197DE2ED01AC02E380188E18D
:1045E000B82E07E012E09EE9E92E94E0F92EAA2405
:1045F000A39420E8922E862D8C198D15C8F5CADE5D
:10460000F30181913F018E3251F028F4833261F041
:104610008A3229F006C080538A3038F002C08BE01D
:1046200004C0909289021BC08AE08B9D802D1124CA
:104630008B5F80938402809184021F928F931F93DB
:104640000F93FF92EF920E94F0380E94A338A0923D
:1046500085020F900F900F900F900F900F905AD9E6
:104660000E940517109285020E94D51A53D9C3CF14
:1046700080916E008D7F80936E001092700010927A
:10468000B0001092B1002C988091640080648093F7
:1046900064000F90DF91CF911F910F91FF90EF90E9
:1046A000DF90CF90BF90AF909F907F906F900895D4
:1046B000A3E0B0E0EEE5F3E20C94DE3C6B8389838B
:1046C0009A8363DC6B8189819A814CDFCDDA2396F2
:1046D000E2E00C94FA3C60915B0170915C01809186
:1046E0005D0190915E010C948B33AF92BF92CF929B
:1046F000DF92FF920F931F93CF93DF93A6DAD0E060
:10470000F12CC0E090E1A92E97E2B92E6D2F89E03F
:104710000E943B190E947B1A10923F042D9A65E07B
:1047200087E00E943B19D7DF2D9880913F048823B2
:10473000D1F0F3948AE0C82ED12C00E010E065E0BF
:1047400087E00E943B190E94D51A8BE20E94FC1858
:10475000080F111D81E0C81AD10889F70A151B0539
:1047600014F4CD2F5801DF5FD03881F67DDA80E474
:104770008F1510F48C2F01C080E0DF91CF911F9135
:104780000F91FF90DF90CF90BF90AF900895EF9280
:10479000FF920F931F93CF938C017B01C0E00E9487
:1047A0007738811109C0E114F10419F0F701099576
:1047B000F6CF0E94751AF3CF0E9486388D3051F4DF
:1047C000F801EC0FF11D1082CF911F910F91FF9016
:1047D000EF900895CC2319F08A3019F4F1CF8A3084
:1047E000F1F2F801EC0FF11D8083C034C0F6CF5F09
:1047F000D6CF60E070E0CBCFCF92DF92EF92FF9206
:10480000CF93DF936A017B01E901BC018EE994E05B
:104810000E94D3382AE030E0B701A6018EE994E087
:104820000E94A735BE018EE994E00E94D338DF9143
:10483000CF91FF90EF90DF90CF90089582EC91E0C0
:104840000C941F18CF93DF93EC0161E085E00E9488
:104850002F34209771F02C9A80916A0490E00E9486
:10486000C5332C9880916A0490E00E94C53321974B
:10487000F0CF60E085E00E942F34DF91CF91089562
:10488000E9EEF3E06AE00E943E3C805D8083905D4B
:10489000918312820895A1E0B0E0E1E5F4E20C9486
:1048A000DE3C6983EDDF698189EE93E048DE219685
:1048B000E2E00C94FA3CCF93C82F81110BC0809199
:1048C000730180FD07C083FD05C08091730181FDE8
:1048D00010C00DC080913904811102C063E001C095
:1048E00060E081E091E02BDECC2379F30CC084FF03
:1048F0000AC080913904811102C063E001C060E008
:1049000081E091E0D5DECF91089587EB90E09ACFDA
:1049100083E393E097CF10923F0460E085E079D97C
:10492000DADE86E20E94FC1880933C049DD9A895AB
:104930000895CF93DF93EFDF80913F04882361F0E8
:10494000C0913E04D4E680913F04811107C080915C
:104950003C04873418F406C080E00FC0DCDFBBDE07
:10496000D15089F7C23270F08C2F90E081979595E5
:104970008795843691050CF083E680933D04DF91A2
:10498000CF91089581E0F9CFCF93C82FD2DF88234C
:10499000A1F081E080938C04809160049091610487
:1049A000A0916204B091630480932A0490932B0435
:1049B000A0932C04B0932D0406C0CC2321F0C15049
:1049C00029F33CDFE3CFCF910895CF9361E08CE0F2
:1049D0000E942F34CDEFC33010F49ADF03C081E181
:1049E00091E030DF80E0D0DF80913D04811103C091
:1049F000CF5FC63081F760E08CE00E942F34CF910A
:104A0000089508950F931F93CF93DF93009163014F
:104A1000000FC1E0182FD1E0882399F0A89530DF6E
:104A200060E089EE93E08BDDD11102C086E001C029
:104A300082E0AADF80913D04882319F0182FD0E08E
:104A4000EBCFDD23C1F1D0915F01DD23A1F1809196
:104A50008701811728F080916F018823A1F007C09A
:104A6000B4DF90913D049923B1F3892FD3CFFED8C1
:104A7000802F8ADF80913D04882321F0182FD1E018
:104A8000C0E0CACFC0E08091730180FD04C081FD09
:104A900002C082FF03C080E00EDF02C0CC2349F0D9
:104AA000D13039F0802F70DF90913D04C1E0911139
:104AB000DCCFD150CACFDF91CF911F910F910895D4
:104AC000CF92DF92EF92FF9240E150E0E0E0F0E819
:104AD00020E030E8EE9F6001EF9FD00CD00C112455
:104AE000E12CF12C6C157D058E059F0510F4E22755
:104AF000F327369527954150510919F0E22BF32BF6
:104B0000E9CFCF01FF90EF90DF90CF900895A0E024
:104B1000B0E0EDE8F5E20C94D43C8C01EB01FC0133
:104B200080819181A281B381C880D980EA80FB8095
:104B3000BC01CD016C197D098E099F0997FF07C043
:104B400090958095709561957F4F8F4F9F4F24E68C
:104B500030E040E050E00E94933C69017A01F801A6
:104B600084819581A681B7814C815D816E817F8131
:104B70008C019D01041B150B260B370BC901B801D5
:104B800037FF07C090958095709561957F4F8F4F47
:104B90009F4F24E630E040E050E00E94933CCA0181
:104BA000B9010E942F3C4B015C01A7019601C7018E
:104BB000B6010E942F3C680D791D8A1D9B1D80DF68
:104BC000BC0180E090E0CDB7DEB7ECE00C94F03CA7
:104BD000CF93DF9390919004992309F454C090915E
:104BE0009104911150C0C82F89EE93E09093730205
:104BF0008093720280919404882331F063EE71E017
:104C000080E892E00E94E738CC2331F06CED71E04F
:104C100080E892E00E94E73863EE71E080E892E07D
:104C20000E94F13461E071E080E892E00E94FE347D
:104C300080E00E94FF1C69EE73E083EA91E00E942D
:104C40003E1CD82F69EE73E083EB91E00E943E1C7E
:104C5000C1E0811103C0D11101C0C0E069EE73E071
:104C600083EC91E00E943E1C8111C1E069EE73E08B
:104C700083ED91E00E943E1C811102C0CC2319F00B
:104C800081E080939104DF91CF91089564E474E012
:104C90008EE994E00E94D3388EE994E00E94FB34C0
:104CA0000E94A33881E0809395048091CB0390917A
:104CB000CC03A091CD03B091CE034091BF0350919E
:104CC000C0036091C1037091C203841B950BA60BB6
:104CD000B70B8D3B9240A105B10514F00E94811ADB
:104CE00081E076DF109291040C94EC1B8091990482
:104CF000811103C01092A30308958091950481113E
:104D00001DC04091BB035091BC036091BD037091E5
:104D1000BE038091CB039091CC03A091CD03B091C1
:104D2000CE03481759076A077B0724F38091A30332
:104D30008F5F8093A3038A3108F0A8CF0895A2E083
:104D4000B0E0E5EAF6E20C94CE3C10928A041A82B6
:104D500001E010E082E0282E312C44244A94542CA7
:104D60000E947738882309F4E0C20E948638282FF1
:104D70001092740280917702909178028B309105A5
:104D800008F0B1C0FC01EC5CFF4F0C94AF3C1092FA
:104D90007F0210927E022E3F29F01093780200933A
:104DA0007702A1C030927802209277021092960288
:104DB000509294024092930296C0209396021092D1
:104DC0007902622F83E992E00E943F1684E090E02E
:104DD00009C020939702622F83E992E00E943F1658
:104DE00083E090E090937802809377027CC02093D8
:104DF0009802622F83E992E00E943F1685E090E0DE
:104E0000F1CF20939902622F83E992E00E943F162E
:104E100086E090E0E7CF20939A02622F83E992E048
:104E20000E943F1680919602811103C088E090E0B5
:104E3000D9CF87E090E0D6CFE091790281E08E0F64
:104E400080937902F0E0E556FD4F2083622F83E9DD
:104E500092E00E943F1690917902809196029813F9
:104E600042C0E4CFE0919A02F0E0E35CFC4F649131
:104E700083E992E029830E943F162981422F50E066
:104E8000809193029091940299274817590731F025
:104E90002E3F09F487CF8AE090E0A4CF89E090E02C
:104EA0009093780280937702E0917902F0E0E556E2
:104EB000FD4F18C0422F50E060909402712C4615AF
:104EC000570509F068CF0A9709F465CF91E09093F0
:104ED00074021093780200937702E0917902F0E077
:104EE000E456FD4F208320917402222399F0809193
:104EF000970280937A0280917C0290917D020097C4
:104F000021F410927F0210927E02019690937D020E
:104F100080937C0210927602222309F4FDC160E0A6
:104F200070E084EE93E00E94E61621E020938A046C
:104F300020938B0480919A02882339F19091E303A6
:104F4000992321F0209198029213EFC18E3309F436
:104F50009BC188F4883171F18E3109F4A4C081308D
:104F600009F0DAC18091A9029091AA029093C4033A
:104F70008093C303D1C1893609F4F0C08D3F09F491
:104F8000AFC18A3409F0C8C143C080919F02863006
:104F900009F4C2C1809198028093E30380919B023F
:104FA0008093D3038091A102881F8827881F809354
:104FB0009904B2C18091A3029091A402A091A5028C
:104FC000B091A6028093820490938304A0938404FA
:104FD000B09385048091A7029091A802A091A902A4
:104FE000B091AA028093860490938704A0938804CA
:104FF000B09389048091B7028093E1038091B80255
:105000008093E20381E080938E0491E09A8384C1CF
:10501000F090AD02F092E00320E030E048EC52E482
:105020006091A3027091A4028091A5029091A602C2
:105030000E94CC3B0E944A3B6093DC037093DD03EB
:105040008093DE039093DF0320E030E048EC52E4ED
:105050006091A7027091A8028091A9029091AA0282
:105060000E94CC3B0E944A3B6093D8037093D903C3
:105070008093DA039093DB03E091D303F0E0E251F5
:10508000F64D208121FB332730F920FF45C1311136
:1050900043C168317C4F8F4F9F4F0CF41FC1FF20DD
:1050A00009F41CC139C121EE3EE245E652E46091AB
:1050B000A3027091A4028091A5029091A6020E9481
:1050C000CC3B0E944A3B6B017C017093D7036093F9
:1050D000D60321EE3EE245E652E460919F027091D4
:1050E000A0028091A1029091A2020E94CC3B0E945A
:1050F0004A3B7093D5036093D403E091D303F0E06F
:10510000E251F64D208120FF07C10D2C000CEE0866
:10511000FF08F7FE08C0F094E094D094C094C11C3E
:10512000D11CE11CF11C21E5C216D104E104F104FB
:105130000CF0D4C0CB01770FAA0BBB0BB7FF07C095
:10514000B095A095909581959F4FAF4FBF4F8135FA
:105150009105A105B1050CF0C1C0DEC08091CB0363
:105160009091CC03A091CD03B091CE038093BB036B
:105170009093BC03A093BD03B093BE0320E030E046
:1051800048EC52E46091CF027091D0028091D1023C
:105190009091D2020E94CC3B0E944A3B6093CB0389
:1051A0007093CC038093CD039093CE0320E030E046
:1051B0004AE754E46091A3027091A4028091A50291
:1051C0009091A6020E94CC3B0E944A3B4B015C019D
:1051D0007093CA036093C90320E030E04AE754E4C7
:1051E0006091A7027091A8028091A9029091AA02F1
:1051F0000E94CC3B0E944A3B6B017C017093C80328
:105200006093C70320E030E04AE754E46091AB02CA
:105210007091AC028091AD029091AE020E94CC3BA5
:105220000E944A3B7093C6036093C503E091D30389
:10523000F0E0E251F64D308131FB222720F930FFBA
:105240006BC0211169C0889CA001899C500D500D34
:105250001124CC9C9001CD9C300D300D1124240FD5
:10526000351F669FF001679FF00DF00D1124B90105
:105270006E0F7F1F072E000C880B990B21DC8134E9
:105280009F4108F449C02AC020E030E048EC52E4D5
:105290006091A3027091A4028091A5029091A60250
:1052A0000E94CC3B0E944A3B6093CF037093D00393
:1052B0008093D1039093D203E091D303F0E0E251C5
:1052C000F64D208121FB332730F920FF25C0332301
:1052D00019F1693C710581059105F4F007DD1CC0E9
:1052E00080919B028430C0F4ECE9F2E0A9EEB3E0D7
:1052F00082E301900D928A95E1F710921B0446E03B
:1053000050E06DE374E089EE93E00E94DE3A892B71
:1053100019F481E0809393040E947738811120CDA5
:105320008AEA90E00E94C5331BCD8A812296E2E191
:105330000C94EA3CCF92DF92EF92FF92CF93DF93EF
:1053400080918B04882331F0FADC90918B04909348
:105350009C046FC080919C048111F6CF0E94743828
:10536000439A2D9A0E945A336B017C0124E6C20EA7
:10537000D11CE11CF11CDAEFCFEF24EC39E040E066
:1053800050E060E080E00E9467346F3F7105810566
:10539000910509F064F4662351F06C1708F4C62FE8
:1053A0000E945A33C616D706E806F90610F0D15007
:1053B00021F7CF3F19F4C091000102C0C093000152
:1053C000CB3078F0C33190F0CD31A8F0C832C0F0C6
:1053D000CC33D8F0C639F0F060EC72E180E090E0B8
:1053E0001DC060E072EC81E090E018C060E071EEFA
:1053F00080E090E013C060E076E980E090E00EC0CD
:1054000060E870E780E090E009C060E07BE480E065
:1054100090E004C060E875E280E090E00E943738D8
:105420002D98439881E080939C048091960481118B
:105430008BCFDF91CF91FF90EF90DF90CF900895C9
:1054400080E0C6CB0F931F9383E291E00E94EE2091
:10545000811111C062E874E083E291E058DB209191
:105460009F013091A001890120E030E060177107B1
:1054700082079307E8F08091330190913401A09165
:105480003501B0913601892B8A2B8B2B81F08091CD
:10549000600490916104A0916204B09163048093D0
:1054A0005C0490935D04A0935E04B0935F04C8DF36
:1054B0000E940B1C809164008860809364001F919F
:1054C0000F910895CF92DF92EF92FF92CF93DF93E7
:1054D0006AE871E08EE994E00E94D338CBE2D1E033
:1054E000C12CD12C760128E831E0B701A60186E86D
:1054F00091E082D949915991699179912AE030E0FE
:105500008EE994E00E9497358FEFC81AD80AE80A0E
:10551000F80A8EE1C816D104E104F10421F7CFEFB7
:10552000D9E224E831E0B701A60182E891E064D92C
:10553000FE01659174918EE994E00E94FE348FEF34
:10554000C81AD80AE80AF80A239684E2C816D104D1
:10555000E104F10431F76FE771E08EE994E00E9415
:10556000D338DF91CF91FF90EF90DF90CF900895E7
:105570002D9A0E94751A2D9808950F931F93FC0180
:1055800080819181A281B3810097A105B105A9F025
:1055900000916004109161042091620430916304D1
:1055A000081B190B2A0B3B0BAB0160E070E081E09C
:1055B000401751076207730708F080E01F910F91B1
:1055C00008959B01409160045091610460916204D0
:1055D00070916304420F531F611D711DFC014083D4
:1055E00051836283738308950F931F93FC0181E0BD
:1055F0000091600410916104209162043091630471
:10560000408151816281738104171507260737078E
:1056100008F480E01F910F9108958F929F92AF92AE
:10562000BF92CF92DF92EF92FF920F931F930E944F
:105630005A330091640410916504209166043091FE
:1056400067046B017C01C00ED11EE21EF31E99E2BD
:1056500088E10FB6F894A895809360000FBE9093F0
:10566000600088EE882E83E0982EA12CB12CC70113
:10567000B601A50194010E94713C6091670170918F
:1056800068018091690190916A010E942F3CA701F5
:105690009601261B370B480B590BCA01B901A5010E
:1056A00094010E94713C2093600430936104409304
:1056B000620450936304283532404105510508F4D3
:1056C00057DF0E94FB1E9C019093800480937F040F
:1056D000909197042B30310508F04AC0109296043F
:1056E000992389F180919804882309F41EC46CE3FE
:1056F00070E08BE794E041DF882309F416C48091C1
:105700009904882309F411C46EE170E087E794E0FE
:1057100034DF882309F409C41092920480918E0426
:1057200081110E94A5218091600490916104A09153
:105730006204B091630480936F0490937004A0930B
:105740007104B0937204609160047091610480915F
:1057500062049091630428E037E040E050E00E944A
:10576000713C672B682B692B31F5CFD8CED823C07D
:1057700081E08093960420919804211112C04091F9
:1057800060045091610460916204709163044093DD
:105790007B0450937C0460937D0470937E0480931B
:1057A0009804911108C010926F0410927004109226
:1057B00071041092720480919604809397048091F2
:1057C0008B04882309F43FC075D70091E40310913E
:1057D000E5032091E6033091E703DC01CB01801B58
:1057E000910BA20BB30B853F9140A105B10558F178
:1057F00080919904882339F1109292048091600479
:1058000090916104A0916204B091630480936F044D
:1058100090937004A0937104B09372046DE371E0EF
:105820008EE994E00E94D3388EE994E00E94FB3424
:105830000E94A33880918E0481110E94A52180913D
:105840009604811123DA80919904882309F473C0A6
:1058500080919A04811155C01092730410927404BF
:10586000109275041092760410926F0410927004D6
:1058700010927104109272048091600490916104FE
:10588000A0916204B09163048093770490937804AC
:10589000A0937904B0937A0480919604882319F038
:1058A00081E08093920481E080939B04809139048D
:1058B000882349F088E0E2E8F4E0A3E2B1E0019057
:1058C0000D928A95E1F78091CB039091CC03A09142
:1058D000CD03B091CE038093BF039093C003A093F8
:1058E000C103B093C2031092A30366E371E08EE993
:1058F00094E00E94D3388EE994E00E94FB340E9429
:10590000A33880919304882309F43FC06FE271E0CB
:105910008EE994E00E94D3388EE994E00E94FB3433
:105920000E94A3381092920481E080939404109214
:10593000930488DD2AC080919B04882331F16EE1B5
:1059400070E087E794E019DE811103C010929B0498
:105950001CC08091600490916104A0916204B09198
:1059600063048093730490937404A0937504B093BC
:10597000760462E271E08EE994E00E94D3388EE909
:1059800094E00E94FB340E94A33880919904809394
:105990009A04609153017091540183E794E0EDDD26
:1059A000882331F1109292048091600490916104F7
:1059B000A0916204B091630480936F04909370048B
:1059C000A0937104B0937204109273041092740443
:1059D00010927504109276046FE071E08EE994E005
:1059E0000E94D3388EE994E00E94FB340E94A338D1
:1059F0006CE370E08FE694E0C0DD8823A1F022DD47
:105A00006EEF70E08EE994E00E94D3388EE994E066
:105A1000F2D70E94A33810926F0410927004109273
:105A20007104109272048091540490915504A091D5
:105A30005604B0915704892B8A2B8B2B09F070C028
:105A40008CE594E0D1DD882309F4F7C06BEE70E0BB
:105A50008EE994E00E94D3388EE994E0CCD70E947E
:105A6000A3388091600490916104A0916204B09188
:105A700063048093540490935504A0935604B09308
:105A800057048093440490934504A0934604B09334
:105A900047048091370190913801A0913901B0916C
:105AA0003A0180934C0490934D04A0934E04B0931C
:105AB0004F04609140047091410488E494E081DDDA
:105AC00080913F01909140012CE3289FB001299FD4
:105AD000700D112480E594E074DD20914301309134
