:100000000C9442150C9409190C946A150C946A15F9
:100010000C946A150C946A150C940D1F0C94C0185E
:100020000C946A150C94D1180C9423370C948736D1
:100030000C94C3370C946A150C94C71E0C946A1563
:100040000C9466330C946A150C9472160C949816E2
:100050000C946A150C946A150C946A150C946A1524
:100060000C946A150C946A15FA26FE2610272A2786
:100070001C2734273E274F2765278D278D2779306A
:100080007E306D3015319C30F83053305330533062
:1000900053309A30AA30533053305330A23153305A
:1000A0008E308930533053307630533053308C306B
:1000B00023636F6F726420666972737420706F6956
:1000C0006E740023736B697020636F6F726400231A
:1000D0007361766520636F6F726400234D41564CE7
:1000E000494E4B20636F6F726473002374696D65B2
:1000F0006420626561636F6E20696E6974002364B9
:100100006973636F6E6E656374206C6F636B00233D
:1001100064697361726D20646973636F6E6E656389
:1001200074002364697361726D206C6F636B0023CC
:100130004372617368002341726D656400234D4111
:10014000564C494E4B20676F6E650023666F756E87
:100150006420454520636F6F726473002347534DDD
:10016000204F4B002362616C616E6365206661699C
:100170006C002347534D20696E6974204F4B003E3D
:100180000A0053003D0052003D005B434F4E46497C
:10019000475D0A004552524F523D000A0053656EBA
:1001A00074204F4B00534D532074657374004469A1
:1001B0007361626C6564004552524F523D000A0003
:1001C00023726573756C74203D20003031323334F6
:1001D00035363738393A232E202A0020000D0A0000
:1001E000302E3231004368757465210043726173AB
:1001F00068210023454550524F4D20777269746540
:1002000020646F6E65210025692E2530346C7500E1
:1002100023746F6E6520613D25640A000500064069
:1002200007010A050B120C150DFD0E0030007900B8
:100230007A0570247112720873007400357A1D40BB
:100240002A143655375538553955002B43555344E4
:100250003A0023220041542B435553443D312C2274
:10026000002B4353513A002B435351002B434D472E
:10027000533A003E00220041542B434D47533D2248
:10028000002B434D47443D31002B434D47463D3104
:10029000004552524F52002300415400233E20415A
:1002A0005400232077616E743A2025530A003C20C5
:1002B000002B4346554E3D312C31002B4346554EC5
:1002C0003D31002B434E45544C494748543D310085
:1002D0002B4346554E3D30002B434E45544C494729
:1002E00048543D30002B43504F57443D3100444F5C
:1002F000574E002B434E45544C494748543D30001F
:100300004530002B4346554E3D312C31002B4343A5
:10031000414C523F004343414C523A2031002B4361
:100320005343423D31002B4346554E3D310045304D
:100330002056312058312053303D30000043524583
:10034000473A20302C00327C8900EDD968770000D4
:1003500000590000000000000000D69FDCA818171C
:10036000AA90437327F6B968EDF4DED409FEE61CC3
:100370001C84DDE80B992927D6DF8D210F03641833
:10038000EFEE1E99B7825276941500347C00002659
:10039000149E988F0000006A31168F8C059600E736
:1003A000B73F3600000000000000AF669ED0385D09
:1003B0008A6C20B95422007CED044C80387486EDA0
:1003C000CBFA57CBDC19E2001DDF5506E5CB01C3A4
:1003D0000000000000000000009AB20086DBD0BCE4
:1003E0005416131586004E44BD7F6F1515900100FD
:1003F00000B50000000000002F0000AEE500000086
:1004000000000000000000470000000000000000A5
:1004100000000000000000000000000000000000DC
:1004200000000000000000000000000000000000CC
:10043000000000000000005A00000000000008CC8E
:1004400031AA2C532E0063726173683A00236368EB
:10045000757465206F6E0063426561636F6E200086
:100460000700080009000A000B000C000D000E0038
:100470001000110013001500170019001C001F00C8
:100480002200250029002D00320037003C004200E8
:1004900049005000580061006B00760082008F0018
:1004A0009D00AD00BE00D100E600FD001701330144
:1004B000510173019801C101EE012002560292021E
:1004C000D4021C036C03C30324048E0402058305B9
:1004D0001006AB0656071208E008C309BD0AD00B88
:1004E000FF0C4C0EBA0F4C110713EE1406175419DB
:1004F000DC1BA51EB6211525CA28DF2C5B314B3627
:10050000B93BB24144487E4F71572F60CE69627447
:10051000FF7FFFFFFFFF0204060843039D037B03E9
:10052000C702800491029D03FD0358046C049026C9
:10053000F322781FB11C3118A0150312060EAE0964
:100540004205040000006408000064617461000555
:1005500000000002100080FFDFDAC0F1E999743674
:1005600001DABC9B08324424321080DBEE9A091079
:10057000313433128098CEBE9A0820433522108839
:10058000B9DDAD9980114433128190B9DFBB898008
:10059000214524110888B9DDBB8908304534118014
:1005A00090B9ECBBAA08206443210088A9EBBC9A4F
:1005B0008910523523110899DBCDAA99083055339B
:1005C000120088B9DDBBAB8A28633514110898CABC
:1005D000CCABAA88205524221088A8DBCCAA9A8804
:1005E000324633130198B9CDADAB99084336331376
:1005F0000098CACDBBAC8910533523128098DACC51
:10060000AC9A8920544322018099DACCBB9A0841E4
:100610003534220188B9CDCCAA89185234331281DD
:1006200098DADCBBAB88315533230280B9ECBCBB14
:100630008918533533120089CBCECB9908316333F7
:10064000130190BACEBC9B88214434230280B9CEDA
:10065000BCAA009E4700183255322219C2E0CAAB2C
:100660009A52192216120098CCAC9A0831243324DD
:1006700011A8DCCB9B88212225333301BDCEAA896A
:100680002024335391C0D9A98C1822223268108AB1
:10069000DDA9091014143188BAADAB3AA0172311A3
:1006A00021CA8E0CD09020378820A0CCAB183042C5
:1006B0005323AAF9BD882123531490F9AC8A3052F0
:1006C0003322B9DEBA0941441218CADC9808422420
:1006D0000080CC8D8810440180C0DB090860138045
:1006E00000BD8C8010270008D8AB8080640180A0FA
:1006F0009E098851130808BF888040240808FA8A98
:100700000828268000E98A0818260008D88C0808DE
:10071000358180C09E0808358180B0AF080844014B
:100720000898AF080863010898AE888063010888BC
:10073000BD898072020888CC890060038880EB8ABA
:100740008041158808D98B8821278019B99E881087
:100750002681005741006AFF8A0840249009C09D05
:10076000881036009A92FB89006102A02AB0AD0978
:10077000203682C938B9AD09502580CA12C89B09F4
:10078000611480BB23DAAB08711488AB32C99C09B1
:10079000501580BB50A0BB09482780C93982CB8A3D
:1007A000084601A88D23A8BC80501508CA3984C901
:1007B0008A88720288AD3193DA8A807301909D40F5
:1007C00001BA9B80720388BC3815B9BB884027806A
:1007D000B98A5381CB9B80611490B9194280ADAB2B
:1007E0000861159099093291ECA988202781980A0F
:1007F0002111DA9E890851049188180190DC8C8AB5
:100800001872228088088190ECAB99087324818843
:10081000080888CABFA9083157018888088880FA63
:100820009C891872040089880800A0DE8A88104715
:10083000018899892020B8EF098840150098BA08E6
:100840003312C8EF8080610208B89C18430198CF2A
:10085000800800A95400260888CB89202500A8BF5D
:100860008080730180C89B18320591E08C888036A7
:100870000008CA9A0842130089DF8880511308B81B
:10088000CB89202403A1F08E0918430380AAAD89E7
:10089000112403A0F99C0900442308A9CBAA104203
:1008A00013A099DCA98930462388A998A9A98000BA
:1008B0000012B1ADAD8A403511232291A9CDBAAA5B
:1008C000A800211310A7101983821C9C0A04345815
:1008D0001BA0F2B083F34A9038A9125B0F028A3052
:1008E0008AC5A182C38902B8559B913A2C7D983A5A
:1008F00081A0B2D4B19780001A1A792A8889181E6B
:10090000A310E389A780A280285D2A4B1B3A08C266
:1009100001F2A281C2A39030229F40880E03992148
:100920001F884888A87BA995911B07AB83B3A210A9
:100930009D11421F281D309A09A297A995B022B097
:10094000791A093B820AE2C408C30191102C2A20BB
:100950003E0A00FC3F00B312A0BA7D004B280D4AAE
:1009600010A8C893E493B4A0509A88425B3B0CA8AB
:10097000B2031A9097803AA118918C30A020C93AFE
:1009800020BA097193A2234B5DE011A19800389918
:10099000F18088181919808080808008800808807C
:1009A000088008080808088080808080800404008F
:1009B00000003B0800006461746100050000000352
:1009C000010077FFFFBF47B901AA53900AA1EA725D
:1009D000939BA8CC2E578808BE208410919E21009E
:1009E00001B800BE28033084AD300211C9CD091111
:1009F0002034B80A240190ECBC18015113A941110C
:100A000000B9FD9B0000738108210090B9CF8B00D5
:100A100018458110020088CBED8A0800630210029D
:100A20008098CAFB9CA06708098898999900184388
:100A300014108190AAA9CDAC89804245120100A969
:100A40009A9CCD9B88107324110190E910ADBA894E
:100A5000084254121000A9AADABDAA184836130297
:100A60001199BBFBBC8B1A206513812289A9DCBCC0
:100A70000B09214612028180B8BFAD8888417300FE
:100A8000018181D9BD9900087311681880A8CE88AA
:100A9000808141030011049AFF090118309001245C
:100AA00092DF8A300139A3AB5600E99B20230081F5
:100AB000BD6282F88A20030080AD5380BD0800BE6D
:100AC0004E00160080BC6281AE08231010FA390374
:100AD000DC08220011E93A04EB08228814D93A8490
:100AE000BC10032A05EA48819D20B25882CC42B04E
:100AF0000C21A963A00D24DA18813A15CA4982ACE9
:100B000000907181AB3192AE00804490BB52A18EB7
:100B1000001805A08A32E00B806802A90A15E908CE
:100B2000885280A83B04BC90182680C94892AC9893
:100B3000301581DB51A0AA89312590AC34A99D09DB
:100B40003115909C24A8AD083015908B2498AF09DE
:100B50002015809A2390FB0C184310AA4001D99DC0
:100B6000083123A08915A8EB8B297300882008B1D0
:100B7000FBB910331391590818BD8F193082A29612
:100B8000B2B4A29C5B4B1A290238102E8998D8D097
:100B9000A48292A1334BB0491F09398B00480883C6
:100BA000E3D2A3B193A07A0A7A093A8900B8B5A32F
:100BB00080989400007B1B3A0A69C993D493000380
:100BC0004400A001B191C4114B998180218C08810E
:100BD00008AB9738F2818090413A9D402C6A2B19DE
:100BE0009AA780B1D492B308A2309A7A1A184D1BF2
:100BF000104D8A921099D482D392B28021997C8A26
:100C00001018192B90D19788801011AA5D89383B54
:100C10002DA801E483C878C0A508092888998321F4
:100C20003E8988C32189B28B04598980E112099FCA
:100C30008AA21703012109EFAB8A411782A89821E4
:100C40004201CAFF8910411280999900184301FBA3
:100C5000BF08312600A89A89103304F19F892044E7
:100C60000199AB0911313120FD9D08401580A9AAD9
:100C70000031113048EF9900510380BB9A212210B6
:100C80003878FC9980411480B99A1001819185C609
:100C90009C0A287301889A0981C0900306C28D1BA3
:100CA000082314181880B9AE89105223FACA89286B
:100CB0002414110098BDBA886233AEC9884800EC8C
:100CC0004B0032110180DBBC8A5143EAB809393349
:100CD00015121098CDAB0863029FA9803142121201
:100CE00000D8EB991024D28C0B881522310180CBCF
:100CF000BE892125F28A1B192314220180EBAC8ABC
:100D00002225F29A0A191423311190CCCC8912248D
:100D1000D49B0B091523410081DACB99205203AFF4
:100D2000A9903332331382EBCCAB813345C19D0A9A
:100D3000091333431281DACBCA09303487D88A8A3F
:100D40001804234210A0CABBAD01315590DBA9099C
:100D50003033343311CADBAC9C01335588DBA9092D
:100D60002042422201A9DBBBDA19415284B9ACAA64
:100D7000103135242288ABAEAA9A9B21376381CAF1
:100D8000BB9A193235352290BACCBA9C08334682C8
:100D90008F9AA01331300403BACBBB899819B040A5
:100DA000733413C0CC9C9B804344331298CBCBBB91
:100DB000B988124143221319B8CCABBCB86000F813
:100DC0003C00223321A9FABEA9085243221280CA4C
:100DD000CBBB8B9010032551218188ABCF9A8841E2
:100DE000131411089AAABA2C0C812238320F8800E9
:100DF00088008800880088800088008800888080BB
:100E000080000808080404000000960700006461E0
:100E100074610004000000FB0A007F77975A40CC01
:100E200093A68832F13B81B8512A5B2D11D990B538
:100E3000C295184A2B3F181D10A8D3B6A282183CA1
:100E40004C3B1A89A3F3A4A22918918AA0510B58EC
:100E50002A3F0A28C0D4C3A393293C292E588B19B2
:100E600091F194A288102A49880C8093D3285B2A98
:100E70005B0C01B0D393A2195B950E20880AA1C523
:100E8000941929A20909B1441C1B81592C1AD0922A
:100E9000B418A3C802F88508108C582B192A28D03A
:100EA00082C1C2930000291E901852CC33AA395136
:100EB0000FA309D391B3A318492E4A2BA000B1B4B4
:100EC0009288A23028EB481888202F1B93C2F392F7
:100ED000111A1B204F8A92C2A21198024C89090054
:100EE0001A101C59BA8588E7828090816A2C1908EB
:100EF000A080A3B2201E021A81F9B592B4004B293A
:100F00001A7D1B189881D2A391B201C1143F9A0493
:100F10001CC22099122D00033200F092D6A3088142
:100F2000381E003B4B90199A9708290AA50A923956
:100F3000F6A2A399855A8A103A2D3BA41B399AB67A
:100F40001091C191939883E391204F98923C391F5F
:100F50009110B09013C9842D309B28B229C7B1C31A
:100F600041911B093F7A0A390B29B1B1A793F3B319
:100F7000B223910F2A494B2B8B7809990002E3A3E6
:100F8000C1948091085C9A5B00207488CAB8DC1810
:100F900044140290FA8F880052118088C8AD080866
:100FA0007103808808DC8A084816009888C1AC88DC
:100FB000807482808918AD9A086806809980E3A9B8
:100FC00009085581901B38DBAA80402708C800819A
:100FD0008D0B087102809C11C2C988004581981D43
:100FE00011A9BB80402780D829219B9D08400680FD
:100FF000D910119B8C09611388EB2002AA8E08502E
:101000000380CC1112AA8E08401498BA5011CA8CD1
:1010100008600290BB500072520018DD8980638125
:10102000A88B5281F09A804103A0BA412388EF88AF
:10103000103201A988322399FF0B184201888820B9
:101040002298FF0A1831028018182190FBBF08214E
:101050001481008181019AFF8B10321300100099D6
:1010600091F8DF08003302001088A990F0BF092032
:101070003483811188CB80C2EF0900331318208894
:10108000DA1C38FB8D081215810100A8AD3948BF64
:1010900088004042000180C9AB1932F49B0B195300
:1010A00024220098BA8D08F18D0A0843241200907A
:1010B000CAAC8882BF99804245210080B9BC0C200F
:1010C000F18A0A296314020088CBAC1931FAA98885
:1010D0003854230200A8DCAB2941E18A8B1834265E
:1010E000211888CABC9B3153F899892843150200FE
:1010F00088CBAD8A3142F0990A2943241200A0CB53
:10110000BD9A2034A48F9A882335221090AACEAAA3
:10111000084133F0AA8A009B44007343220181B93D
:10112000CCBC892135B39F8B894334220180BACD51
:10113000BB89304502AEAA984253220181B9BCADA9
:101140008A186222F8A9892953232210A8CBCCAA95
:1011500098103354819FAA984343220291B9CCAC92
:101160008988113843F9A9896933140210A9DACAA8
:10117000AC9A89114444221190DADC9B89185334CB
:10118000221088BACCBBBA9908224525241188B907
:10119000EBCA9A8A09303534241208BACCAC9BAA1F
:1011A00018213525231291C9ACBB9CAA8130433448
:1011B000343118B8DC9BBCA8901158331612209912
:1011C000ABBFBA181913171391098B8E90081C29FD
:1011D0008A3283979620990AAA2A3A080D43A620B4
:1011E000A88AC0BBC884B37809520A940808B280A0
:1011F0008080808080808080808080808080800867
:1012000008080404000000C2060000646174610064
:1012100004000000010200F0F7F7F27F4B2B8992E7
:101220009100A0B2A5A18108C37E0BD394004C2BE2
:1012300008C1C3B4A3301D08B2382E3A1AD2945A4A
:101240002CB8A6014B3CA8D3A5003A2BA8B6B330C6
:101250005E2B89D2B5824A3C89C2B4014A2B09B1BE
:10126000B5824A3C0AB2C482281C90B282793CD82A
:10127000C6025B2C98B492284C2BA8B59200291A70
:10128000098088E4B3027B3B0AB1B592492C88B24D
:10129000013B2AE1B5811808492DA8B582294B0ADE
:1012A000D1C6025C2BA8B4826A1B88B2B4113B2A57
:1012B00099C4A391791CA1824B0AD2833A1B29209D
:1012C0008CE5A30189C4214E2C98C3A3383B0BD3D2
:1012D000822909A1814A1BF3B5203BC8A591384F4B
:1012E0001A9881182AD1B4010898D3947A3D99B4F8
:1012F000824A2BA8C482398A926A2B99D582390BEB
:10130000C294494D99B2012A1AA484100AFA992864
:101310007801810050560000899F80816308A89160
:1013200095C00C082087800B5980CC80006380B862
:10133000A816B80D084003809C5981BC88103581DF
:10134000C89925D98A08611188BB4083AE891016D7
:1013500081A88C52B0AB08781290D91814D9998012
:101360006310898D2084DA88182580A98C5281BC6D
:1013700088201790C9096280BC08200680CA0962CB
:1013800000EA88101500BA8B6112A89F0851829854
:10139000AC102481F88A182580BA0B602108BE8021
:1013A000200690D908311209AF09400390EB803232
:1013B0000208BF88400490CA09421209DD8820143F
:1013C00091D989211490E08B186210998C195200E0
:1013D00019CD88111481D89911148088AF0930244F
:1013E00000BBAB320781A0AF88303400BA8D103318
:1013F0000008FF88003302A8BB09420292F09F0850
:10140000313380B99C28312089FF9800421390A97C
:101410009B20300024490090DA9D8831351298B91C
:10142000999180009BBF8A186353008888A0D2B22C
:1014300098090A894968598A300AB1849B08D78279
:1014400008388F95810A3A3A1BA0940E8287191AA0
:101450008EA79208083A2B0819290C203AD001903F
:1014600097C2294F3A19FAA494180A19081888A1A2
:10147000103A4A085CB984D03C9401081B0C5C0CFF
:10148000A781888018081990681BC8833A11B99100
:10149000810A087128F881393B1AC0B412B8838ACE
:1014A00098315E291BB120DAD695980129181A2D9A
:1014B000B148B12FB393B2085B99A36B800929D8C7
:1014C000831AB35B390C1808B3018AB3B3078C696C
:1014D0009029092A8A7B9882023E8980B0D611B170
:1014E00001A1208AC0833C4BB8B4C37B10A0A2B238
:1014F0008B8580D0306CA0A0B2B780820AB2408BBE
:1015000080D0874B190A82E003AA87929A401C492F
:101510002D08C80000310000399B6D88E192828956
:1015200093972C392E182A2A2D90C4A2B2D6A3A2A2
:10153000A30A5909581C5C091919A080F816A0982B
:10154000B08302BA3981223F4E0819288E94B185A2
:101550000A901AA618193C008B2A28B4A4E011B0EE
:1015600085E11893B188222E6FB8084229A0DAB01D
:1015700018210942920293DB80B1D4004A48088CBA
:10158000081B82808080008800088880000888808E
:10159000008800880008080808888080808080040F
:1015A00004000000AB0400006461746100030000EB
:1015B000000009003F3F7FC9D6F09F7E96B2D1A0C0
:1015C00000283B2A0A18323781C8CD89113512818B
:1015D00088DF8A083026008899FA898801540188B2
:1015E00089A88F09085113008A88FB9A8021270156
:1015F0009889B89F8800631208AA81EC98803126E8
:1016000081B819C09D09186402889B01F99980303E
:101610002780A82B819E8A00730290CA21B1BC0941
:10162000284701998D13C8AA08501580BA3C04C9EF
:101630009A08720290DB3083CA9B006500A8AB61F8
:1016400001CA99103580D90A5181CA99201680CAD9
:10165000096280CA09201588CB085300EA092014C2
:1016600098CB002401D90D282388AC19430198EDAB
:10167000084181A88911222898FF083281AA0921EE
:10168000123898FF094380AA0812811083FF8952FB
:1016900081B90812008822F98F3013B90B3282BA4F
:1016A0003015FB0F4181AA1822A09A4183EF08430D
:1016B000005A5500B9093390AC3023F08F2004C88C
:1016C000093280BB3814B1BF1817A08B4181B91AF9
:1016D0004300FA8B7101BA1823A0AC212390EF08C4
:1016E0005280AA2813A89C301390FE084200B91912
:1016F0002291AC193481FA0E3003A09C3012A98DCE
:10170000482289CF803383B8BA1114A0AB30529AE3
:10171000BF19521291A9998191A0808080A91A4B7A
:101720005031302009BA90EBCB9001A18020158474
:10173000A2021D10A08E00282A0308F8890088E460
:101740004819A0328B80003E3F89A238C3FA864AEE
:101750000BB2A281A74AC039000B4AA31F94980874
:10176000A399072E08908038B802E401901820BA97
:101770006F1A08089A050AB3C3D1059B84A8130CF5
:101780002A81182AA27E800C80818109A2B2C248D7
:1017900031CF9798719080AADB0102000680A29455
:1017A0003A2E8B20B06C88189119A08800CC95A196
:1017B000000235003D0E8598D18120C2A030097A03
:1017C000A03A191A828A12C1A1D7A0148A8110AC3A
:1017D0002923CA97B012011F4B81094B0C048A3090
:1017E00085C0F9810810295981A948181F88A0943B
:1017F000A5B1834A2C8C9096C38289393B8939598B
:101800001F29A0B1C458E2082228B8ACA029881921
:101810002708080880080880800808800880800859
:101820008008800880088008800808080880808078
:101830000404000000760800006461746100050083
:101840000000FF2F00F4F874989988083018800879
:10185000A099A02308B5B6A4190B5A2A112E2B194A
:101860005B1AB0C295C5A210F0925808D19108A198
:10187000826A5D4B8AA1A20118980028F1B2D69223
:10188000102A28293E3E8AA2A3C4C37B81898809E5
:101890002008B2F2110928490BD8D494102A3B3BF6
:1018A0003C2B5A3D8AC5B3B4D3A2A3011A113E5BA7
:1018B0003C3B8AA28190B2D59328B9C383302E3A9B
:1018C0002E1980B1D5B3B3117A3B3D3B0AC20190CA
:1018D000D38208F2C4A3103A4C1B98A2125E3C3A81
:1018E0001BA0C49280B2C293B2D5B492384E3B1AB8
:1018F000A8B3036C3C0A900199C3B5B3B4A2205BB2
:101900002C09A1B392202F09B28298794C1BC19265
:10191000206C1A89D2A40088C2B4A481283C0D1A74
:101920005A49288090E8AA9811551280A9FA9A0875
:101930001055018888BA8F090044029098B99F0910
:101940001800DA540023008998FB8908483400996C
:10195000A0F98A093046808898D99A08203781A052
:1019600098D88C092045829898C88E881044829017
:1019700089A99F88004403909999AF9800440480F6
:101980000A8ABD98807314080A8AFA908030350854
:1019900099C0C00A1A294583A0090C8AC0A830231F
:1019A00001141201C8DCAC9A1042531312A8CBCD1B
:1019B0009A881153330381DACBAB8920425322003A
:1019C000C8BACA9A0932342402909BAEA9A8182436
:1019D000313321C8CACB808D80638131B101DAD81F
:1019E000191E010138121CA0D2A0805A19808384CC
:1019F000F389293D1B205AA0588B02D891F4A5A049
:101A0000B5E380F779188B8199A387090AB0861806
:101A1000391D180909F1A7A2182B19A281493C2ADE
:101A2000A1C5A1893A68291908E3D3A09910713199
:101A30000098CF890840068180E88A0A28711188B9
:101A400090001D50008F881851028098F9898810E5
:101A500054008888CC988021178188989E88083106
:101A6000070088B89D881861038090D89C88007210
:101A7000028088D98B891074010898D98A881064EB
:101A8000018888EA89881054018898FA988010445F
:101A9000018889FB89081035018898DC99882046DF
:101AA000018898EB99801055008098DA990928648C
:101AB000028898E89A881072028088B99E090852B4
:101AC00015088998AD99083147008998E9998028C7
:101AD00054829098B89E89187213809998CC9988EE
:101AE0002147019889C89B0B297316088A88D9A8B1
:101AF00088104682908A88AD9988511781A8889865
:101B00009C9A08721580A888889C9B8841470098F9
:101B10008989B9A99938478100118898A9DABC9BAD
:101B200008525323210001CDBDAA99011614049235
:101B3000020D290F8C8A08212602809899A0E8DAE4
:101B40008900B350000023048189990880DCAC0926
:101B50002874038098A901A2FB8D09286411889933
:101B6000891091CD9B0940370190A99A1283FC8C72
:101B70000920360288BA9A2114EAAD8810550288E5
:101B8000B99B3033B0EF8900620380A9AC183302EF
:101B9000FA9C08303600A8DB89222391FB8D08428D
:101BA0002380C99C19421108FA9B00511480A9ACEA
:101BB00008330380A8FD8A00440390CB8B30248037
:101BC0009910F98F18510288CA893022989902F326
:101BD0009F80422288DB0A3013A09B4851BF882097
:101BE0002582B9AD112391D99085D38C19611188C3
:101BF000BB0A510299AB2286F09A004401989D08D5
:101C00003281AA8A3205FB8B003601A99D183380E8
:101C1000BB0A4402FC8A104481B8AB282590BB194A
:101C20003402F98E084302A8AC183391DB09421242
:101C300098DF88301580B98B4113B9AD283482C93B
:101C4000DB00B64D00085312A0C9081392DC3961BD
:101C500010A8BF185292A88A3292CB980181898924
:101C600074218909BA9900003825F1BF4002A18189
:101C70000491BB8C2801801102F99F500198101229
:101C8000802A1FCF8197911838298B9A91110808C3
:101C900088008800088880000888008880000888FC
:101CA000800088008800080808088880808080807C
:101CB000040400000010050000646174610003006A
:101CC00000000100007F776F4F4D3C4B5B2D09FCFE
:101CD000270C80F301B1A5283C3A1D292A0188C0B0
:101CE000B592A29101001C3A3A7000BA9E9A08631C
:101CF000241108FA9D08085311080008CF8980585C
:101D000004808892F19A88803600982928BF8980BB
:101D10007803809902F99A80083780901A009F8A88
:101D2000806013089981FA99881054018909989C58
:101D3000909801231311012138B8FF9E880020429A
:101D4000231281C9DE9A881031341402000CDD9C04
:101D5000888152842011A8CC9D092133233390DF40
:101D6000AC882027010880EAAA890073038008A9AB
:101D70009F0A092027008880C999AA0941341020A8
:101D800082B9FBCC892853123201BAFDAA882127D7
:101D9000011080ACAD8A0873130080B0DD8A08287A
:101DA00046810008CB9D888062130008C8BD8980E9
:101DB0003047808080CC8A080864020808C99D8862
:101DC0000800904F0055010880D99C080860130056
:101DD00008A8BF88082836018080DC9B0808721399
:101DE0000008B9AF89083827018090FA9A0808627C
:101DF000130880B8AF0A882036110890FA9B0908AA
:101E000052241008A8BE9B881046120080C9BD8AC3
:101E1000083037110090EAAC89805143010098FBEB
:101E2000AB880052240100A8DCAB890063331200A8
:101E3000A8DDAC89004125110090DBBC9A803237C7
:101E4000030080CABE9A883055128100A9CDAB89A3
:101E5000107233010098DBBD9A084045128008B823
:101E6000DCAB89006334018008CADC9A88105423F3
:101E7000018888DACC9A88105513818089D8BCAA49
:101E80000928742301889899BE9C890851351280CD
:101E900088B9CABD9A991065330280A0DB9AACAAB2
:101EA00099286525010098CBABA89A9A89734602B8
:101EB0000188B9CC8A9098A9097236120088DAACE8
:101EC0008A00CC420083B8DC8974341281A8EBBB51
:101ED0000A4101A9CB896335220099CCAC89203312
:101EE00091DBBB0964342280AABDAC88203214A1E6
:101EF000BDAC1962341280AABC8B1092BDAD89634F
:101F0000352281A9CCBB8920322301A89AAA8083DB
:101F100093BA397B24121210B9FB9AAAA187120135
:101F200008D0A199011C8B02827039282F8ABA959A
:101F30000102948E01BA51694B000BACC69491809A
:101F4000101B089080B301280F002A08242F2A6C48
:101F50004B9F8709080808088008800880088008C7
:101F60008008088008800880088008800808080821
:101F700008808080808080040400000070060000DB
:101F800064617461000400000000040080F0776761
:101F9000FBA00EA88F817733A8FC9B081042233248
:101FA000800192BFCF9A00115232221091A9EEAD5A
:101FB0008800113424018188DACF898010312512FC
:101FC0000188A8EE9B8800204423020088EBCE897C
:101FD00008003234230180A8DFAC88081152431175
:101FE0008080B9CF9B8800215423010088DABE9BF2
:101FF0008810314622010098FABC9A080042352325
:10200000108098ECBC8B8810424512018098FABC75
:10201000998810413523018098DCBD9A0918323720
:1020200023118098EBBDAB8818415423018190D9CE
:10203000BD9C9900205433120080AACFBB9A88110E
:10204000734322000099EBCC9A09083245230281A0
:1020500090CACDBB8B09204525121188A8EBBCABDB
:102060008908434523120090CADCBBAA8930545327
:1020700022010099DBEBAA9A08314533230188CA73
:10208000EBCBAB9928524432003146000191B9DACA
:10209000DBBA99185162413C85984CA8D88AA1B402
:1020A0005381D3316B0AF00909002401090081B082
:1020B000EF88003113A8292192F09F88003103A8EE
:1020C000311180F09F8900212389230281F09F8AAA
:1020D00008113308241100C0BFBA891143115401FB
:1020E0000190ECBA9A18204353231080CACEAA99C3
:1020F00010313435110198DCBCAA09103355131284
:1021000080AAECBB9A88225344120298BBBE9D99C8
:10211000182244331201BADCBD9A881234442201D9
:1021200098CBCE99091832355390A1EAAAAA182063
:1021300034541081A9BDAB9A202337140091FBAA17
:102140009A083044241090D9AD9909211427010927
:10215000EB9A99194241528299EAABA818142226A7
:102160002290DD0B9C39423EA61208FB8890101489
:10217000B8334098EF10904181AA3104F88B3018A1
:1021800013D9894480DC083200364C0011FC0A2542
:1021900080EB884380A88C5101B88D488398AB3080
:1021A0001688CC082598AA282310D88F4081A90921
:1021B000140912FC0833A88C31A14891BF5082B990
:1021C00019049923F00C42889B31912C23FC1905AA
:1021D000B81A33BA6982AE4883BB3084BB53A19E20
:1021E00050919B31A29C34B09F51B10B32B10D2460
:1021F000B89D62B01B32C01B15C09B73B81A32D099
:102200001A1498AD61B10B32C11B3380DD49949B28
:1022100022928D2281E80B17AB2012CB301100CF18
:1022200050C21A21B02A8211E29E35BC32809A1126
:102230000914F92C960D03080A813902F92EA42BF2
:10224000810189811800A3FF248D8228A02880891C
:102250002001FF33AC8339B12880890050F15FD170
:102260003889038B8398082A16FC78C9112AA32B76
:102270008198982095D82FC63999148B0209A910F6
:10228000120BF46EC8112AA300EB5200120AC00010
:1022900020B816BF168C9240A81088980A22B863FE
:1022A000F93AB38828860980889B10842A83ED290F
:1022B000A2085084099098AC12211903CE8D048A8B
:1022C0001343A8009ACB09538822B1EB9F12838055
:1022D0008080088080080880800880080880088046
:1022E0000880088008800880088008808080800836
:1022F00008080404000000AF060000646174610077
:1023000004000000FF0400F7F7F7C5A491D97FF699
:10231000210AD1228BB2130CA2013FB48838C0A885
:102320006DC31930E8218889108802FB79B009153E
:10233000AB13A83091CF62BA28848C12A822E1ABEB
:1023400045BB31B31D12AA15C99A279D31D22982E6
:102350001C03AC2A978B52D821A14AA2BB7AD3087E
:10236000239D12B041A8DB63BA10850C129A14AAFF
:10237000BB379C30E329012B83AB0F978B61B910DE
:10238000A25990AA5DB29934AB38C222B0FA79A0B2
:102390008A079B409811A8FB438A2BA699311928DC
:1023A000AAAF07B869909A048001BA2F84C93298FD
:1023B0001C129091F959008C13C029212A89BF144D
:1023C000B22C31BB108680A91F22E810838B588164
:1023D000A0F910138E30A1A933018BBF23B6994108
:1023E000880B2392F91D51990A02B2804208DF013D
:1023F00004A80920280882F80E300198A9011411B8
:1024000099DF8000D052003181C8A8321499EC883D
:1024100018401188890101089CFA89002111314274
:102420003280FBDC9A09203243251190C8CCAD895B
:1024300010213425110899CCBD9A0821543222006C
:1024400098DBDCAB88105243130290B8DDAD8908ED
:10245000213434128098DBDD9A88114143230190A6
:10246000B8DE9C8A00215333130099EBBEAA0810F2
:102470004235138280B9DEBB89085015221280983C
:10248000DBBE9A08204334334A90CAECAA88101362
:1024900055110080C8DA9C89204141128281E0D91F
:1024A000BA0A104342412880B9FCBA88114332501D
:1024B0001119ACCE99801124041291B1AE8F8910FC
:1024C0003211321280AFAF98003304112118CCCDF5
:1024D00099004313114818FBDA981842130020287A
:1024E000FCBA89187312082818CDCA88105482883B
:1024F00010809F9B882136818801B0BF9A086115A2
:10250000808800004C5200BB8A094026819881C017
:10251000AD89197213080A00FB9A88103781981840
:10252000A09F8A084116809901D8AA891874028848
:102530000A01EB9A88113602A94B01AE9B80313714
:1025400090993280DE8A08411490892280EE8908B1
:10255000311490893200FC8C08301480A81203F8E2
:102560009F0810320009392188FF89001113800863
:102570002110DABF0910320481001100FBAF8881FD
:10258000233228080100FABF880040220282000896
:10259000A8FD8D0908324312000089E9BF898830FF
:1025A000442300009999FC8E88182134020088B9D0
:1025B000A8FD9A88185343018188CA99C99E890049
:1025C0005124130090CAAC88C09C89006433210058
:1025D00088EBCB0802BD98806124221080DABC9978
:1025E00041D19A091854132200A0CD9C0942C09AE7
:1025F0000A1835151200B0FBAA0831948F99802271
:10260000253101004C4300B9CF99082202AF9980CF
:102610002255118280CAAC8A1012A19F9A002446CA
:10262000100198BB9E891111B19E8919243612019F
:10263000A8CCAB981101B1AF9A1854441210A9CA92
:10264000BC99012120F8AA8940632402809ACCB861
:102650009001288BAFA91844451281A0B99C0C1A8F
:1026600098A0BBAB1A375631F0888080808080807C
:10267000808080808080808080808080800808804A
:10268000088080088008800880808080080808040E
:10269000040000000C060000646174610004000086
:1026A00000FD0000777757A220EB98DC8A31792370
:1026B0005091880AD9FB8D08115313130898B9FF5C
:1026C000CA09182327210118AAECAC8C80325422A5
:1026D0001108A8BDAFAA002145131100A8BCBFAACC
:1026E00008305414118090CABDAC88104425118064
:1026F00080BACF9A88104226010080B9CEAA8810ED
:102700004226110088A9CE9B09104217010090B8FB
:10271000DD8A88015314010098DABD890811551229
:10272000008098EC9B89002237020080B9CF8A880C
:10273000104116010088C9AE8908107312008098F4
:10274000DCAB88104136108090C9AF890811631244
:10275000000099ED9A80003226010098F99C090842
:102760001154118080B9BF89082062230000A9CFCD
:102770009A80104125010099EC9A88004215018049
:10278000B0BF89200804718108CABA894111123486
:102790009180ED9C093281332480A8DF9A08430898
:1027A00000155400110008CA9D095080102300989C
:1027B000F99D0851A020128190FA9C08539931028A
:1027C0000099F99D0834A941018198F99C1824A920
:1027D000410200A8E89D0834B9500280A0C9AD8824
:1027E00055B848010890A9BC0A73B23A14088899F0
:1027F000BE8A70940B23808099F99A2817AA418188
:10280000809889CD8873A02903088899EB9A382786
:10281000AB4300089999AE8A72B32B05808098C9A2
:102820009C8837B94802089809F88B0827B948826C
:1028300000A819E09B1937B9380201C829D09D8832
:1028400054B0290211C03BB2AE8A68858B0338812F
:102850009F03AAA88A66A8188022D8299808AD19CB
:1028600037A9182803CB9139F09A89579A013B83ED
:102870008AE130C9889A73A1913B8608C92189A849
:10288000BA2A670AB85208A01B81018EA9689490E1
:102890001B0420BAB16A98B08C6994811C820288AA
:1028A000002052000A888098AC503096201CA193DA
:1028B0001B9EA102BB2A1427498AB18388CB0A0830
:1028C000B8BE147220B1B3102A9BEC0018BB8C85E3
:1028D00027282A9AB2A3980E1A90D93B50879200C3
:1028E0001B2A91D8B00140AC8D820702181C0991B7
:1028F000C0A10038EBCA117221089988A2C18909C8
:1029000039A9BF1C222793800A3A99CAA19101DCF8
:10291000AC5B502293A18890BA890908B1EEDB0222
:102920005332101A8AA9A8B48898C8AA8C1B4C34B0
:10293000523200A80AA491BEBAAF9928702202822E
:10294000A0A111DAB80DAB1022824A89297008A51E
:102950000502B2F0AA2C4B192A2F29018582B1B4A5
:10296000E2A080A0181C3029123D0006999A088A1E
:10297000A788C3A04889397F7B892D01C0B4B4B230
:10298000A29491295B4C1A2A4A0A8880A1B3B59176
:10299000A1A393C28913813C2E19200A2F1929293A
:1029A000000137003B3F3A89801899B2C5C5A48120
:1029B0004B5B2A0A00080808080808880088008875
:1029C000008800880088008800880008080888803F
:1029D0008080041C383D43413A0080250000403887
:1029E0000000004B0000807000000096000000E135
:1029F00000008024010000C201004F4B00435049F9
:102A00004E3A205245414459002B435245473F001E
:102A10002B4350494E3F000100030303030303010E
:102A20000303030000000003A30110B30110C3015E
:102A300010D30110930108E3012C010204081020B7
:102A40004080010204081020010204081020040440
:102A50000404040404040202020202020303030346
:102A600003030000000023002600290000000000EE
:102A7000250028002B0000000000240027002A0069
:102A8000E02FEC2F11241FBECFEFD8E0DEBFCDBF6B
:102A900012E0A0E0B1E0EAECFAE702C005900D9286
:102AA000A237B107D9F725E0A2E7B2E001C01D9235
:102AB000AB34B207E1F715E1C1E4D5E104C02197D9
:102AC000FE010E94ED3CC034D107C9F70E94F835E1
:102AD0000C94133B0C940000CF92DF92EF92FF9284
:102AE0000F931F93E82FF92F05C0015011092109F9
:102AF000310961F1908196239417B9F305C0015013
:102B000011092109310911F1908196239413F7CF0E
:102B1000C12CD12CE12CF12C0AC08FEFC81AD80A95
:102B2000E80AF80A0C151D052E053F0579F080818D
:102B30008623841791F36C2D7D2D8E2D9F2D1F9153
:102B40000F91FF90EF90DF90CF90089560E070E0DC
:102B500080E090E01F910F91FF90EF90DF90CF9079
:102B60000895FA01AA27283051F1203181F1E89423
:102B70006F936E7F6E5F7F4F8F4F9F4FAF4FB1E070
:102B80003ED0B4E03CD0670F781F891F9A1FA11D6B
:102B9000680F791F8A1F911DA11D6A0F711D811D6C
:102BA000911DA11D20D009F468943F912AE0269F31
:102BB00011243019305D3193DEF6CF010895462F90
:102BC0004770405D4193B3E00FD0C9F7F6CF462F71
:102BD0004F70405D4A3318F0495D31FD40524193DA
:102BE00002D0A9F7EACFB4E0A69597958795779597
:102BF0006795BA95C9F700976105710508959B011E
:102C0000AC010A2E06945795479537952795BA95A6
:102C1000C9F7620F731F841F951FA01D0895E091CF
:102C20007202F0917302CF01019690937302809328
:102C300072026083E0917202F0917302108281E06F
:102C400090E0089580E0089580E0089580E0089580
:102C50000895FC011382128224E132E03183208343
:102C60000895FB012081822790E1899F9001112422
:102C70002827822F90E0582F44279C0163E0220FE1
:102C8000331F6A95E1F742275327218130E024273B
:102C9000352774E0959587957A95E1F782279327F4
:102CA0009183808308959C01862FB901DACF6CE768
:102CB00071E00E949C3C60566093890210928A02E7
:102CC00080918A028823E1F308950C941E370895B9
:102CD0000E942D38882329F00E9408380E94E83885
:102CE000F7CF08951F920F920FB60F9211242F93D2
:102CF0008F939F93EF93FF939091C6008091490526
:102D00008F5F8F7320914A05821741F0E09149054A
:102D1000F0E0E95FFA4F908380934905FF91EF91CE
:102D20009F918F912F910F900FBE0F901F9018952C
:102D30001F920F920FB60F9211248F939F93EF93D0
:102D4000FF939091480580914705981779F0E0919D
:102D50004805F0E0ED5FFA4F80818093C6008091D6
:102D600048058F5F83708093480505C08091C1003E
:102D70008F7D8093C100FF91EF919F918F910F9074
:102D80000FBE0F901F901895A1E0B0E0EAECF6E1BD
:102D90000C94183D7C018B01081B190B442361F036
:102DA000C8018E0D9F1D49830E94433DF701819309
:102DB0007F0149814150F2CF2196E6E00C94343DE9
:102DC000EF92FF921F93CF93DF937C01C62FD72FF3
:102DD000142F160F1C1741F0F70161917F01CE01EE
:102DE0000E944B3D2196F6CFDF91CF911F91FF902E
:102DF000EF9008950F931F93CF93DF93EC018B0116
:102E00000E94B033DC01CB01800F911FA11DB11DC9
:102E100088839983AA83BB83DF91CF911F910F9100
:102E20000895FC01138212822FE332E03183208364
:102E3000089568EE73E080E090E00C94E13360E088
:102E40008AE00E948534F5DF61E08AE00E948534E3
:102E5000F0CF61E08AE00E94493461E08AE00E949C
:102E6000853461E089E00E94493461E089E00E9494
:102E7000853461E086E00E94493461E086E00E948A
:102E8000853460E088E00E94493462E087E00E9477
:102E9000493481E08093900208950F931F93CF935C
:102EA000DF9395B7906295BF95B7906495BF14BEB8
:102EB00090916000977F9093600090ED90936000F8
:102EC00083FD02C098E001C098E28770892B98E1E9
:102ED0000FB6F894A895909360000FBE80936000A1
:102EE000A8958091600080648093600083B7817FA3
:102EF000682B63BF9FB7F8942FB3FB983DB31DBAFF
:102F000040916B0010926B0050916C0010926C001D
:102F100060916D0010926D0070916E0010926E00C5
:102F2000E0916F0010926F00F091700010927000AD
:102F3000ACB58CB58F778CBDB091C1008091C100CC
:102F40008F718093C100C091BC008091BC008E7FC6
:102F50008093BC00D0B780B7877F80BF10917A0084
:102F600080917A00877F80937A0007B787B78F7741
:102F700087BF789483B7816083BF889583B78E7F3E
:102F800083BF0FB6F894A895809160008861809304
:102F90006000109260000FBE07BF10937A00D0BF90
:102FA000C093BC00B093C100ACBDF0937000E0933F
:102FB0006F0070936E0060936D0050936C004093AF
:102FC0006B003DBB2FBB9FBF809160008F7B8093C8
:102FD0006000DF91CF911F910F91089564E05DCF64
:102FE0000F931F93CF93DF93EC018C01011582E0C7
:102FF000180720F089E0F2DF1250F8CFD0FF02C0AE
:1030000088E0ECDFC7FF02C087E0E8DFC6FF02C050
:1030100086E0E4DFC5FF02C085E0E0DFC4FF02C058
:1030200084E0DCDFC3FF02C083E0D8DFC2FF02C060
:1030300082E0D4DFC1FF02C081E0D0DFC0FF02C068
:1030400080E0CCDFDF91CF911F910F910895A0E038
:10305000B0E0EDE2F8E10C940E3D4091680450912F
:10306000690460916A0470916B04480F591F611DD7
:10307000711D409368045093690460936A047093CF
:103080006B049C01A8EEB3E00E94F33C4B015C0191
:1030900080916F0085FD63C0709064008091640032
:1030A000877F809364006090810080918100887F99
:1030B0008093810050908000C0918400D091850061
:1030C0000091880010918900E0908A00F0908B00B8
:1030D000C0908600D090870040906F0010928000D2
:1030E00010928100109285001092840010926F005F
:1030F00083E08093810060E080E0CFDE80918400F7
:10310000909185001092810040926F00D0928700CC
:10311000C0928600F0928B00E0928A0010938900A2
:1031200000938800D0938500C09384005092800063
:103130006092810070926400880F991F880F991F18
:1031400090936D0480936C04A0E0B0E0881699061B
:10315000AA06BB0680F0881A990AAA0ABB0A20911F
:103160006C0430916D0440E050E0C501B4010E9450
:10317000AF3CC90135DFCDB7DEB7E0E10C942A3DA5
:103180001F920F920FB60F9211248F934198809146
:10319000BE0381112C9A8F910F900FBE0F901F903C
:1031A00018951F920F920FB60F9211248F93419A88
:1031B0008091BE0381112C988F910F900FBE0F90BC
:1031C0001F90189598E04298000087FF02C0419A2E
:1031D00001C041980000429A0000880F915099F771
:1031E000429808955C9A42985C98ECCF429898E097
:1031F00080E0429A000026B12170880F822B42980D
:1032000000009150B1F708958F77ECDFEFDF5C9A03
:1032100008951F920F920FB60F9211242F933F9390
:103220004F935F936F937F938F939F93AF93BF93CE
:10323000EF93FF93CF93DF931F92CDB7DEB783E079
:10324000E3DF898384E0E0DF8983898186FF07C02B
:1032500081E08093430486E2D7DF809342040F909D
:10326000DF91CF91FF91EF91BF91AF919F918F919E
:103270007F916F915F914F913F912F910F900FBE72
:103280000F901F901895A1E0B0E0E9E4F9E10C94EB
:103290001C3D80686983A6DF6981862F93DF5C9A75
:1032A0002196E2E00C94383DCF92DF92EF92FF92AC
:1032B000CF93DF937B019C0140E050E060E271EA34
:1032C00087E090E00E94D13CE9010E94B0339B016D
:1032D000AC012E0D3F1D411D511D69017A010E9457
:1032E000B0336C157D058E059F0548F4419ACE01DB
:1032F0000E941B344198CE010E941B34F0CFDF9115
:10330000CF91FF90EF90DF90CF90089568E572E045
:10331000CBCF66E970E0C8CFA4E0B0E0E2E9F9E124
:103320000C94103D83E070DF84E06EDF0CE112E06E
:10333000F8018491882331F00E5F1F4F319664911C
:10334000A2DFF6CF60912F0189E09DDF80918F0190
:1033500090919001A0919101B0919201883E93408B
:10336000A105B10528F061EC8CE18DDF84E004C09B
:1033700061ED8CE188DF85E080908F019090900175
:10338000A0909101B0909201082F10E0C80102971F
:10339000A501940104C0220F331F441F551F8A95B5
:1033A000D2F760E673EE86E190E00E94AF3C6901DF
:1033B0007A01025F1F4FC501B40104C0660F771F79
:1033C000881F991F0A95D2F727EC3DE240E050E0B4
:1033D0000E94AF3C6C2D80E22C833B8349835A834F
:1033E00052DFD701C60188279770AA27BB2723E0A1
:1033F000B695A795979587952A95D1F74981682F16
:10340000642B81E240DF2C813B8149815A819927DD
:10341000852F742F632F82E236DF2C81622F83E2A7
:1034200032DF60E070E880E090E0A70196010E9442
:10343000AF3C89010E5F1F4F612F677084E223DF6D
:10344000602F85E220DF80902B0190902C01A090CE
:103450002D01B0902E01811428E392062CE9A206DA
:103460002CE1B20650F002E0C12C9DE2D92E91E38E
:10347000E92EFF24F39411E009C004E080E8C82E8F
:1034800086E9D82E88E9E82EF12C10E0C501B401B8
:10349000A70196010E94AF3C390188E1681A7108C2
:1034A000C701B6010E946D3CA5019401261B370B94
:1034B000480B590BA02FB0E00E94023D21E732E0FB
:1034C00040E050E00E94AF3C111102C090E401C006
:1034D00090E6862D8F71692F682B85E72C833B83BF
:1034E000D2DE3B81632F86E7CEDE2C81622F87E719
:1034F000CADE2496EEE00C942C3D61E070E080E0A2
:1035000090E00C94E1336AE070E080E090E00C948D
:10351000E133A0E0B0E0EFE8FAE10C94163D0E9440
:10352000B0336B017C0120EDC20E27E0D21EE11CFE
:10353000F11CEFE3FAE2C491E3E5FAE2E491F0E092
:10354000EE0FFF1FE459F54D05911491DC2FD09536
:103550000E94B0336C157D058E059F0570F4F8014F
:1035600080818C2B808380ED97E00E941B34F801D2
:1035700080818D238083C7DFEBCFCDB7DEB7E8E056
:103580000C94323D0E942D388823B1F06EEA72E02F
:1035900088EA93E00E94113984EA93E00E94363869
:1035A000882341F00E940838682F88EA93E00E943F
:1035B0003135F2CFA8DFE6CF089562E370E080E016
:1035C00090E00C94E133F9DFF8CFA0E0B0E0EBEE4F
:1035D000FAE10C94113D6C017B01EA010E94B033C9
:1035E0004B015C018C0E9D1EA11CB11C10928D0222
:1035F00010928C02D1E0E114F10409F0D0E0439A7A
:10360000E2DF439867E972E088EA93E00E941139AB
:10361000C0E003E912E077DF0E942D38882309F427
:103620004AC02D9A0F5F1F4F0E940838782EF8016C
:1036300031978083F8011082682F88EA93E00E9416
:103640003135FAE07F1205C063E288EA93E00E9418
:1036500031350E942D388111E5CF2D98C1111AC046
:10366000B60183E992E00E943F3B90938F028093E2
:103670008E02892B71F461E972E083E992E00E9485
:103680003F3B90938F0280938E02892B19F0C3E009
:1036900001C0C1E0E114F10491F0B70183E992E0C7
:1036A0000E943F3B90938D0280938C02D1E0892B46
:1036B00031F4D0E004C0CC2311F0D11108C00E9435
:1036C000B033681579058A059B0508F4A4CFC0932B
:1036D00092028C2FCDB7DEB7EDE00C942D3DA0E02B
:1036E000B0E0E5E7FBE10C94163DD62F6091900227
:1036F0006623A9F169017A01C72F8C0143DFCF93BB
:10370000DF9382EA92E09F938F9388EA93E09F93FE
:103710008F930E942E396CE972E088EA93E00E9450
:103720001139B80188EA93E00E94253969E972E00D
:1037300084EA93E00E941139B80184EA93E00E9480
:103740002539A601B7018D2F9C2F3FDF91E00F9007
:103750000F900F900F900F900F90813009F090E034
:10376000892FCDB7DEB7E8E00C94323D20E137E297
:10377000B6CFCF93CDE3C150B1F04DE353E06AEF44
:1037800079E289E09AE2F2DF882369F0E0918C0225
:10379000F0918D028085833331F0853331F08133B0
:1037A00021F047DBE8CF80E001C081E0CF910895B0
:1037B00041E652E06AEF79E287E692E0D7DF8823BC
:1037C00031F080918C0290918D020596089580E0F1
:1037D00090E008959A0140E050E081CF40E157E247
:1037E000F9CF6AEF79E2FACF88ED92E0FADF80ED67
:1037F00092E0F7DF91E0811101C090E0892F0895F8
:10380000AB016AEF79E2E6CF0F931F93CF930AEDF6
:1038100019E2CFE068EC70E08CE393E0F1DF811116
:1038200029C0C150B9F70E943D38F801219131916A
:10383000419151918F01DA01C901B695A7959795EC
:103840008795BC01CD017C5D8B409F4F0E94AF3CB2
:10385000CA01B9010E94FE35F9E20A3F1F07C9F605
:103860000E943D3861EA71E080E090E00E94FE3500
:1038700080E001C081E0CF911F910F910895809168
:1038800090028823A9F068EC70E083EF92E0B8DF43
:1038900048EC50E06EEE72E085EE92E09BDF0E9415
:1038A0003D3880916400886080936400109291029A
:1038B000089580919002882381F080916400877F31
:1038C0008093640061EA71E080E090E00E94FE3540
:1038D0009BDF80E093E085DFD2CF0895AB0160E00D
:1038E00070E073CE0F931F93CF93DF93FC01208181
:1038F000222309F43BC08B01EC0189E892E071DFDF
:1039000081E892E06EDF67E772E084EA93E00E946C
:103910001139BE0184EA93E00E942F3533DE65E75A
:1039200072E084EA93E00E94253968EB7BE083E74C
:1039300092E0D4DF8130E1F4B80184EA93E00E94A0
:103940002F356AE184EA93E00E944C3540E355E765
:103950006CE672E08AEF99E238DE813049F420911A
:103960008C0230918D02232B21F402C081E001C032
:1039700080E0DF91CF911F910F91089524DE23DE27
:1039800022CE60E086E00E948534F8DF61E086E0C8
:103990000E94853418CECF9330919002332309F4DE
:1039A0005AC020919102211156C09B01AC01809117
:1039B0006400877F80936400DA01C901B695A795FA
:1039C00097958795BC01CD017C5D8B409F4F0E94F0
:1039D000AF3CCA01B9010E94FE3531DACBE014DFF9
:1039E0008823E1F08EE293E0FCDE86E293E0F9DEEC
:1039F0008EE193E0F6DE6DEF79E280E19AE2EEDEB1
:103A0000882371F0B6DE882359F065E173E08DE01C
:103A100093E0E4DE982F882319F019C0B2DF0FDAA3
:103A200083E093E0DEDE05DA04DA03DA02DA01DAB3
:103A3000C150A9F60E943D3880916400886080934F
:103A4000640090E031E0911106C030E004C081E0F4
:103A500080939102F7CF832FCF91089560E076E9AC
:103A600080E090E098CFCF93882311F0BDDE23C093
:103A700088DFCBE0C9DE882399F083EC92E0B1DEE9
:103A80008BEB92E0AEDE882391F06DEF79E280E17E
:103A90009AE2A4DE882359F06CDE882341F00BC043
:103AA00070DFCDD9C6D9C15029F780E004C081EBC1
:103AB00092E097DEF7CFCF910895AF92BF92DF9259
:103AC000EF92FF920F931F93CF93DF931F92CDB787
:103AD000DEB78C0157DDD12C65E572E084EA93E016
:103AE0000E941139DD2011F08AE201C083E20E94B8
:103AF0004E364AE050E0B80184EA93E00E94F23585
:103B000062E572E084EA93E00E94253968E97AE38D
:103B10008BE492E0E3DE813039F0D11003C0DD2484
:103B2000D394DACF80E05EC0898328DFA0918E0233
:103B3000B0918F025D0196E0A90EB11C50E0EDEE50
:103B4000F3E020E030E060E040E07DE28981D501F3
:103B50009D915D01992309F444C0923221F46111D1
:103B600041C061E0F4CF662391F3DD20B1F189011A
:103B700024E0000F111F2A95E1F791360CF09052C6
:103B800030ED390F3A3014F039EC390F7801E30E8B
:103B9000F11C37FDFA9497014F5F4430C1F69E2D1A
:103BA000052F10E00D52164DD8014C91E41202C0C1
:103BB0005F5F07C0563021F470831182319601C0D7
:103BC00050E02F3F310529F020F020E030E040E0C8
:103BD000BECF908311823196F8CF908311823196B7
:103BE000B6CF862F0F90DF91CF911F910F91FF904D
:103BF000EF90DF90BF90AF900895AEE0B0E0E3E0CB
:103C0000FEE10C941B3D90E058DF882379F1198286
:103C1000ADEEB3E010E0FE013196CF012D91211100
:103C200004C02981211111C021C02D3211F411E0ED
:103C3000F5CF30ED320F3A3020F4208311823196E7
:103C4000EDCF2D7F2C3251F7ECCF0E94ED3A1123AE
:103C500041F06115710539F088279927861B970B6C
:103C600007C0CB0105C08FEF9FEF02C080E090E05E
:103C70002E96E3E00C94373DA1E0B0E0E2E4FEE1F3
:103C80000C941B3D182F8091A104811107C06983FA
:103C900043DB81E08093A10490DC69818DE6F3DA57
:103CA000612F87E0F0DA2FDC2196E3E00C94373DBA
:103CB00060E089E0E1CF9091A104911102C08823D6
:103CC00019F060E087E0DFDA1092A104089580E047
:103CD000F2CF67E089E0D0DF84EF91E017DB64E0AA
:103CE00089E0CADF8AEF90E011DB60E089E0C4DFA1
:103CF00080EA90E00BDBEBCF7058A0918B02B0E034
:103D0000FD01EE0FFF1FE05AFB4F4591549182FFDA
:103D100002C09A0102C020E030E05695479581FF2D
:103D200002C0240F351F5695479580FF02C0240F0F
:103D3000351F56954795240F351F83FF08C026175A
:103D4000370770F4AB01421B530B9A010EC0AB0155
:103D5000409550952417350730F4260F371F05C0BE
:103D600020E030E002C02FEF3FEF8770E82FF0E057
:103D7000EE5EFA4FE491AE0FB11DA935B10514F016
:103D8000A8E5B0E0A0938B02C901905808951F9256
:103D90000F920FB60F9211248F939F9386B5909137
:103DA0008802890F87BD80918702882359F080910E
:103DB00086028F5F8093860280FD02C080ED04C082
:103DC00080E302C0809189028093B30081E08093F8
:103DD0008A029F918F910F900FBE0F901F901895A0
:103DE00022E32093880221E020938702BC0180E037
:103DF00090E00E94E13310928702089584E690E0FB
:103E0000EFCFEAE7F0E080818068808380818B7F5C
:103E1000808380818660808376CB1F920F920FB65D
:103E20000F9211248F93EF93FF930FB6F894A895F8
:103E300080916000886180936000109260000FBEE6
:103E4000A895E0E6F0E080818F7B8083FF91EF9181
:103E50008F910F900FBE0F901F901895A4E0B0E0C7
:103E6000E4E3FFE10C941B3DCCDF14E620E030E0FE
:103E7000A90182E129833A834B835C830E94D73472
:103E800029813A814B815C81280F391F411D511DC9
:103E900029833A834B835C8330DB115029813A813B
:103EA0004B815C811111E5CF80917A008F778093EF
:103EB0007A00AAE0B0E00E94023D21E035E040E057
:103EC00050E00E94AF3CC9012496E3E00C94373DDA
:103ED000A4E0B0E0EEE6FFE10C941B3D92DF10E4BD
:103EE00020E030E0A90183E129833A834B835C839E
:103EF0000E94D73429813A814B815C81280F391F78
:103F0000411D511D29833A834B835C83F6DA11509E
:103F100029813A814B815C811111E5CFA0EAB1E0A2
:103F20000E94023D26E096958795779567952A959C
:103F3000D1F723E330E040E050E00E94AF3C21386D
:103F40008CE038074105510560F58EE480937C00D4
:103F5000D4DA14E620E030E0A90129833A834B83C8
:103F60005C83CBDA80917A00806480937A005C81F4
:103F70004B813A81298180917A0086FDFCCF809126
:103F800078006091790090E0962B280F391F411D31
:103F9000511D115011F76BE173E682E197E00E9429
:103FA000AF3CC9012496E3E00C94373D8091410475
:103FB000811105C080911A01833320F081508093D4
:103FC0001A0102C010921A0120911A01223350F0F6
:103FD00088E790E0821B91096AE070E00E949C3CB7
:103FE000862F089587E00895E1DF682F89E044CEA9
:103FF0008091BE03811102C0F7DFC0CC08958F927B
:104000009F92AF92BF92CF92DF92EF92FF92CF93A7
:10401000DF936B017C0197FF0DC06DE280E892E0B9
:104020000E943135F094E094D094C094C11CD11C0E
:10403000E11CF11C80E8882E86E9982E88E9A82EDC
:10404000B12CC701B601A50194010E94D13CE90140
:1040500060E879E687E69FEF0E946D3CA701960134
:10406000260F371F481F591FA0E1B7E20E94023DEB
:10407000A50194010E94AF3C5F934F933F932F9310
:10408000DF93CF9387E092E09F938F9380E892E055
:104090009F938F930E942E398DB79EB70A960FB6C5
:1040A000F8949EBF0FBE8DBFDF91CF91FF90EF9030
:1040B000DF90CF90BF90AF909F908F90089581E058
:1040C0008093910481E091E0909373028093720257
:1040D000609186047091870480918804909189048E
:1040E0008EDF63E280E892E00E94313560918A04BD
:1040F00070918B0480918C0490918D0480DF80916D
:104100009804882329F06AE280E892E00C94313523
:104110000895A4E0B0E0EFE8F0E20C941A3D42E02C
:1041200062E070E0CE0101960E94C41689819A81F6
:10413000C797A1F58FEF9FEF9093AD038093AC03EA
:1041400084EE90E09A838983CE0103969C838B83CF
:1041500004E010E089819A81892B79F0C8010E94DE
:10416000433D6CEA73E00E94311689819A81019780
:104170009A8389830F5F1F4FEDCF42E060E070E0CC
:10418000CE0101960E94C41681E049815A81209196
:10419000AC033091AD034217530709F080E0249639
:1041A000E4E00C94363D44EE64E070E08BE291E094
:1041B0000C94C416EF92FF921F93CF93DF938FEF6F
:1041C0009FEF9093AD038093AC038BE2E82E81E0E8
:1041D000F82EC4E0D0E0F70111917F01612FCE01EC
:1041E0000E944B3D6CEA73E0812F0E9431162196AC
:1041F000C83ED10581F742E060E070E08CEA93E0D0
:104200000E94E01687E390E09093AD038093AC03A7
:1042100042E062E070E08CEA93E00E94E01663EF17
:1042200071E088EA93E00E94113988EA93E00E94E5
:1042300039350E94E138DF91CF911F91FF90EF90C7
:104240000895FC0180819181A281B3818F3F9F4FAE
:10425000AF4FBF4F61F081E0448155816681778126
:104260004F3F5F4F6F4F7F4F19F080E0089581E01F
:1042700008951F93CF93DF93C091EC0388E0C89F0C
:10428000E0011124C85FDE4F11E648E0BE0186EB75
:1042900093E00E94C41686EB93E0D3DF811123C024
:1042A0004091B6035091B7036091B8037091B90380
:1042B0002AE030E088EA93E00E94A33580E20E9481
:1042C000E8384091BA035091BB036091BC037091F0
:1042D000BD032AE030E088EA93E00E94A33588EA33
:1042E00093E00E9439352896C11583E0D80710F075
:1042F000C0E0D1E0115049F6DF91CF911F910895B0
:104300000F931F93CF931092EC0348E060E071E0AD
:1043100086EB93E00E94C41600E011E0C0E0085F65
:104320001F4F011583E0180710F000E011E048E08E
:10433000B8018EEA93E00E94C41686EB93E081DF19
:10434000CF5F811128C08EEA93E07BDF882319F1CB
:1043500088E0E6EBF3E0A6E8B4E001900D928A95E0
:10436000E1F7C093EC0388E0EBE1F1E0AEEAB3E003
:1043700001900D928A95E1F788E0EEEAF3E0A6EB72
:10438000B3E001900D928A95E1F78091EC03CF9113
:104390001F910F91089588E0EEEAF3E0A6EBB3E0F9
:1043A00001900D928A95E1F7C13609F0B8CFDBCFC5
:1043B0006091EC0388E0689FB0011124739548E098
:1043C00086E894E00E94E0168091EC038F5F8036CF
:1043D00018F48093EC0302C01092EC036091EC039C
:1043E00088E0689FB0011124739548E08BE191E06B
:1043F0000E94E016109292040895439A7ED8439842
:1044000008954F925F927F928F929F92AF92BF9248
:10441000CF92DF92EF92FF920F931F93CF93DF9390
:1044200000D01F92CDB7DEB710928B0220916400AE
:104430002F7B2093640023E0209370002093B00032
:1044400021E02093B1001092B30022E025BB20911F
:104450006E00226020936E00662351F069838A8388
:104460009B83CCDCB0D8698161509B818A81F4CF79
:104470008C01E12CF12C5CED852E55E0952EA12CC4
:10448000B12C60918B0170918C0180918D01909184
:104490008E010E94E133F80191918F01992309F473
:1044A0005FC09B83AADF9B8180ED890F8A3050F526
:1044B00090E0880F991FFC01E25DFA4F45905490FF
:1044C000FC01E65EFA4FC590D49020918B013091AB
:1044D0008C0140918D0150918E01ACEDB0E00E94B5
:1044E000023D605E7C448B4F9F4FA50194010E946A
:1044F000AF3C3695279536952795209388021092E4
:104500008A0210C0933219F479DC57D802C09E3267
:1045100011F474DC05C09A3219F484EF91E060DC88
:104520002DDAAFCF80918A028823E1F3C40CD51C29
:104530004C145D0409F4A5CFF2017490B701872DE6
:10454000DBDB7C010E945716B701872D82958F70A7
:10455000D3DB7C010E945716FFEF4F1A5F0AE8CFAA
:1045600080916E008D7F80936E001092700010928B
:10457000B1002C98809164008064809364000F9057
:104580000F900F90DF91CF911F910F91FF90EF90BF
:10459000DF90CF90BF90AF909F908F907F905F9073
:1045A0004F900895A3E0B0E0E8EDF2E20C941C3DDA
:1045B0006B8389839A831CDD6B8189819A8121DFDA
:1045C00086DB2396E2E00C94383D6F927F929F92B7
:1045D000AF92BF92CF92DF92EF92FF920F931F9311
:1045E000CF93DF931F92CDB7DEB78C01809164002B
:1045F0008F7B8093640083E0809370008093B00091
:1046000081E08093B10082E085BB80916E00826082
:1046100080936E00662339F06983F0DB0E94E31A11
:1046200069816150F7CF80E18093880280E88093B0
:104630008902F80101900020E9F73197DE2ED01AA7
:10464000C02E380188E1B82E00E112E098EAE92E88
:1046500093E0F92EAA24A39420E8922E862D8C199B
:104660008D15C8F5CADEF30181913F018E3251F0FC
:1046700028F4833261F08A3229F006C080538A30F0
:1046800038F002C08BE004C0909289021BC08AE01F
:104690008B9D802D11248B5F8093840280918402F6
:1046A0001F928F931F930F93FF92EF920E942E39C8
:1046B0000E94E138A09285020F900F900F900F900A
:1046C0000F900F905BD90E941917109285020E94DB
:1046D000DD1A54D9C3CF80916E008D7F80936E0018
:1046E000109270001092B0001092B1002C9880913E
:1046F00064008064809364000F90DF91CF911F91DC
:104700000F91FF90EF90DF90CF90BF90AF909F9070
:104710007F906F900895A3E0B0E0E1E9F3E20C949C
:104720001C3D6B8389839A8363DC6B8189819A81C9
:104730004CDFCDDA2396E2E00C94383D60915B01CA
:1047400070915C0180915D0190915E010C94E13368
:10475000AF92BF92CF92DF92FF920F931F93CF93AE
:10476000DF93A6DAD0E0F12CC0E090E1A92E97E229
:10477000B92E6D2F89E00E9443190E94831A10926E
:1047800043042D9A65E087E00E944319D7DF2D98F6
:10479000809143048823D1F0F3948AE0C82ED12C71
:1047A00000E010E065E087E00E9443190E94DD1AF6
:1047B0008BE20E940419080F111D81E0C81AD1086C
:1047C00089F70A151B0514F4CD2F5801DF5FD03887
:1047D00081F67DDA80E48F1510F48C2F01C080E023
:1047E000DF91CF911F910F91FF90DF90CF90BF90FD
:1047F000AF900895EF92FF920F931F93CF938C0188
:104800007B01C0E00E94B538811109C0E114F104B8
:1048100019F0F7010995F6CF0E947D1AF3CF0E9497
:10482000C4388D3051F4F801EC0FF11D1082CF9196
:104830001F910F91FF90EF900895CC2319F08A30CB
:1048400019F4F1CF8A30F1F2F801EC0FF11D8083F9
:10485000C034C0F6CF5FD6CF60E070E0CBCFCF9250
:10486000DF92EF92FF92CF93DF936A017B01E90120
:10487000BC0188EA93E00E9411392AE030E0B701D8
:10488000A60188EA93E00E94E535BE0188EA93E03C
:104890000E941139DF91CF91FF90EF90DF90CF9080
:1048A000089582EC91E00C942718CF93DF93EC01EC
:1048B00061E085E00E948534209771F02C9A809108
:1048C0006E0490E00E941B342C9880916E0490E05E
:1048D0000E941B342197F0CF60E085E00E94853470
:1048E000DF91CF910895EDEEF3E06AE00E947C3C09
:1048F000805D8083905D918312820895A1E0B0E095
:10490000E4E8F4E20C941C3D6983EDDF69818DEEEF
:1049100093E048DE2196E2E00C94383DCF93C82F17
:1049200081110BC08091730180FD07C083FD05C01C
:104930008091730181FD10C00DC080913D048111F3
:1049400002C063E001C060E081E091E02BDECC2397
:1049500079F30CC084FF0AC080913D04811102C02C
:1049600063E001C060E081E091E0D5DECF91089581
:1049700087EB90E09ACF83E393E097CF10924304C4
:1049800060E085E079D9DADE86E20E94041980933E
:1049900040049DD9A8950895CF93DF93EFDF8091D0
:1049A0004304882361F0C0914204D4E6809143041B
:1049B000811107C080914004873418F406C080E05C
:1049C0000FC0DCDFBBDED15089F7C23270F08C2F14
:1049D00090E0819795958795843691050CF083E654
:1049E00080934104DF91CF91089581E0F9CFCF9377
:1049F000C82FD2DF8823A1F081E0809390048091BA
:104A0000640490916504A0916604B091670480935A
:104A10002E0490932F04A0933004B093310406C069
:104A2000CC2321F0C15029F33CDFE3CFCF9108958F
:104A3000CF9361E08CE00E948534CDEFC33010F459
:104A40009ADF03C081E191E030DF80E0D0DF809128
:104A50004104811103C0CF5FC63081F760E08CE074
:104A60000E948534CF91089508950F931F93CF939B
:104A7000DF9300916301000FC1E0182FD1E088237C
:104A800099F0A89530DF60E08DEE93E08BDDD111D9
:104A900002C086E001C082E0AADF80914104882341
:104AA00019F0182FD0E0EBCFDD23C1F1D0915F01D9
:104AB000DD23A1F180918701811728F080916F019A
:104AC0008823A1F007C0B4DF909141049923B1F38A
:104AD000892FD3CFFED8802F8ADF8091410488238D
:104AE00021F0182FD1E0C0E0CACFC0E0809173015F
:104AF00080FD04C081FD02C082FF03C080E00EDFA4
:104B000002C0CC2349F0D13039F0802F70DF909172
:104B10004104C1E09111DCCFD150CACFDF91CF91D8
:104B20001F910F910895CF92DF92EF92FF9240E193
:104B300050E0E0E0F0E820E030E8EE9F6001EF9F19
:104B4000D00CD00C1124E12CF12C6C157D058E05B8
:104B50009F0510F4E227F327369527954150510918
:104B600019F0E22BF32BE9CFCF01FF90EF90DF900C
:104B7000CF900895A0E0B0E0E0ECF5E20C94123D97
:104B80008C01EB01FC0180819181A281B381C880FD
:104B9000D980EA80FB80BC01CD016C197D098E09AA
:104BA0009F0997FF07C090958095709561957F4FFD
:104BB0008F4F9F4F24E630E040E050E00E94D13C10
:104BC00069017A01F80184819581A681B7814C81C0
:104BD0005D816E817F818C019D01041B150B260B6D
:104BE000370BC901B80137FF07C0909580957095C4
:104BF00061957F4F8F4F9F4F24E630E040E050E0BB
:104C00000E94D13CCA01B9010E946D3C4B015C017C
:104C1000A7019601C701B6010E946D3C680D791D80
:104C20008A1D9B1D80DFBC0180E090E0CDB7DEB720
:104C3000ECE00C942E3DCF93DF9390919404992354
:104C400009F454C090919504911150C0C82F8DEE75
:104C500093E090937302809372028091980488236A
:104C600031F06CEE71E080E892E00E942539CC23AF
:104C700031F065EE71E080E892E00E94253963EE44
:104C800071E080E892E00E942F3561E071E080E8F9
:104C900092E00E943C3580E00E94331D6DEE73E08F
:104CA00083EA91E00E94721CD82F6DEE73E083EBD3
:104CB00091E00E94721CC1E0811103C0D11101C0BA
:104CC000C0E06DEE73E083EC91E00E94721C8111F4
:104CD000C1E06DEE73E083ED91E00E94721C8111E2
:104CE00002C0CC2319F081E080939504DF91CF912D
:104CF00008956DE474E088EA93E00E94113988EA2F
:104D000093E00E9439350E94E13881E08093990454
:104D10008091CF039091D003A091D103B091D203A1
:104D20004091C3035091C4036091C5037091C603C1
:104D3000841B950BA60BB70B8D3B9240A105B105CB
:104D400014F00E94891A81E076DF109295040C9489
:104D5000F41B80919D04811103C01092A303089558
:104D60008091990481111DC04091BF035091C003EF
:104D70006091C1037091C2038091CF039091D003E1
:104D8000A091D103B091D203481759076A077B0756
:104D900024F38091A3038F5F8093A3038A3108F0EB
:104DA000A8CF0895A2E0B0E0E8EDF6E20C940C3D47
:104DB00010928E041A8201E010E082E0282E312C3D
:104DC00044244A94542C0E94B538882309F4E0C244
:104DD0000E94C438282F109274028091770290911B
:104DE00078028B30910508F0B1C0FC01EC5CFF4FFC
:104DF0000C94ED3C10927F0210927E022E3F29F01F
:104E00001093780200937702A1C03092780220922A
:104E1000770210929602509294024092930296C0AA
:104E20002093960210927902622F83E992E00E9409
:104E3000531684E090E009C020939702622F83E923
:104E400092E00E94531683E090E090937802809362
:104E500077027CC020939802622F83E992E00E943F
:104E6000531685E090E0F1CF20939902622F83E9F9
:104E700092E00E94531686E090E0E7CF20939A02DA
:104E8000622F83E992E00E9453168091960281116D
:104E900003C088E090E0D9CF87E090E0D6CFE091E2
:104EA000790281E08E0F80937902F0E0E556FD4FA4
:104EB0002083622F83E992E00E9453169091790239
:104EC00080919602981342C0E4CFE0919A02F0E0FC
:104ED000EA5BFC4F649183E992E029830E945316B8
:104EE0002981422F50E0809193029091940299275A
:104EF0004817590731F02E3F09F487CF8AE090E038
:104F0000A4CF89E090E09093780280937702E091BB
:104F10007902F0E0E556FD4F18C0422F50E0609056
:104F20009402712C4615570509F068CF0A9709F4C9
:104F300065CF91E09093740210937802009377020A
:104F4000E0917902F0E0E456FD4F20832091740255
:104F5000222399F08091970280937A0280917C02BB
:104F600090917D02009721F410927F0210927E02B0
:104F7000019690937D0280937C0210927602222308
:104F800009F4FDC160E070E088EE93E00E94FA163B
:104F900021E020938E0420938F0480919A0288232D
:104FA00039F19091E703992321F02091980292130F
:104FB000EFC18E3309F49BC188F4883171F18E31D1
:104FC00009F4A4C0813009F0DAC18091A90290915E
:104FD000AA029093C8038093C703D1C1893609F40C
:104FE000F0C08D3F09F4AFC18A3409F0C8C143C095
:104FF00080919F02863009F4C2C18091980280930B
:10500000E70380919B028093D7038091A102881FC0
:105010008827881F80939D04B2C18091A30290913C
:10502000A402A091A502B091A60280938604909359
:105030008704A0938804B09389048091A70290917B
:10504000A802A091A902B091AA0280938A04909329
:105050008B04A0938C04B0938D048091B70280934D
:10506000E5038091B8028093E60381E08093920487
:1050700091E09A8384C1F090AD02F092E40320E0C5
:1050800030E048EC52E46091A3027091A402809158
:10509000A5029091A6020E940A3C0E94883B609360
:1050A000E0037093E1038093E2039093E30320E035
:1050B00030E048EC52E46091A7027091A802809120
:1050C000A9029091AA020E940A3C0E94883B609328
:1050D000DC037093DD038093DE039093DF03E091A4
:1050E000D703F0E0E95EF54D208121FB332730F94D
:1050F00020FF45C1311143C168317C4F8F4F9F4F15
:105100000CF41FC1FF2009F41CC139C121EE3EE29D
:1051100045E652E46091A3027091A4028091A50239
:105120009091A6020E940A3C0E94883B6B017C0180
:105130007093DB036093DA0321EE3EE245E652E42E
:1051400060919F027091A0028091A1029091A202B1
:105150000E940A3C0E94883B7093D9036093D80355
:10516000E091D703F0E0E95EF54D208120FF07C113
:105170000D2C000CEE08FF08F7FE08C0F094E09438
:10518000D094C094C11CD11CE11CF11C21E5C216B5
:10519000D104E104F1040CF0D4C0CB01770FAA0BC9
:1051A000BB0BB7FF07C0B095A095909581959F4F19
:1051B000AF4FBF4F81359105A105B1050CF0C1C0BE
:1051C000DEC08091CF039091D003A091D103B09124
:1051D000D2038093BF039093C003A093C103B09305
:1051E000C20320E030E048EC52E46091CF027091BD
:1051F000D0028091D1029091D2020E940A3C0E947A
:10520000883B6093CF037093D0038093D103909336
:10521000D20320E030E04AE754E46091A3027091A9
:10522000A4028091A5029091A6020E940A3C0E94CD
:10523000883B4B015C017093CE036093CD0320E06B
:1052400030E04AE754E46091A7027091A80280918F
:10525000A9029091AA020E940A3C0E94883B6B011D
:105260007C017093CC036093CB0320E030E04AE7ED
:1052700054E46091AB027091AC028091AD029091C8
:10528000AE020E940A3C0E94883B7093CA0360935E
:10529000C903E091D703F0E0E95EF54D308131FBC1
:1052A000222720F930FF6BC0211169C0889CA00122
:1052B000899C500D500D1124CC9C9001CD9C300D3B
:1052C000300D1124240F351F669FF001679FF00DEC
:1052D000F00D1124B9016E0F7F1F072E000C880BF3
:1052E000990B21DC81349F4108F449C02AC020E099
:1052F00030E048EC52E46091A3027091A4028091E6
:10530000A5029091A6020E940A3C0E94883B6093ED
:10531000D3037093D4038093D5039093D603E09185
:10532000D703F0E0E95EF54D208121FB332730F90A
:1053300020FF25C0332319F1693C710581059105D2
:10534000F4F007DD1CC080919B028430C0F4ECE9CE
:10535000F2E0ADEEB3E082E301900D928A95E1F7C1
:1053600010921F0446E050E066E474E08DEE93E096
:105370000E941C3B892B19F481E0809397040E94C2
:10538000B538811120CD8AEA90E00E941B341BCDF4
:105390008A812296E2E10C94283DCF92DF92EF922F
:1053A000FF92CF93DF9380918F04882331F0FADC52
:1053B00090918F049093A0046FC08091A0048111FC
:1053C000F6CF0E94B238439A2D9A0E94B0336B01F7
:1053D0007C0124E6C20ED11CE11CF11CDAEFCFEFF8
:1053E00024EC39E040E050E060E080E00E94A53429
:1053F0006F3F71058105910509F064F4662351F052
:105400006C1708F4C62F0E94B033C616D706E806FC
:10541000F90610F0D15021F7CF3F19F4C0910001E7
:1054200002C0C0930001CB3078F0C33190F0CD3191
:10543000A8F0C832C0F0CC33D8F0C639F0F060EC38
:1054400072E180E090E01DC060E072EC81E090E0ED
:1054500018C060E071EE80E090E013C060E076E993
:1054600080E090E00EC060E870E780E090E009C066
:1054700060E07BE480E090E004C060E875E280E0FA
:1054800090E00E9475382D98439881E08093A004A5
:1054900080919A0481118BCFDF91CF91FF90EF9093
:1054A000DF90CF90089580E0C6CB0F931F9383E2E7
:1054B00091E00E942121811111C066E874E083E22D
:1054C00091E058DB20919F013091A001890120E0FB
:1054D00030E06017710782079307E8F0809133018D
:1054E00090913401A0913501B0913601892B8A2B1E
:1054F0008B2B81F08091640490916504A0916604E7
:10550000B09167048093600490936104A093620457
:10551000B0936304C8DF0E943F1C809164008860E0
:10552000809364001F910F910895CF92DF92EF92C4
:10553000FF92CF93DF936AE871E088EA93E00E94DC
:105540001139CBE2D1E0C12CD12C760128E831E031
:10555000B701A60186E891E082D9499159916991F4
:1055600079912AE030E088EA93E00E94D5358FEF08
:10557000C81AD80AE80AF80A8EE1C816D104E1046C
:10558000F10421F7C8E2DAE224E831E0B701A6012C
:1055900082E891E064D9FE016591749188EA93E014
:1055A0000E943C358FEFC81AD80AE80AF80A2396F9
:1055B00084E2C816D104E104F10431F76FE771E029
:1055C00088EA93E00E941139DF91CF91FF90EF902C
:1055D000DF90CF9008952D9A0E947D1A2D980895FE
:1055E0000F931F93FC0180819181A281B381009769
:1055F000A105B105A9F00091640410916504209102
:10560000660430916704081B190B2A0B3B0BAB0196
:1056100060E070E081E0401751076207730708F00F
:1056200080E01F910F9108959B0140916404509177
:1056300065046091660470916704420F531F611DF9
:10564000711DFC01408351836283738308950F931E
:105650001F93FC0181E00091640410916504209186
:10566000660430916704408151816281738104171F
:1056700015072607370708F480E01F910F9108955A
:105680008F929F92AF92BF92CF92DF92EF92FF9252
:105690000F931F930E94B033009168041091690426
:1056A00020916A0430916B046B017C01C00ED11E05
:1056B000E21EF31E99E288E10FB6F894A895809354
:1056C00060000FBE9093600088EE882E83E0982ED5
:1056D000A12CB12CC701B601A50194010E94AF3CD9
:1056E00060916701709168018091690190916A01F0
:1056F0000E946D3CA7019601261B370B480B590BE6
:10570000CA01B901A50194010E94AF3C2093640431
:105710003093650440936604509367042835324003
:105720004105510508F457DF0E942E1F9C019093FC
:1057300084048093830490919B042B30310508F0FE
:105740004AC010929A04992389F180919C0488237D
:1057500009F41EC46CE370E08FE794E041DF882316
:1057600009F416C480919D04882309F411C46EE1E4
:1057700070E08BE794E034DF882309F409C41092C9
:1057800096048091920481110E94D8218091640432
:1057900090916504A0916604B091670480937304AE
:1057A00090937404A0937504B0937604609164049C
:1057B00070916504809166049091670428E037E059
:1057C00040E050E00E94AF3C672B682B692B31F51D
:1057D000CFD8CED823C081E080939A0420919C0436
:1057E000211112C0409164045091650460916604D7
:1057F0007091670440937F04509380046093810408
:105800007093820480939C04911108C010927304D9
:1058100010927404109275041092760480919A0488
:1058200080939B0480918F04882309F43FC098D70C
:105830000091E8031091E9032091EA033091EB0312
:10584000DC01CB01801B910BA20BB30B853F914078
:10585000A105B10558F180919D04882339F110927A
:1058600096048091640490916504A0916604B091BF
:1058700067048093730490937404A0937504B093A9
:1058800076046DE371E088EA93E00E94113988EABA
:1058900093E00E9439350E94E13880919204811191
:1058A0000E94D82180919A04811123DA80919D046D
:1058B000882309F473C080919E04811155C0109211
:1058C0007704109278041092790410927A0410925E
:1058D00073041092740410927504109276048091EF
:1058E000640490916504A0916604B091670480936C
:1058F0007B0490937C04A0937D04B0937E048091FC
:105900009A04882319F081E08093960481E08093C3
:105910009F0480913D04882349F088E0E6E8F4E0A4
:10592000A3E2B1E001900D928A95E1F78091CF0357
:105930009091D003A091D103B091D2038093C3037F
:105940009093C403A093C503B093C6031092A3031E
:1059500066E371E088EA93E00E94113988EA93E0F7
:105960000E9439350E94E13880919704882309F418
:105970003FC06FE271E088EA93E00E94113988EA43
:1059800093E00E9439350E94E1381092960481E03C
:10599000809398041092970488DD2AC080919F0418
:1059A000882331F16EE170E08BE794E019DE81111C
:1059B00003C010929F041CC0809164049091650400
:1059C000A0916604B0916704809377049093780463
:1059D000A0937904B0937A0462E271E088EA93E0DC
:1059E0000E94113988EA93E00E9439350E94E1381B
:1059F00080919D0480939E046091530170915401A5
:105A000087E794E0EDDD882331F1109296048091D0
:105A1000640490916504A0916604B091670480933A
:105A2000730490937404A0937504B0937604109259
:105A30007704109278041092790410927A046FE03F
:105A400071E088EA93E00E94113988EA93E00E94AD
:105A500039350E94E1386CE370E083E794E0C0DD03
:105A60008823A1F022DD6EEF70E088EA93E00E94C7
:105A7000113988EA93E0FDD70E94E138109273044F
:105A80001092740410927504109276048091580458
:105A900090915904A0915A04B0915B04892B8A2BF0
:105AA0008B2B09F070C080E694E0D1DD882309F4E7
:105AB000F7C06BEE70E088EA93E00E94113988EA43
:105AC00093E0D7D70E94E1388091640490916504F7
:105AD000A0916604B0916704809358049093590490
