:10000000EDC00000D3C1000010C100000EC100000F
:100010000CC100000AC1000008C100008AC1000034
:1000200004C1000091C100000C94C6090C942A0977
:100030000C94660AFAC00000F8C00000F6C0000088
:1000400050C60000F2C0000019C200003DC200000E
:10005000ECC00000EAC00000E8C00000E6C00000FC
:10006000E4C00000E2C00000534D532073656E747D
:100070002100006D6170732E676F6F676C652E7263
:10008000752F6D6170733F713D257300736C6565ED
:10009000702077616B6500736C6565700042616C00
:1000A000616E63653D002B435553443A00232200A3
:1000B00041542B435553443D312C22002B434D4793
:1000C000533A003E00220041542B434D47533D22FA
:1000D000002B434D47443D31002B434D47463D31B6
:1000E000004552524F52002300415400233E20410C
:1000F0005400232077616E743A2025530A003C2077
:10010000002B4346554E3D312C31002B4346554E76
:100110003D31002B434E45544C494748543D310036
:100120002B4346554E3D30002B434E45544C4947DA
:1001300048543D30002B4346554E3D312C31002B69
:100140004343414C523F004343414C523A2031001B
:100150002B435343423D31002B4346554E3D310026
:1001600045302056312058312053303D3000004377
:100170005245473A20302C001C383D43413A004F4D
:100180004B004350494E3A205245414459002B43BD
:100190005245473F002B4350494E3F00010204089F
:1001A00010204080010204081020010204081020E1
:1001B000040404040404040402020202020203030D
:1001C0000303030300000000250028002B000000AB
:1001D0000000240027002A003706400611241FBE15
:1001E000CFEFD8E0DEBFCDBF11E0A0E0B1E0E6E2A6
:1001F000FDE102C005900D92A635B107D9F723E0C5
:10020000A6E5B1E001C01D92AD37B207E1F710E0FD
:10021000CDEED0E004C02197FE010E94310ECC3E0D
:10022000D107C9F789D70C94AC0DEACEFA01AA27F9
:10023000283051F1203181F1E8946F936E7F6E5F29
:100240007F4F8F4F9F4FAF4FB1E03ED0B4E03CD0D7
:10025000670F781F891F9A1FA11D680F791F8A1FBA
:10026000911DA11D6A0F711D811D911DA11D20D021
:1002700009F468943F912AE0269F11243019305DDB
:100280003193DEF6CF010895462F4770405D4193CC
:10029000B3E00FD0C9F7F6CF462F4F70405D4A3319
:1002A00018F0495D31FD4052419302D0A9F7EACFE1
:1002B000B4E0A6959795879577956795BA95C9F710
:1002C00000976105710508959B01AC010A2E069403
:1002D0005795479537952795BA95C9F7620F731FBC
:1002E000841F951FA01D0895E0915601F0915701BC
:1002F000CF01019690935701809356016083E0915E
:100300005601F0915701108281E090E0089580E05D
:10031000089580E0089580E008950895FC01138217
:10032000128224E031E03183208308950C94C109C6
:1003300008951F920F920FB60F92112441980F90BB
:100340000FBE0F901F9018951F920F920FB60F922D
:100350001124419A0F900FBE0F901F90189598E0AE
:100360004298000087FF02C0419A01C041980000F6
:10037000429A0000880F915099F7429808955C9A2C
:1003800042985C98ECCF429898E080E0429A000056
:1003900026B12170880F822B429800009150B1F74E
:1003A00008958F77ECDFEFDF5C9A08951F920F922C
:1003B0000FB60F9211242F933F934F935F936F9338
:1003C0007F938F939F93AF93BF93EF93FF93CF93BD
:1003D000DF931F92CDB7DEB783E0E3DF898384E04C
:1003E000E0DF8983898186FF07C081E08093BD02B9
:1003F00086E2D7DF8093BC020F90DF91CF91FF910F
:10040000EF91BF91AF919F918F917F916F915F918C
:100410004F913F912F910F900FBE0F901F90189505
:10042000A1E0B0E0E6E1F2E00C94510E806869834F
:10043000A6DF6981862F93DF5C9A2196E2E00C9417
:100440006D0E6AE070E080E090E0C6C462E370E0A8
:1004500080E090E0C1C4FADFF9CFFDDFFCDFFBCF25
:100460009091D302911102C0882319F060E087E0D7
:10047000D7DF1092D302089580E0F2CF1F920F923F
:100480000FB60F9211242F938F939F93EF93FF93A7
:100490009091C60080917B038F5F8F7320917C03C6
:1004A000821741F0E0917B03F0E0E75CFC4F908322
:1004B00080937B03FF91EF919F918F912F910F90EC
:1004C0000FBE0F901F9018951F920F920FB60F92AC
:1004D00011248F939F93EF93FF9390917A038091D0
:1004E0007903981779F0E0917A03F0E0EB5CFC4F28
:1004F00080818093C60080917A038F5F83708093A0
:100500007A0305C08091C1008F7D8093C100FF9167
:10051000EF919F918F910F900FBE0F901F901895A4
:10052000FC011382128222E231E03183208308959C
:1005300068EE73E080E090E04FC460E086E0E4D4D1
:100540008CDF61E086E0E0D486CF60E08AE0DCD436
:10055000EFDF61E08AE0D8D4EBCF61E08AE098D4A5
:1005600061E08AE0D1D461E089E092D461E089E081
:10057000CBD461E086E08CD461E086E0C5D460E055
:1005800088E086D462E087E083D481E080936401D0
:1005900008950E94D00A8823A1F06EEF70E087E7EB
:1005A00092E00E94AA0B8CE591E00E94D90A882370
:1005B00031F0D1D7682F87E792E002D5F4CF41DF41
:1005C000E8CF0895A0E0B0E0E8EEF2E00C94460E2B
:1005D0006C017B01EA01CFD34B015C018C0E9D1EA7
:1005E000A11CB11C1092610110926001D1E0E114D4
:1005F000F10409F0D0E0439A2EDF439867EE70E0F3
:1006000087E792E00E94AA0BC0E007E611E019DF3D
:10061000C7D7882309F446C02D9A0F5F1F4F9BD779
:10062000782EF80131978083F8011082682F87E7D0
:1006300092E0C6D4FAE07F1204C063E287E792E05A
:10064000BFD4AED78111E9CF2D98C1111AC0B60120
:1006500087E691E00E94B90D909363018093620157
:10066000892B71F461EE70E087E691E00E94B90D8C
:100670009093630180936201892B19F0C3E001C05C
:10068000C1E0E114F10491F0B70187E691E00E9426
:10069000B90D9093610180936001D1E0892B31F411
:1006A000D0E004C0CC2311F0D11107C064D3681589
:1006B00079058A059B0508F4AACFC09366018C2FA3
:1006C000CDB7DEB7EDE00C94620EA0E0B0E0EBE653
:1006D000F3E00C944B0ED62F609164016623A9F1D0
:1006E00069017A01C72F8C0154DFCF93DF9382EF2A
:1006F00090E09F938F9387E792E09F938F930E9460
:10070000C70B6CEE70E087E792E00E94AA0BB8017D
:1007100087E792E00E94BE0B69EE70E08CE591E005
:100720000E94AA0BB8018CE591E00E94BE0BA601C5
:10073000B7018D2F9C2F46DF91E00F900F900F9007
:100740000F900F900F90813009F090E0892FCDB776
:10075000DEB7E8E00C94670E20E137E2B6CFCF9326
:10076000CDE3C150B1F04FE651E06FE771E08EE8A4
:1007700091E0F2DF882369F0E0916001F09161017E
:100780008085833331F0853331F0813321F0D0DE41
:10079000E8CF80E001C081E0CF9108959A0140E068
:1007A00050E093CF40E157E2F9CF6FE771E0FACF25
:1007B000AB016FE771E0F2CFCF93C9E168EC70E075
:1007C0008EE691E0F5DF811103C0C150B9F701C099
:1007D00081E0CF910895CF9330916401332309F4E0
:1007E00058C020916501211154C09B01AC0180913A
:1007F0006400877F80936400DA01C901B695A795EC
:1008000097958795BC01CD017C5D8B409F4F0E94E1
:10081000F30DCA01B90195D498DECBE0CDDF882372
:10082000E1F080E691E0C1DF88E591E0BEDF80E5A0
:1008300091E0BBDF62E871E085E991E0B3DF8823F6
:1008400071F08DDF882359F067E471E08FE391E068
:10085000A9DF982F882319F018C06FDE76DE85E3B4
:1008600091E0A3DF65DE64DE63DE62DE61DEC1503F
:10087000A9F6A6D68091640088608093640090E019
:1008800031E0911106C030E004C081E08093650141
:10089000F7CF832FCF91089560E072EC81E090E074
:1008A0009ACFCF93882351F088E291E07EDF80E2F7
:1008B00091E07BDF91E0811125C01EC03EDECBE0E0
:1008C0007BDF8823A1F083E191E06FDF8BE091E093
:1008D0006CDF882399F062E871E085E991E062DFDE
:1008E000882361F03CDF982F882341F00BC025DE80
:1008F0002CDE1EDEC15021F790E004C081E091E0C3
:1009000054DFF7CF892FCF910895AB0160E070E0FD
:1009100059CE0F931F93CF93DF93FC0120812223A5
:1009200009F436C08B01EC0189ED90E03EDF81EDEA
:1009300090E03BDF67EC70E08CE591E00BD7BE0107
:100940008CE591E03BD325DE65EC70E08CE591E031
:1009500015D768EB7BE083EC90E0D7DF8130D1F4F2
:10096000B8018CE591E02AD36AE18CE591E033D3BC
:1009700040E355E76CEB70E08FE791E023DE8130D8
:1009800049F42091600130916101232B21F402C0D0
:1009900081E001C080E0DF91CF911F910F91089518
:1009A000AF92BF92DF92EF92FF920F931F93CF937C
:1009B000DF931F92CDB7DEB78C01EBDDD12C60EB5E
:1009C00070E08CE591E0C6D6DD2011F08AE201C02E
:1009D00083E207D44AE050E0B8018CE591E0A6D369
:1009E0006DEA70E08CE591E0C9D668E97AE386EAC1
:1009F00090E08BDF813039F0D11003C0DD24D39437
:100A0000DECF80E05EC0898328DDA0916201B091D5
:100A100063015D0196E0A90EB11C50E0EBE7F2E046
:100A200020E030E060E040E07DE28981D5019D91E9
:100A30005D01992309F444C0923221F4611141C04F
:100A400061E0F4CF662391F3DD20B1F1890124E068
:100A5000000F111F2A95E1F791360CF0905230EDFE
:100A6000390F3A3014F039EC390F7801E30EF11CEC
:100A700037FDFA9497014F5F4430C1F69E2D052F44
:100A800010E008581E4FD8014C91E41202C05F5F7D
:100A900007C0563021F470831182319601C050E0B6
:100AA0002F3F310529F020F020E030E040E0BECFBC
:100AB000908311823196F8CF908311823196B6CF10
:100AC000862F0F90DF91CF911F910F91FF90EF90A4
:100AD000DF90BF90AF900895AEE0B0E0E2E7F5E0C0
:100AE0000C94500E84E690E05BDF882371F119824C
:100AF000ABE7B2E010E0FE013196CF012D9121115C
:100B000004C02981211111C020C02D3211F411E03F
:100B1000F5CF30ED320F3A3020F420831182319638
:100B2000EDCF2D7F2C3251F7ECCFF0D7112341F0D0
:100B30006115710539F088279927861B970B07C027
:100B4000CB0105C08FEF9FEF02C080E090E02E96B2
:100B5000E3E00C946C0EAEE0B0E0E1EBF5E00C9459
:100B60004F0E0FB6F894A89580916000886180932D
:100B70006000109260000FBE61E08FE089D161E0FB
:100B800080E186D160E08EE083D160E082E080D1B8
:100B900061E084E07DD1E1DC80E89EE39093BF02D8
:100BA0008093BE0261E081E173D161E08DE070D19C
:100BB00078942C9860E071EE80E090E039D55CDCB0
:100BC0006BDEA89589DF8C016DE970E087E792E024
:100BD000C1D54AE050E0B80187E792E085D267E9E5
:100BE00070E087E792E0B6D588E291E0DEDD80E252
:100BF00091E0DBDD60E27EE480E090E0EDD06CE847
:100C000070E087E792E0A6D580E04BDE8BE792E0CC
:100C100090935701809356012EE0E0E1F1E0CE0180
:100C20000196DC0101900D922A95E1F79F938F9335
:100C300083E790E09F938F9388E591E09F938F9354
:100C4000A6D56BE772E082E790E063DE0F900F902D
:100C50000F900F900F900F90882329F068E670E0B6
:100C600087E792E077D52E96E4E00C946B0E87E749
:100C700092E0D6D48CE591E053DC88E591E04ECB50
:100C800089E391E090935D0180935C0199C48CE5C8
:100C900091E08FD4882351F0439A8CE591E06DD494
:100CA000682F87E792E04CD54398F1CF87E792E031
:100CB00009D5811101C0089587E792E003D5882303
:100CC00079F02D9A87E792E01AD5682F8CE591E0AC
:100CD000BFD22D986AE070E080E090E07DD0ECCF4C
:100CE00008951F920F920FB60F9211242F933F93E6
:100CF0008F939F93AF93BF938091D5029091D6022B
:100D0000A091D702B091D8023091D40223E0230FF2
:100D10002D3720F40196A11DB11D05C026E8230F33
:100D20000296A11DB11D2093D4028093D502909309
:100D3000D602A093D702B093D8028091D9029091A5
:100D4000DA02A091DB02B091DC020196A11DB11D77
:100D50008093D9029093DA02A093DB02B093DC0275
:100D6000BF91AF919F918F913F912F910F900FBEA7
:100D70000F901F9018952FB7F8946091D50270913D
:100D8000D6028091D7029091D8022FBF08953FB725
:100D9000F8948091D9029091DA02A091DB02B0918F
:100DA000DC0226B5A89B05C02F3F19F00196A11DB6
:100DB000B11D3FBFBA2FA92F982F8827820F911DF1
:100DC000A11DB11DBC01CD0142E0660F771F881F38
:100DD000991F4A95D1F708958F929F92AF92BF9233
:100DE000CF92DF92EF92FF926B017C01D0DF4B013B
:100DF0005C01C114D104E104F104F1F0A5D0C7DF16
:100E0000DC01CB0188199909AA09BB09883E9340E6
:100E1000A105B10570F321E0C21AD108E108F1087B
:100E200088EE880E83E0981EA11CB11CC114D10469
:100E3000E104F10421F7DDCFFF90EF90DF90CF9038
:100E4000BF90AF909F908F900895789484B5826002
:100E500084BD84B5816084BD85B5826085BD85B55E
:100E6000816085BDEEE6F0E0808181608083EAE705
:100E7000F0E08081846080838081826080838081D3
:100E8000816080838081806880831092C100089592
:100E9000CF93DF9390E0FC01E456FE4F2491FC01D8
:100EA000E055FE4F8491882361F190E0880F991FEF
:100EB000FC01E253FE4FC591D491FC01EC53FE4F6F
:100EC000A591B491611109C09FB7F89488812095CC
:100ED00082238883EC912E230BC0623061F49FB78C
:100EE000F8943881822F809583238883EC912E2B70
:100EF0002C939FBF06C08FB7F894E8812E2B2883D0
:100F00008FBFDF91CF91089590E0FC01E456FE4F32
:100F10002491FC01E055FE4FE491EE23A1F0F0E0B6
:100F2000EE0FFF1FEC53FE4FA591B4918FB7F894CD
:100F3000611105C09C91E22FE095E92302C0EC917C
:100F4000E22BEC938FBF08950895A0E0B0E0EAEAA9
:100F5000F7E0A1C66C017A018B01C0E0D0E0CE15AC
:100F6000DF0589F0D8016D918D01D601ED91FC91DD
:100F70000190F081E02DC6010995892B11F47E01C5
:100F800002C02196ECCFC701CDB7DEB7E8E09FC61F
:100F90006115710581F0FB0101900020E9F731979F
:100FA000AF01461B570BDC01ED91FC910280F381F0
:100FB000E02D0995089580E090E00895E9CF089527
:100FC000DC01ED91FC910190F081E02D09950895EF
:100FD0006EE271E0DDCF0F931F93CF93DF93EC01AF
:100FE000EFDF8C01CE01F4DF800F911FDF91CF91F5
:100FF0001F910F9108954F925F926F927F92EF929F
:10100000FF920F931F93CF93DF93CDB7DEB7A197D6
:101010000FB6F894DEBF0FBECDBF7C01FA01CB0145
:1010200019A2223008F42AE08E010F5D1F4F422ED4
:10103000512C612C712CBF01A3019201D4D5F9016F
:10104000CA01015011096A3014F4605D01C0695C85
:10105000D8016C93232B242B252B69F7B801C701EA
:1010600097DFA1960FB6F894DEBF0FBECDBFDF911C
:10107000CF911F910F91FF90EF907F906F905F90B5
:101080004F900895A0E0B0E0E7E4F8E004C68C01DA
:101090006A017B012115310549F4DC01ED91FC91D8
:1010A0000190F081E02D642F09951AC02A30310596
:1010B00099F477FF10C06DE283DFEC0144275527D8
:1010C000BA014C195D096E097F092AE0C80193DF56
:1010D0008C0F9D1F05C02AE0B701A601C8018BDF58
:1010E000CDB7DEB7E8E0F3C50F931F93CF93DF933F
:1010F000EC019A01AB01770F660B770BC3DF8C0114
:10110000CE0166DF800F911FDF91CF911F910F916C
:1011100008952115310549F4DC01ED91FC91019010
:10112000F081E02D642F0995089565CF9A01AB01F8
:1011300060E070E0EECF089588DEFDDF0CDDA7DD16
:10114000FECF9B01AC012D3A8BE1380741055105DB
:1011500030F410926F001092800081E812C063E0BA
:1011600056954795379527956A95D1F72D3A8BE196
:10117000380741055105A0F510926F0010928000CC
:1011800082E8809381003093340320933303A5E2F7
:10119000B0E06DD5DC01CB0122E0B695A79597951F
:1011A00087952A95D1F790932D0380932C0362E0C5
:1011B00088E06EDE61E089E0A7DE61E089E068DE5C
:1011C0001092320310922B0310922A031092E9021C
:1011D0001092E6021092E50280E286BB80936F00D7
:1011E00008959091E6029F5F97702091E50229177C
:1011F000E1F32FB7F8943091E902332341F0E92F5E
:10120000F0E0E352FD4F80839093E6021DC091E031
:101210009093E9028093E8021092E70282E086BB95
:1012200080916F00826080936F00809180008F7347
:101230008068809380008091840090918500409622
:1012400090938900809388002FBF81E090E00895FB
:10125000862FC7CF1F920F920FB60F9211242F9394
:101260003F934F935F936F937F938F939F93EF93EE
:10127000FF938091E9026091E8022091880030910B
:10128000890040913303509134039091E7028A30F2
:10129000F8F4240F351F893019F0762F717001C0D2
:1012A00071E066958F5F791791F3909180007723B5
:1012B00011F0906C02C09F739068909380003093FF
:1012C0008900209388007093E7026093E80248C089
:1012D000E091E5029091E6029E1319C08A3051F424
:1012E0008BE08093E902240F351F3093890020930F
:1012F000880038C01092E902809180008F7380933B
:10130000800080916F008D7F80936F002BC0EF5F16
:10131000E770E093E502F0E0E352FD4F9081909397
:10132000E8021092E702909180009F73906890937A
:1013300080008A3059F48091330390913403280F50
:10134000391F309389002093880009C08091840060
:10135000909185004096909389008093880081E069
:101360008093E902FF91EF919F918F917F916F910F
:101370005F914F913F912F910F900FBE0F901F9053
:1013800018958091E9028111FCCF08951F920F9268
:101390000FB60F9211242F933F934F935F936F9348
:1013A0007F938F939F93EF93FF938091860090910B
:1013B00087004091300320918100442331F02F7B3E
:1013C000209381001092300306C020642093810096
:1013D00020E82093300330913203311125C04111B0
:1013E00066C020912C0330912D03280F391F3093B4
:1013F0008B0020938A0024E026BB20916F0024609C
:1014000020936F002091330330913403820F931F98
:1014100036952795820F931F90932F0380932E0369
:1014200081E08093320343C040912E0350912F03FB
:1014300020913103E09130036091330370913403C4
:10144000841B950B97FD2BC026952E2B460F571FFF
:101450003F5F861B970B3930A8F3209331038091AF
:101460006F008B7F80936F0080912B038F5F8F7352
:1014700090912A03891749F0E82FF0E09091310309
:10148000E651FD4F908380932B03809181008F7BE9
:1014900080938100109230031092320308C0209391
:1014A000310350932F0340932E0330933203FF9167
:1014B000EF919F918F917F916F915F914F913F91AC
:1014C0002F910F900FBE0F901F9018951F920F92A3
:1014D0000FB60F9211242F938F939F93EF93FF9347
:1014E00080916F008B7F80936F00809181008F7B54
:1014F0008093810080913203209130032058909195
:101500003103893020F49695922B8F5FFACF909318
:10151000310380912B038F5F8F7320912A038217F1
:1015200039F0E82FF0E0E651FD4F908380932B03D4
:1015300010923203809181008F7B80938100109202
:101540003003FF91EF919F918F912F910F900FBEDC
:101550000F901F90189590912A0380912B03891763
:1015600051F09F5F9F73E92FF0E0E651FD4F8081BE
:1015700090932A03089580E00895EDCF0895E091B7
:101580002A0380912B038E1739F0EF5FEF73F0E0A1
:10159000E651FD4F8081089580E00895F0CF0895D1
:1015A00080912B0390912A03891708F4805C891B92
:1015B0000895F6CF089580912A0380932B03089510
:1015C000CF93DF93CFE6D0E088818B7F88838881BB
:1015D0008F7D8883F0DFD5DE88818D7F8883DF91E2
:1015E000CF9108959091C100892F807194FF0EC012
:1015F00090917B0380917C03981302C080E0089552
:10160000E0917C03F0E0E75CFC4F80810895EBE71C
:10161000F3E081818083E9E7F3E0808181830895AD
:10162000FC011382128229E431E031832083089582
:101630009B01AC018091C10084FD1092C100109209
:101640007A031092790310927C0310927B03121696
:10165000130614061506ECF4211581EE3807410532
:101660005105F1F082E08093C00060E079E08DE305
:1016700090E0DBD2CA01B901615071098109910979
:1016800022E030E040E050E0D0D23093C50020931B
:10169000C40088E98093C10086E08093C200089569
:1016A0001092C00020E130E0F0CF9091C100892F6E
:1016B000807194FF06C080917B0390917C03891B0D
:1016C0008F730895F2CF08959091C100892F807192
:1016D00094FF14C090917B0380917C03981302C007
:1016E00080E00895E0917C03F0E0E75CFC4F8081AE
:1016F00090917C039F5F9F7390937C030895E4CF48
:1017000008959091C10094FF18C0909179039F5F54
:10171000937020917A039217E1F3E0917903F0E05E
:10172000EB5CFC4F8083909379038091C1008062D1
:101730008093C10081E090E0089580E090E00895FA
:10174000862FDFCFDC01ED91FC910190F081E02D3F
:10175000099508950F931F93CF93DF938C01FB019D
:101760006491EF012196662321F0C801EBDFFE01B1
:10177000F7CFDF91CF911F910F910895CF93DF9312
:10178000EC01E8DFCE0124DCDF91CF910895A0E0E9
:10179000B0E0ECECFBE085C29E01275F3F4F4F813C
:1017A000588561E08D819E8102D0E2E096C2ACE076
:1017B000B0E0ECEDFBE065C27C01262E6A018901F8
:1017C000CE0101964C01F60120FC359120FE3191AD
:1017D0006F01332309F497C1353241F420FC359170
:1017E00020FE31916F01353261F407C03A3029F49F
:1017F0006DE0C7013C87A6DF3C85632FC701A2DFF0
:10180000E2CF512C312C20E02032A0F43B3269F0A1
:1018100030F4303259F0333269F420612CC03D325B
:1018200039F0303339F4216026C02260246023C0AF
:10183000286021C027FD28C080ED830F8A3078F40E
:1018400026FF06C0FAE05F9E800D1124582E13C0BB
:101850009AE0399E800D1124382E20620CC03E3251
:1018600021F426FD50C1206406C03C3611F42068E6
:1018700002C0383649F4F60120FC359120FE319142
:101880006F013111C1CF8FC0333629F0333769F082
:10189000333509F156C0F801808189830E5F1F4FEF
:1018A00044244394512C540114C03801F2E06F0ECB
:1018B000711CF801A080B18026FF03C0652D70E087
:1018C00002C06FEF7FEFC5012C876DD12C01830122
:1018D0002C852F7715C03801F2E06F0E711CF801CE
:1018E000A080B18026FF03C0652D70E002C06FEFBD
:1018F0007FEFC5012C8732D12C012C852068830114
:1019000023FD1BC0832D90E048165906B0F460E219
:10191000C7012C8717DF3A942C85F4CFF50127FDFA
:10192000659127FF61915F01C7012C870BDF2C8533
:1019300031103A94F1E04F1A51084114510471F7F3
:10194000DAC0343611F0393639F5F80127FF07C00F
:1019500060817181828193810C5F1F4F08C060811B
:101960007181072E000C880B990B0E5F1F4F2F768D
:10197000722E97FF09C090958095709561957F4F65
:101980008F4F9F4F2068722E2AE030E0A4010E9402
:101990001601A82EA81844C0353729F42F7EB22E80
:1019A0002AE030E025C0F22FF97FBF2E3F36C1F08C
:1019B00018F4383579F0A7C0303719F0383721F0EE
:1019C000A2C02F2F2061B22EB4FE0DC08B2D8460DB
:1019D000B82E09C024FF0AC09F2F9660B92E06C0FA
:1019E00028E030E005C020E130E002C020E132E034
:1019F000F801B7FE07C060817181828193810C5F1D
:101A00001F4F06C06081718180E090E00E5F1F4F24
:101A1000A4010E941601A82EA818FB2DFF777F2E87
:101A200076FE0BC0372D3E7FA51450F474FE0AC01D
:101A300072FC08C0372D3E7E05C0BA2C372D03C07E
:101A4000BA2C01C0B52C34FF0DC0FE01EA0DF11D0A
:101A50008081803311F4397E09C032FF06C0B3940F
:101A6000B39404C0832F867809F0B39433FD13C078
:101A700030FF08C0B31428F4532C5A0C5B18B32C55
:101A800001C05A2CB31458F460E2C7013C875ADEF7
:101A9000B3943C85F7CFB31410F43B1801C0312C3C
:101AA00034FF0DC060E3C7013C874CDE3C8532FF4C
:101AB00012C031FD02C068E70CC068E50AC0832F80
:101AC000867849F031FF02C06BE201C060E237FD69
:101AD0006DE2C70137DEA51428F460E3C70132DEEA
:101AE0005A94F9CFAA94F401EA0DF11D6081C7015F
:101AF00029DEA110F7CF332009F465CE60E2C701DB
:101B000021DE3A94F8CF2C96E2E1D7C01F93FC0176
:101B100099278827BC01E89411911032E9F3193014
:101B200010F01E30C8F31B3249F01D3241F46894A6
:101B300005C044D0610F711D811D911D119110537D
:101B40001A30B8F33EF490958095709561957F4F6B
:101B50008F4F9F4F1F910895F894D9C0FC010590B5
:101B6000615070400110D8F7809590958E0F9F1F9F
:101B70000895FB0155915523A9F0BF01DC014D915A
:101B800045174111E1F759F4CD010590002049F0C6
:101B90004D9140154111C9F3FB014111EFCF81E097
:101BA00090E001970895FC01615070400190011090
:101BB000D8F7809590958E0F9F1F0895592F482F25
:101BC000372F262F660F771F881F991F660F771FE5
:101BD000881F991F620F731F841F951F660F771F41
:101BE000881F991F0895A1E21A2EAA1BBB1BFD0195
:101BF0000DC0AA1FBB1FEE1FFF1FA217B307E407EC
:101C0000F50720F0A21BB30BE40BF50B661F771F43
:101C1000881F991F1A9469F7609570958095909523
:101C20009B01AC01BD01CF010895052E97FB16F471
:101C300000940FD057FD05D0D6DF07FC02D046F444
:101C400008C050954095309521953F4F4F4F5F4FBD
:101C5000089590958095709561957F4F8F4F9F4F18
:101C60000895EE0FFF1F0590F491E02D099440D0E8
:101C7000A59F900DB49F900DA49F800D911D1124E0
:101C800008952F923F924F925F926F927F928F9220
:101C90009F92AF92BF92CF92DF92EF92FF920F93FB
:101CA0001F93CF93DF93CDB7DEB7CA1BDB0B0FB605
:101CB000F894DEBF0FBECDBF09942A8839884888C2
:101CC0005F846E847D848C849B84AA84B984C88458
:101CD000DF80EE80FD800C811B81AA81B981CE0F4F
:101CE000D11D0FB6F894DEBF0FBECDBFED01089534
:101CF000A29FB001B39FC001A39F700D811D11244D
:101D0000911DB29F700D811D1124911D089510E049
:101D1000CDEED0E003C0FE01A4DF2196CE3ED10778
:061D2000D1F7F894FFCF9B
:101D2600000000007401A507870189018B018D0160
:101D360034352E3132332C34352E33323100000017
:101D460000002809A507D90ABD0ACE0A96010D0A80
:101D5600006F766600000000002809A507D90ABDB5
:101D66000ACE0A960100000000A00BA507620B7FB1
:061D76000BF20A070B004E
:00000001FF
